:100000000C94DD070C9424080C9424080C94240808
:100010000C9424080C9424080C9424080C942408B0
:100020000C9424080C9424080C9482280C945629CF
:100030000C94DB230C9424080C9424080C942408BE
:100040000C9424080C9424080C9424080C94240880
:100050000C9424080C9426240C9424080C94240852
:100060000C9424080C9424080C9424080C94240860
:100070000C9424080C9424080C9424080C94240850
:100080000C9424080C9424080C9424080C94240840
:100090000C9424080C9424080C9424080C94240830
:1000A0000C9424080C9424080C94240829003A0089
:1000B0003B003C003D003E003F004000410042004C
:1000C00043004400450053004700480035001E002F
:1000D0001F0020002100220023002400250026000C
:1000E0002D002E002A0000004A004B002B001400B7
:1000F0001A000800150017001C0018000C00120060
:1001000013002F00300031004D004E003900040074
:100110001600070009000A000B000D000E000F007A
:1001200033003400000028004F004900E1000000C7
:100130001D001B000600190005001100100036000C
:1001400037003800E100000052004C00E000E300FE
:10015000E20000000000000000002C004600270024
:100160000000E2000151E0005100500001000100D8
:100170000100010001000100010001000100010077
:100180000100010001000100010001000100010067
:100190000100010001000100010001000100010057
:1001A0000100010001000000010001000100C25C2B
:1001B000C35CC55CCF5CD55C01000100010001009F
:1001C0000100010001000100010001000100010027
:1001D0000100010001000100010001000100010017
:1001E0000100010000000100010001000100000009
:1001F000005C01000100010001000100010001009C
:1002000001000100010000000100010001000100E7
:1002100001000000000000000000010001000100DA
:1002200000000100010001000100010001000100C7
:1002300001000100010001000100010001000100B6
:1002400001000100010001000100010001000100A6
:100250000100010001000100010001000100010096
:100260000100010001000000010001000100010087
:100270000100010001000100010001000100010076
:100280000100010001000100010001000100010066
:100290000100010001000100010001000100010056
:1002A0000100010000000100010001000100000048
:1002B0000100010001000100010001000100010036
:1002C0000100010001000000010001000100010027
:1002D000010000000000000000000100010001001A
:1002E0000000010001000100010001000100010007
:1002F00001000100010001000100010001000100F6
:1003000001000100010001000100010001000100E5
:1003100001000100010001000100010001000100D5
:1003200001000100010000000100010001000100C6
:1003300001000100010001000100010001000100B5
:1003400001000100010001000100010001000100A5
:100350000100010001000100010001000100010095
:100360000100010000000100010001000100000087
:100370000100010001000100010001000100010075
:100380000100010001000000010001000100010066
:100390000100000000000000000001000100010059
:1003A0000000010001000100010001000100010046
:1003B0000100010001000100010001000100010035
:1003C0000100010001000100010001000100010025
:1003D0000100010001000100010001000100010015
:1003E0000100010001000000010001000100010006
:1003F00001000100010001000100010001000100F5
:1004000001000100010001000100010001000100E4
:1004100001000100010001000100010001000100D4
:1004200001000100000001000100010001000000C6
:1004300001000100010001000100010001000100B4
:1004400001000100010000000100010001000100A5
:100450000100000000000000000001000100010098
:100460000000010001000100010001000100010085
:100470000100010001000100010001000100010074
:100480000100010001000100010001000100010064
:100490000100010001000100010001000100010054
:1004A0000100010001000000010001000100010045
:1004B0000100010001000100010001000100010034
:1004C0000100010001000100010001000100010024
:1004D0000100010001000100010001000100010014
:1004E0000100010000000100010001000100000006
:1004F00001000100010001000100010001000100F4
:1005000001000100010000000100010001000100E4
:1005100001000000000000000000010001000100D7
:1005200000000100010001000100010001000100C4
:1005300001000100010001000100010001000100B3
:1005400001000100010001000100010001000100A3
:100550000100010001000100010001000100010093
:100560000100010001000000010001000100010084
:100570000100010001000100010001000100010073
:100580000100010001000100010001000100010063
:100590000100010001000100010001000100010053
:1005A0000100010000000100010001000100000045
:1005B0000100010001000100010001000100010033
:1005C0000100010001000000010001000100010024
:1005D0000100000000000000000001000100010017
:1005E0000000010001000100010001000100010004
:1005F00001000100010001000100010001000100F3
:1006000001000100010001000100010001000100E2
:1006100001000100010001000100010001000100D2
:1006200001000100010000000100010001000100C3
:1006300001000100010001000100010001000100B2
:1006400001000100010001000100010001000100A2
:100650000100010001000100010001000100010092
:100660000100010000000100010001000100000084
:100670000100010001000100010001000100010072
:100680000100010001000000010001000100010063
:100690000100000000000000000001000100010056
:1006A0000000010001000100010001000100010043
:1006B0000100010001000100010001000100010032
:1006C0000100010001000100010001000100010022
:1006D0000100010001000100010001000100010012
:1006E0000100010001000000010001000100010003
:1006F00001000100010001000100010001000100F2
:1007000001000100010001000100010001000100E1
:1007100001000100010001000100010001000100D1
:1007200001000100000001000100010001000000C3
:1007300001000100010001000100010001000100B1
:1007400001000100010000000100010001000100A2
:100750000100000000000000000001000100010095
:100760000000010001000100010001000100010082
:100770000100010001000100010001000100010071
:100780000100010001000100010001000100010061
:100790000100010001000100010001000100010051
:1007A0000100010001000000010001000100010042
:1007B0000100010001000100010001000100010031
:1007C0000100010001000100010001000100010021
:1007D0000100010001000100010001000100010011
:1007E0000100010000000100010001000100000003
:1007F00001000100010001000100010001000100F1
:1008000001000100010000000100010001000100E1
:1008100001000000000000000000010001000100D4
:1008200000000100010001000100010001000100C1
:1008300001000100010001000100010001000100B0
:1008400001000100010001000100010001000100A0
:100850000100010001000100010001000100010090
:100860000100010001000000010001000100010081
:100870000100010001000100010001000100010070
:100880000100010001000100010001000100010060
:100890000100010001000100010001000100010050
:1008A0000100010000000100010001000100000042
:1008B0000100010001000100010001000100010030
:1008C0000100010001000000010001000100010021
:1008D0000100000000000000000001000100010014
:1008E0000000010001000100010001000100010001
:1008F00001000100010001000100010001000100F0
:1009000001000100010001000100010001000100DF
:1009100001000100010001000100010001000100CF
:1009200001000100010000000100010001000100C0
:1009300001000100010001000100010001000100AF
:10094000010001000100010001000100010001009F
:10095000010001000100010001000100010001008F
:100960000100010000000100010001000100000081
:10097000010001000100010001000100010001006F
:100980000100010001000000010001000100010060
:100990000100000000000000000001000100010053
:1009A0000000010001000100010001000100010040
:1009B000010001000100010001000100010001002F
:1009C000010001000100010001000100010001001F
:1009D000010001000100010001000100010001000F
:1009E0000100010001000000010001000100010000
:1009F00001000100010001000100010001000100EF
:100A000001000100010001000100010001000100DE
:100A100001000100010001000100010001000100CE
:100A200001000100000001000100010001000000C0
:100A300001000100010001000100010001000100AE
:100A4000010001000100000001000100010001009F
:100A50000100000000000000000001000100010092
:100A6000000001000100010001000100010001007F
:100A7000010001000100010001000100010001006E
:100A8000010001000100010001000100010001005E
:100A9000010001000100010001000100010001004E
:100AA000010001000100000001000100010001003F
:100AB000010001000100010001000100010001002E
:100AC000010001000100010001000100010001001E
:100AD000010001000100010001000100010001000E
:100AE0000100010000000100010001000100000000
:100AF00001000100010001000100010001000100EE
:100B000001000100010000000100010001000100DE
:100B100001000000000000000000010001000100D1
:100B200000000100010001000100010001000100BE
:100B300001000100010001000100010001000100AD
:100B4000010001000100010001000100010001009D
:100B5000010001000100010001000100010001008D
:100B6000010001000100000001000100010001007E
:100B7000010001000100010001000100010001006D
:100B8000010001000100010001000100010001005D
:100B9000010001000100010001000100010001004D
:100BA000010001000000010001000100010000003F
:100BB000010001000100010001000100010001002D
:100BC000010001000100000001000100010001001E
:100BD0000100000000000000000001000100010011
:100BE00000000100010001000100010001000100FE
:100BF00001000100010001000100010001000100ED
:100C000001000100010001000100010001000100DC
:100C100001000100010001000100010001000100CC
:100C200001000100010000000100010001000100BD
:100C300001000100010001000100010001000100AC
:100C4000010001000100010001000100010001009C
:100C5000010001000100010001000100010001008C
:100C6000010001000000010001000100010000007E
:100C7000010001000100010001000100010001006C
:100C8000010001000100000001000100010001005D
:100C90000100000000000000000001000100010050
:100CA00000000100010001000100010032190A00EA
:100CB000047F3F1F643214643214783C1E1E140AF1
:100CC000052223252628292A2C2D2F30323335368C
:100CD000383A3B3D3E4042434547494A4C4E5051CD
:100CE000535557595A5C5E6062646668696B6D6FF4
:100CF00071737577797B7D7F81838587898A8C8EF7
:100D000090929496989A9C9E9FA1A3A5A7A8AAACFE
:100D1000AEAFB1B3B4B6B8B9BBBCBEBFC1C2C3C538
:100D2000C6C7C9CACBCCCDCED0D1D2D2D3D4D5D6DA
:100D3000D7D7D8D9D9DADADBDBDBDCDCDCDCDCDD0D
:100D4000DDDDDDDCDCDCDCDCDBDBDBDADAD9D9D8F1
:100D5000D7D7D6D5D4D3D2D2D1D0CECDCCCBCAC989
:100D6000C7C6C5C3C2C1BFBEBCBBB9B8B6B4B3B1B8
:100D7000AFAEACAAA8A7A5A3A19F9E9C9A98969453
:100D800092908E8C8A89878583817F7D7B79777528
:100D900073716F6D6B6968666462605E5C5A595707
:100DA000555351504E4C4A4947454342403E3D3BC6
:100DB0003A3836353332302F2D2C2A292826252350
:100DC00022FFAA7F5540000101010101010101013B
:100DD00002020202020202020203030303030303EC
:100DE00003040404040404040505050505060606B9
:100DF0000606070707070708080808090909090A76
:100E00000A0A0B0B0B0C0C0C0D0D0D0E0E0E0F0F1A
:100E10000F101011111112121313141415151616A8
:100E20001717181819191A1A1B1B1C1D1D1E1E1F17
:100E30002020212222232424252626272829292A66
:100E40002B2C2D2D2E2F303132323334353637388E
:100E5000393A3B3C3D3E3F4041424344454647488A
:100E6000494A4C4D4E4F50515354555658595A5B60
:100E70005D5E5F616264656668696B6C6D6F707200
:100E8000737577787A7B7D7E8082838587888A8C6C
:100E90008E8F91939596989A9C9EA0A2A3A5A7A9A0
:100EA000ABADAFB1B3B5B7BABCBEC0C2C4C6C9CB97
:100EB000CDCFD1D4D6D8DBDDDFE2E4E7E9EBEEF04D
:100EC000F3F5F8FAFDFF04033000000010034E00B4
:100ED00065006F00380037006800730000000E03E3
:100EE00064007A0074006500630068000000040379
:100EF000090409023B00020100A0FA0904000001F4
:100F000003010100092111010001224000070581B0
:100F10000308000A0904010001030000000921116F
:100F2000010001223B000705820320000A12011084
:100F30000100000008EDFE606001000102030105F0
:100F4000010906A1018505050719E029E715002516
:100F5000019508750181020507190029EF15002583
:100F60000195F0750181020508190129059505759E
:100F7000019102950175039101C005010906A101C6
:100F8000050719E029E7150025019508750181027B
:100F90009501750881010507190029FF150026FF35
:100FA0000095067508810005081901290595057544
:100FB000019102950175039101C011241FBECFEF6D
:100FC000DAE0DEBFCDBF04B603FE27C08091DD05A9
:100FD0009091DE05A091DF05B091E0058730904B40
:100FE000A740B04BD1F41092DD051092DE051092AF
:100FF000DF051092E00514BE84B7877F84BF0FB66B
:10100000F894A895809160008861809360001092A8
:1010100060000FBEE0E0F8E3099511E0A0E0B1E068
:10102000E2E8F9E502C005900D92A636B107D9F7BE
:1010300025E0A6E6B1E001C01D92AD3DB207E1F7A3
:101040000E94C2250C94832C0C94000090E080E058
:1010500008950895089581E0089581FF03C0879A57
:101060008F9808958798FCCF81E008950C942B0801
:1010700008950C9438081F93CF93DF9300D000D0CD
:101080000F92CDB7DEB749835A836B833091A303A8
:1010900089819A8131111DC06623B9F02223A9F0FC
:1010A0000E94B420182F682F89819A810E946120A4
:1010B00069817A81812F0F900F900F900F900F9080
:1010C000DF91CF911F910C94F7080E948D20182F6B
:1010D000EFCF0E94B42069817A81EDCFFC01262FE9
:1010E000408151816281738184810C943B08CF934C
:1010F000DF93EC0160E00E946E08BE01DF91CF91AA
:101100000C9439080E9470240E94FE21811102C0B3
:101110000E94A4220E94EE140C94E10A0C94E30AAB
:1011200008950E94C81B0E9490082FEF84E39CE062
:10113000215080409040E1F700C000000C944A2408
:101140000F931F93CF93DF93EC0161E00E946E0831
:101150008C01BE010E943608882389F1BE01C801B6
:101160000E945A14882359F1BE01C8010E94B51586
:10117000882329F1BE01C8010E9407168823F9F0CF
:10118000BE01C8010E942A178823C9F0BE01C80108
:101190000E942113882399F08A81882339F0011550
:1011A0008CE5180751F00E3D1C4579F0CE01DF911A
:1011B000CF911F910F910C9434080E94910880E008
:1011C000DF91CF911F910F9108950E94A422F7CF34
:1011D0000C942D0881E008950C94EA08CF93C82F51
:1011E0000E94E8088C2FCF910C94EC080895E72F0B
:1011F000F0E096E0899FE00DF11D112484E0EE0FF0
:10120000FF1F8A95E1F7E60FF11DEE0FFF1FE45572
:10121000FF4F859194910895FC01EE0FFF1FE45557
:10122000F34F859194910895CF93DF930E94F7082F
:101230000E94070AEC01811521E59207D0F581157E
:1012400030E5930708F096C081159042F8F4C11577
:1012500081E0D807B8F4C03ED10588F4C03CD10580
:1012600008F07BC0C130D10569F0209759F0CE015C
:101270000497813A910530F0D0E0C0E003C0C83E49
:10128000D105D0F7CE01DF91CF910895C11590E43B
:10129000D90708F06CC0CE019F70C11520E3D207BA
:1012A00008F45EC0CE019927D3FF5EC0EC01D86C74
:1012B000E9CF811535E5930700F5811544E59407DD
:1012C00008F08DC0C11583E5D80708F074C0C115BA
:1012D00092E5D90708F46AC0CE018370992721E00E
:1012E00030E002C0220F331F8A95E2F7C695C695FB
:1012F00080E2C89FE001112455C0811529E59207BD
:10130000A0F4811538E5930708F06EC0811546E515
:10131000940708F0B1CF0E949E0AC82FD0E0DC2FBE
:10132000CC27CC27DF71D062ADCFC1158AE5D807B5
:1013300008F45FC0CE0190568115904208F09CCF12
:101340008D2F8F710E949E0A90E0982F8827882702
:101350009F719C012C2BE901E6CFCE01805C9109A5
:101360000E940C09EC018ECFEC01D06C8BCFDF70AA
:10137000D06A88CFE4E096958795EA95E1F7837087
:101380002C2F26952695237040E2249F900111244E
:10139000382B8C2F8370C1E0D0E002C0CC0FDD1F52
:1013A0008A95E2F7C22BD32BDC686CCFDC2FCC27DD
:1013B000C16FD06A67CFCE018370992721E030E0FA
:1013C00002C0220F331F8A95E2F7C695C69590E2B8
:1013D000C99FE0011124C22BD32BDA6853CFD82F39
:1013E000CC27C46FD06A4ECFD82FCC27C06FD06A1D
:1013F00049CF8C2F8F700E949E0A34E0D695C795F6
:101400003A95E1F7CF709C2FEC01D0693BCF823841
:101410009105B1F1B0F48133910509F475C048F438
:101420008932910509F469C08A32910509F473C0C3
:1014300008958533910509F459C08933910501F167
:101440000895833E9105A9F138F4803E9105F9F0A5
:10145000823E910549F10895863E9105A9F1873EA6
:101460009105C9F1843E910519F52091CF0521FF21
:101470001FC08091CE0584FD14C087EE90E00895D2
:101480002091CE052370A1F080EE90E00895209188
:10149000CE0520FD47C03091CF0530FF09C024FFA5
:1014A00044C090E080E004C02091CE0522FDF7CF3B
:1014B00008952091CE0522FD3BC03091CF0530FD2F
:1014C000E3CF24FFF5CFEDCF2091CE0523FFF0CF62
:1014D00024FDE7CFD2CF2091CE0523FD2CC0309143
:1014E000CF0531FFEECF84EE90E008952091CE0538
:1014F00025FFDECF89E290E008952091CE0525FFFB
:10150000D7CF85E390E008952091CE0526FFD0CF78
:101510008AE290E008952091CE0526FFC9CF81E3AD
:1015200090E0089589E390E0089583EE90E00895B7
:1015300082EE90E0089586EE90E008959091CE05B9
:1015400092FF06C0282F28712830F9F4877F846025
:1015500093FF06C0282F28712831F1F4877E84611B
:101560002091CF0520FF06C0382F38713830D9F4CC
:10157000877F816021FF06C0282F28712831D1F490
:10158000877E816194FD877E0895282F2471243001
:10159000F9F68B7F8860DCCF282F2471243101F786
:1015A0008B7E8861DDCF382F3171313019F78E7F16
:1015B0008860E0CF282F2171213121F78E7E88614C
:1015C000E1CF0C9429080C942A08E82FF0E0EE0FE4
:1015D000FF1FE958FB4F808191810895089580EAAB
:1015E0008A95F1F70895A4E3B1E061E070E08D9190
:1015F000E82FE295EF70F0E041A18F709B0101C0F0
:10160000220F8A95EAF7922F9095942391A382A1B5
:10161000822B82A381E0AA33B80749F7A4E2B1E0A4
:1016200061E070E08D91E82FE295EF70F0E041A16C
:101630008F709B0101C0220F8A95EAF7922F909537
:10164000942391A382A1822B82A381E0A433B807C3
:1016500049F7EBE6F4E0A7E7B4E087E794E01192FE
:1016600011921D921D928E179F07C9F786E00E9466
:10167000C20B0C9482088F929F92AF92BF92CF922E
:10168000DF92EF92FF920F931F93CF93DF9384E348
:10169000E82E81E0F82E0BE614E0912CAA24A39406
:1016A000B12CF70181917F01C82FC295CF70D0E096
:1016B00099A18F70650101C0CC0C8A95EAF7892F3A
:1016C0008C2989A38AA18C2C809488218AA30E94CA
:1016D000EF0AE4E2F1E050E040E030E020E0619128
:1016E000A62FA295AF70B0E090968C9190E06F70AD
:1016F00002C0959587956A95E2F780FD3EC0C501C9
:10170000042E02C0880F991F0A94E2F7282B392B68
:101710004F5F5F4F4031510511F789A1882289A29F
:101720008AA1C82ACAA2F8018081918128173907A5
:1017300039F13183208381E0982A0E5F1F4FFAE34D
:10174000EF16F1E0FF0609F0ACCF292D46E067E780
:1017500074E08BE694E00E94C30B0E948E08892DF2
:10176000DF91CF911F910F91FF90EF90DF90CF907D
:10177000BF90AF909F908F90089590E080E0C6CF8B
:1017800080E0DACF0895FF920F931F93CF93DF93FA
:10179000F82E092F162FD72FC42F222349F081E0CE
:1017A000809368010E940B249093670180936601E7
:1017B000809168018823A1F0809166019091670172
:1017C0000E941724069760F0EF2DF02FA12FBD2F58
:1017D00090E080E0D0E08C179D0744F01092680103
:1017E000DF91CF911F910F91FF9008952191319139
:1017F0002D933D930196EFCFEF92FF920F931F939E
:10180000CF93DF93EB01E82FD11110C0442321F0D7
:10181000F0E0EA53F24FE4916E2F7E2F8E2FDF918E
:10182000CF911F910F91FF90EF9008950D2F10E031
:10183000282F30E0442329F02A53324FF901249114
:1018400030E0F6E0CF9FC0011124EFEFF0E0BF01E0
:101850000E94322BAB018C2F90E0880F991FA5E5D9
:10186000A49FB001A59F700D1124861B970B982F84
:10187000990F980FBF01601B710B629FD001639F8E
:10188000B00D729FB00D11248B2F9D9FB0011124BC
:10189000672F7727EF01C61BD70BBE01629FE001C0
:1018A000639FD00D729FD00D11247F01E91AF108BA
:1018B000E09EB001E19E700DF09E700D1124672F27
:1018C0007727E61BF70BE29F8001E39F100DF29F45
:1018D000100D1124E12F722F4230510599F048F478
:1018E0004115510569F04130510581F0EB2F8D2FE5
:1018F00007C04430510569F080F046305105B1F71A
:101900006E2F8DCFE22F7B2F812FFACFE22F7D2FED
:10191000F7CFEB2F822F712FF3CF7B2F822FED2F5D
:10192000EFCF41E00C94FC0B0895CF93DF93762F1B
:10193000E901682F842F0E94910C798368838A8340
:10194000DF91CF910895433308F042E30C94950C56
:1019500080918304982F9E7F61F4817082608093D0
:10196000830480918604833318F082E38093860495
:1019700008958635B0F381708465F1CF88E090E0FA
:101980000C94242CCF92DF92EF92FF926B017C019A
:101990000E94A80CB701A60188E090E0FF90EF90AC
:1019A000DF90CF900C94422CE3E8F4E081E1808357
:1019B00011828FEF828382E383831482608171813D
:1019C000828193810C94C20C8091830480FF02C0B9
:1019D0008695089580E0089590918704933018F4D7
:1019E0009F5F90938704882351F0609183047091E6
:1019F000840480918504909186040C94C20C08950F
:101A000081E00C94EC0C90918704992319F091508B
:101A100090938704882351F060918304709184042B
:101A200080918504909186040C94C20C089581E005
:101A30000C94030D70E00C94FE14609108018091E9
:101A4000830480FF0AC08091070123E0829FC001C8
:101A5000112488579B4F0C941A0D80910901909185
:101A60000A0123E0829FF0011124E857FB4F8917F8
:101A700050F71182108212828F5F3396F8CF9091C7
:101A8000830490FF14C09091090120910A0133E072
:101A9000939FF0011124E857FB4F921710F00C941C
:101AA0001D0D8183608342839F5F3396F6CF089537
:101AB000CF93DF9300D00F92CDB7DEB79091830420
:101AC00090FF0AC09E012F5F3F4F0E94A30C4B81E5
:101AD00069818A810E943F0D0F900F900F90DF91D6
:101AE000CF910895CF93DF93EC01EC81F0E0EF53B9
:101AF000F34F4491E3E8F4E0628181810E94580D44
:101B00008C818F5F8C83DF91CF910895CF93DF938A
:101B1000EC01E3E8F4E0438162818C810E94580D7E
:101B20008C818F5F8C83DF91CF9108950F931F93EA
:101B3000CF93DF9300D00F92CDB7DEB78C018091A9
:101B4000690181110AC09E012F5F3F4F42E36FEF91
:101B50000E94A30C8A8180936901F801648161303D
:101B600069F08091690140E0662361F040E06230F5
:101B700011F44091690180E060E004C06091690166
:101B800040E080E00E943F0DF801848190E00196E2
:101B900063E070E00E94462B84830F900F900F90BB
:101BA000DF91CF911F910F910895AF92BF92CF9285
:101BB000DF92EF92FF920F931F93CF93DF9300D0AA
:101BC0000F92CDB7DEB7182FF62E042FE22E90918C
:101BD000830490FF29C0E92FE695AE2FB0E0A65C04
:101BE000BE4F8C9180938A039E7F923059F59E015F
:101BF0002F5F3F4F812F0E94A30C4B8169818A8107
:101C00000E943F0D10938404F09285040093860493
:101C1000EE2051F0609183047091840480918504DA
:101C2000909186040E94C20C0F900F900F90DF914C
:101C3000CF911F910F91FF90EF90DF90CF90BF90C9
:101C4000AF900895823019F400918604DBCF86307E
:101C500019F410918404D6CF8930D9F3893191F6E3
:101C6000E9518E2F8170D82EE695F0E0EF53F24FB8
:101C7000A590B490C12CBB2460910B01C61618F03E
:101C80000E941D0DBFCF2C2D30E0A29EC001A39E4F
:101C9000900DB29E900D112470E00E94322B812F86
:101CA000D11013C0860F40910901420F532F511DCF
:101CB0009A01220F331F240F351F28573B4F402F07
:101CC0006F2D0E94A30CC394D7CF861BECCFE3E803
:101CD000F4E09181282F4381628188E0890F0C9480
:101CE000D50D81E00C94670EE3E8F4E09181282F94
:101CF0004381628188EF890F0C94D50D81E00C94AB
:101D0000740EE3E8F4E0628128E0620F08F46FEFFC
:101D1000282F438181810C94D50D81E00C94810E94
:101D2000E3E8F4E0628128E0621B08F460E0282F19
:101D3000438181810C94D50D81E00C94900EE3E8F1
:101D4000F4E0438128E0420F08F44FEF282F62812E
:101D500081810C94D50D81E00C949F0EE3E8F4E0B2
:101D6000438128E0421B08F440E0282F62818181F2
:101D70000C94D50D81E00C94AE0E20E00C94D50DA2
:101D8000EF92FF921F93CF93DF93EC0110E0EE24CC
:101D9000EA94F12C60910B01161770F00E941D0D52
:101DA0009A818C8190FF27C08F5F8C83DF91CF91C8
:101DB0001F91FF90EF90089520910901422F410F4C
:101DC0005527551FCA019A01220F331F280F391FAB
:101DD00028573B4F70E0C7010E94462B962F8C81FD
:101DE0004091860460918504199F800D11240E9402
:101DF000A30C1F5FCFCF8150D8CFAF92BF92CF92AD
:101E0000DF92EF92FF920F931F93CF93DF93FC012A
:101E100082810FEF80FF01E010E04BE6A42E80915D
:101E20000B011817C8F00E941D0D80916B01013045
:101E300009F055C0811102C080910B01815080933F
:101E40006B01DF91CF911F910F91FF90EF90DF9089
:101E5000CF90BF90AF900895C0910901C12ED12CB1
:101E6000CC0DDD2DD11DCE01880F991FC80FD91FB4
:101E7000C857DB4F198218821A8234E0E32EF12C06
:101E8000B12C80916B018B0D8C361CF16A2D0E9458
:101E9000242B892F082E000C990BC816D90691F413
:101EA000809186048E9DA0018F9D500D1124559523
:101EB0004795559547959E016091850480918404CE
:101EC0000E94A30CB00EF1E0EF1AF108D1F61F5FEB
:101ED000A6CF87FFDFCF90910B01890FDBCF90E07A
:101EE000019660910B0170E00E94462BA8CF0F93E2
:101EF0001F93CF93DF938091090190910A0123E012
:101F0000829FF0011124E857FB4F891740F1C0E090
:101F1000D3E060910B01C61740F10E941D0D209186
:101F2000050180916A01820F80936A0190910601F8
:101F3000920F90930601191654F4082E000C990B79
:101F400040910B014150550B841795071CF02195CA
:101F500020930501DF91CF911F910F910895118278
:101F6000108212828F5F3396D0CF0C2F10E070E07A
:101F7000C8010E94462B20910901820F482F50E092
:101F800020916A01022E000C330B02171307BCF0DC
:101F900020910601022E000C330B201731077CF034
:101FA0008D9F9001112428573B4F409186046091EA
:101FB0008504809184040E94A30CCF5FAACFFA010C
:101FC000EE0FFF1FE40FF51FE857FB4F1182108241
:101FD0001282F3CF8F929F92AF92BF92CF92DF92F5
:101FE000EF92FF920F931F93CF93DF93EC014C81FD
:101FF000042F10E09801D8010E948A2B9B01AC01AC
:102000000E94A02B4B015C01E0E2F0E0E01BF10B31
:10201000A5E5B0E0AC019B010E94A02B6B017C0107
:102020009F01DF010E94822B9B01AC010E94AB2B20
:102030009B01AC01280D391D4A1D5B1DC701B6016E
:102040000E945A2BF22E822F90E039E23F1560F168
:1020500043E0249F9001112435952795122F109568
:1020600000E085E5E82EEF1880910B01081758F184
:102070000E941D0D9C8181E0992319F0903219F482
:102080008FEF8093040180910401890F8C83DF918D
:10209000CF911F910F91FF90EF90DF90CF90BF9065
:1020A000AF909F908F90089525E530E0B901681BAF
:1020B000790B9B01220F331F260F371F37FFCCCF21
:1020C0002F5F3F4FC9CF8E2D01FD8F2D209109012C
:1020D000622F600F7727771F9B01220F331F260F78
:1020E000371F28573B4F412F609185040E94A30C56
:1020F0000F5FBACF0F931F93CF93DF93EC0110E0E4
:1021000000E090910B019017110609F06CF40E9409
:102110001D0D8C8190E00196817099278C83DF9151
:10212000CF911F910F91089520910901A801420FAD
:10213000511D9A01220F331F240F351F28573B4F83
:102140004C816091850480918404969590171106C6
:1021500051F04CF0442349F0409186040E94A30CB6
:102160000F5F1F4FCECF4423B9F340E0F7CF8F92DC
:102170009F92AF92BF92CF92DF92EF92FF920F9316
:102180001F93CF93DF93FC01B280948081E084831E
:1021900000E015E05BE4A52E88248394EE24EA9405
:1021A000F12C7BE4C72ED12C80910B01081770F025
:1021B000DF91CF911F910F91FF90EF90DF90CF9023
:1021C000BF90AF909F908F900C941D0DC02FD0E0CA
:1021D0001C9FF0011D9FF00D1124E459FE4F91103A
:1021E0001CC01382128220910901CE01820F911D21
:1021F0009C01220F331F280F391F28573B4F1C9F6C
:10220000F0011D9FF00D1124E459FE4F42816181C0
:1022100080810E94A30C0F5FC7CF2381222379F115
:102220002150238334818A2D821B311101C0822FDA
:102230001C9FF0011D9FF00D1124E459FE4F909159
:102240008604899FC0011124B6010E94322B62834B
:10225000211104C0332311F01482A38222E02B1534
:1022600010F21C9FF0011D9FF00D1124E459FE4F48
:10227000809184048083809185048183B4CF0E94FF
:10228000FF2B823091400CF0AECF82E08B1530F501
:102290000E94FF2BB7010E94462B1C9FF0011D9F3F
:1022A000F00D1124E459FE4F808322E02B15C8F471
:1022B0000E94FF2B209185042695622F70E00E94DA
:1022C000462B280F1C9FF0011D9FF00D1124E4598F
:1022D000FE4F21831282A382848285CF8091840461
:1022E000DCCF20918504EECFE3E8F4E080818E7F9F
:1022F000808360817181828193810E94C20C1092DF
:102300008B032FEF80E792E0215080409040E1F76F
:1023100000C000000C941D0DE3E8F4E080818E7F86
:10232000808310928B032FEF80E792E02150804052
:102330009040E1F700C000000C941D0D60918304F3
:10234000669570E04BE050E08CE091E00E940F2C2D
:10235000892B19F481E080938B030E940B249093C6
:1023600084038093830308959091830490FF35C084
:102370009170811128C0926090938304662351F07C
:102380006091830470918404809185049091860407
:102390000E94C20C60918304669570E04BE050E0AF
:1023A0008CE091E00E940F2C892BA1F010928B03FE
:1023B00081E080938603409186046091850480913A
:1023C00084040C94BD0E8B3210F09465D5CF880F29
:1023D000982BD2CF0E949E11EBCF0895682F909139
:1023E0008304969581E0890F8B3208F081E00C948C
:1023F000B41181E00C94EE11682F909183049695AE
:102400008FEF890F09F48AE20C94B41181E00C94E7
:10241000FC1161E00C94B411E3E8F4E08081816088
:10242000808386950C9409128091830480FD0C941E
:1024300074110C940C1260E00C94B4118091890317
:1024400081112EC00E94FE21811104C00E94A4228D
:102450000E94D40C0E94BE0C609383047093840489
:1024600080938504909386046E7F61F40E94D40C5F
:102470000E94BE0C6093830470938404809385044F
:10248000909386040E94A80C10928B038091830481
:1024900080FF03C086950E941B1281E08093890310
:1024A0000895E3E8F4E080818160808386950C9450
:1024B0001B1210928B0308950F931F93CF93DF93FA
:1024C00080918B03882309F49DC080918A03E09159
:1024D0008304E695E81BE09385038230C9F5F0E0BC
:1024E000E354F34FE491CE2FD0E002E71DE080915A
:1024F0008603882389F0109286030E940B249E0194
:1025000020953095820F931F9093840380938303CB
:102510001092880310928703809183039091840323
:102520000E9417248C179D0708F46CC0E091830368
:10253000F0918403CE0FDF1FD0938403C0938303F5
:1025400083E893E0F801DF91CF911F910F910994F7
:10255000863049F4F0E0E654F34FE491CE2FD0E01A
:1025600006E81DE0C4CF893051F4E695F0E0E95467
:10257000F34FE491CE2FD0E000EC1EE0B8CF8F30C7
:1025800051F4E695F0E0EC54F34FE491CE2FD0E017
:102590000DEF1EE0ACCF853149F4F0E0EF54F34F7E
:1025A000E491CE2FD0E007E71FE0A1CFC8E2D0E052
:1025B0000AEE1FE0883109F49ACF833239F4EFEA4A
:1025C000FCE0C591D49106E91DE091CFC4EFD1E0C4
:1025D0000AE710E1843209F48ACFC0EDD7E004E9BC
:1025E0001CE0853209F083CF8E2F63E00E94182B08
:1025F000E92FF0E0E455F34FE491CE2FD0E007EB64
:1026000010E175CFDF91CF911F910F910895FA01DD
:10261000811101C0FB010994CF93DF93C82FD62FFE
:102620000E94E40C8C1740F00E94E40C8D1720F4FB
:10263000DF91CF910C94F9118C2FDF91CF910C94F5
:1026400009120F931F93CF938C01FB01C281CC23FE
:1026500009F465C00E9449218272F801E25CFC45E0
:10266000E431F10538F4EB57F34D0C947C2B0E94C8
:102670001412C0E08C2FCF911F910F91089546E066
:1026800052E169EF71E10E940713F3CF49EF51E185
:1026900066E072E1F8CF4EE75EE061E77EE0F3CFFF
:1026A00041E75EE06EE77EE0EECF4CE95EE06DE88C
:1026B0007EE0E9CF4DE85EE06CE97EE0E4CF4AEBF6
:1026C0005EE06BEA7EE0DFCF4BEA5EE06AEB7EE045
:1026D000DACF47E15DE060E07DE0D5CF40E05DE04E
:1026E00067E17DE0D0CF81E00E940912C2CF65E0B2
:1026F00082E00E940C13BDCF68E086E0FACF6EE066
:1027000089E0F7CF64E18FE0F4CF67E185E1F1CFB5
:1027100088E1EACF62E289E1ECCF83E2E5CFC1E074
:10272000A9CF0E94FE21811102C00E94A4220E9412
:102730002C228093C905803220F0877088618093B5
:10274000C9059091C905892F817090FF04C0892F18
:102750008695869586950C948F148091C905982F3F
:10276000969596959695933040F49F5F990F990FA3
:10277000990F8770892B8093C9058091C905816065
:102780008093C9050E9430228091C905869586955F
:1027900086950C948F148091C905982F987F79F0B5
:1027A00088508093C905887F91E009F490E080917A
:1027B000C90590FB80F98093C9050E943022809161
:1027C000C9058695869586950C948F148091C905C8
:1027D00080FD13C081608093C905813019F489E0C0
:1027E0008093C9058091C9050E9430228091C90556
:1027F0008695869586950C948F1408958091C905C9
:1028000080FF08C08E7F8093C9050E94302280E03F
:102810000C948F1408958091C90580FD0C94FE13CB
:102820000C94E6139091C905892F86958695869517
:102830008F5F8F7197708430D8F4880F880F880F5E
:10284000892B8093C9058091C905887F91E009F49F
:1028500090E08091C90590FB80F98093C9050E94A2
:1028600030228091C9058695869586950C948F14A3
:102870009093C905E8CF843008F083E09091C905B2
:102880009770282F220F220F220F922B9093C905A9
:10289000987F21E009F420E09091C90520FB90F990
:1028A0009093C9050C948F140E943B148091C90524
:1028B0000C9430229C01FB018281882349F12D3B3D
:1028C000FCE53F07C9F040F42B3BECE53E0769F01F
:1028D0002C3B3C4579F008952F3B9CE5390791F05E
:1028E00070F0203C3C4589F0089583E00E94541428
:1028F00080E0089580E0FACF0E94CB13F9CF0E94C8
:10290000AD13F6CF0E940B14F3CF0E941214F0CF38
:1029100081E00895269A2E9808952E980895CF92D2
:10292000DF92EF92FF92CF93C82F843040F5811150
:1029300027C0809180008F7D809380000E948D143D
:102940002C2F30E0AFEFBFEF0E948A2B23E030E066
:1029500040E050E00E945A2BC9012C3764E1360751
:10296000A8F469E070E00E94322B70938B006093B2
:102970008A00CF91FF90EF90DF90CF900895C3E051
:1029800080918000806280938000DACF2A50374D9A
:102990004F4F5F4F942F832F722F662725EF38E21A
:1029A00041E050E00E945A2B69017A01CA01B90145
:1029B0000E94082B9B01AC01C701B6010E94082BA5
:1029C000672F782F892F99276115710521E08207DC
:1029D000910559F66FEF7FEFC8CF08950E948A14D2
:1029E00082E28093800089E1809381008FEF9FEFE6
:1029F00090938700809386000C949113809A41B342
:102A00004E7F51B35160EFB7F8949B01220F331FF3
:102A1000260F371F280F391F2817390741F4EFBF3A
:102A20008FE594E00197F1F700C000000895DC0104
:102A30006D91CD0178E051BB000000C067FF41BB44
:102A4000660F000000C000C000C041BB00C07A9506
:102A500091F7E2CFAF92BF92CF92DF92EF92FF92C7
:102A60000F931F93CF93DF937C015B01C42FD22F71
:102A7000FC0182818823F9F040938E030E940B248D
:102A800090938D0380938C0380E28C0F883008F044
:102A900061C0C77081E001C0880FCA95EAF7DF9175
:102AA000CF911F910F91FF90EF90DF90CF90BF904B
:102AB000AF900C947F1910918E03141340C0809135
:102AC0008C0390918D030E9417246C01B701C501FE
:102AD0000E943E1EC816D90690F5C0E2CD0F1D1704
:102AE000B9F080E2810F883040F4177081E001C0B6
:102AF000880F1A95EAF70E948619C83048F481E0D9
:102B00009D2F977001C0880F9A95EAF70E947F1950
:102B1000802F0E946C19C830E8F4D77081E001C0A2
:102B2000880FDA95EAF7DF91CF911F910F91FF900F
:102B3000EF90DF90CF90BF90AF900C94861980E219
:102B40008C0F883038F4C77081E001C0880FCA95B7
:102B5000EAF7E9CFDF91CF911F910F91FF90EF90AE
:102B6000DF90CF90BF90AF9008950F939C01CB0161
:102B7000233F4CE5340759F1A8F4283DFCE53F0715
:102B800001F1293D4CE53407D1F1273D3C4591F455
:102B900006E221EE41EE67ED7CE50E942A1580E019
:102BA0000F910895253FFCE53F07E9F0B0F0263F7F
:102BB0003C45F9F0FC018281882339F110928E03A3
:102BC000EFCF07E225EE45EE68ED7CE5E6CF06E2C5
:102BD00021EE40EE63EF7CE5E0CF07E225EE44EE28
:102BE00064EF7CE5DACF06E221EE42EE65EF7CE5AC
:102BF000D4CF07E225EE46EE66EF7CE5CECF08E2C5
:102C000021E045EE69ED7CE5C8CF81E0C9CFCF93E7
:102C1000DF93EC01FB018281882309F419C1C230E2
:102C2000FCE5DF07C0F1C6319CE5D90730F09E0115
:102C30002A5F3C452930310570F50E94112290939E
:102C4000CF058093CE05C031ECE5DE0709F4CFC097
:102C500008F05BC0C8308CE5D80709F4B6C088F529
:102C6000C430ECE5DE0709F4A8C0C0F4C2308CE53E
:102C7000D80709F49CC08091CE058260C330DC4542
:102C800009F498C08091CE059091CF050E941F2233
:102C90000E94C81B80E0DF91CF9108958091CE05FE
:102CA0008061C630ECE5DE0709F484C08091CE0572
:102CB0008860C730DC4508F47DC08091CE05806215
:102CC00079C0CC308CE5D80709F489C070F48091C4
:102CD000CE058C60CA30ECE5DE0709F46BC008F461
:102CE00078C08091CE058E7F65C0CE308CE5D80748
:102CF00009F479C08091CE058B7FCF30DC4508F494
:102D000059C08091CE058F7E55C0CB3FECE5DE07E4
:102D100009F457C030F5C3318CE5D80709F46FC00A
:102D200078F4C131ECE5DE0709F465C0C231DC4559
:102D300009F0A8CF0E94C81B8091CE058F773AC0BA
:102D4000C5318CE5D80709F462C008F476C08091DB
:102D5000CF058160CA3FDC4509F094CF8093CF0551
:102D600091CFCF3FFCE5DF0709F44DC088F4809197
:102D7000CF058D7FCD3F9CE5D90781F38091CF05AD
:102D80008E7FCE3FDC4550F38091CF058360E6CF48
:102D9000C130FDE5DF0709F459C008F444C080E004
:102DA000C230DD4509F06ECF0E94A6226BCF809124
:102DB000CE0581608093CE0565CF8091CE0584607D
:102DC000F9CF8091CF058260C9CF8091CE05806414
:102DD000F1CF0E94C81B8091CE058068EBCF809117
:102DE000CE058D7FE7CF8091CE05877FE3CF8091A1
:102DF000CE058F7DDFCF8091CE058F7BDBCF80919D
:102E0000CE05837FD7CF8091CF058C7FA7CF8091D0
:102E1000CE0582FB992790F921E0922790FB82F959
:102E200090FB83F9C7CF8091CF05982F9095917033
:102E30008E7F892B90FB81F991CF0E94C81B9091C6
:102E4000CE05892F97FB87F98058B4CF81E0ACCFAE
:102E500081E021CFCF93DF93EB0186319C4511F5C3
:102E60000E9449219A81992399F08A7A91E009F484
:102E700090E090938F03811109C089E20E94242180
:102E80000E94952180E0DF91CF91089585E3F6CFF0
:102E900080918F03811104C089E20E942B21F0CF21
:102EA00085E3FBCF81E0EFCF90939503809394036C
:102EB0000895E0919403F0919503309721F00190EB
:102EC000F081E02D099480E00895E0919403F09161
:102ED0009503309799F020912301222359F02091F6
:102EE000CE0527FF07C0DC012C9111962C9311977A
:102EF00025E02C930280F381E02D09940895209120
:102F00009203309193032817390771F0909393033C
:102F100080939203E0919403F0919503309721F010
:102F20000680F781E02D0994089520919003309157
:102F300091032817390771F09093910380939003C0
:102F4000E0919403F0919503309721F00084F1858E
:102F5000E02D0994089585B7806885BF85B780689E
:102F600085BF0895089508950C94B21708950C94A0
:102F7000B6170E94AB170E94B3170C94B41781E0E8
:102F800008950C94BF170E9402240E94F30A0E9425
:102F900084240E9491130E941E120C94B7179F92D2
:102FA000AF92BF92CF92DF92EF92FF920F931F9357
:102FB000CF93DF93CDB7DEB72A970FB6F894DEBF75
:102FC0000FBECDBF0E943B0B0E94C117882309F49E
:102FD00072C057E9A52E53E0B52E10E000E0902E08
:102FE000802F0E94E50A6C01F501E190F1905F01EC
:102FF000E816F90609F459C08091450481FD0E9444
:10300000EE0A97012C253D2580E0EE24E394F12C77
:10301000A9014E215F21452B09F441C08E839F8277
:10302000CE20DF2081E0CD2809F480E088870E944F
:103030000B248160782F9A8789874E815F8168850C
:103040008A850E947E18000F111FF801E956FC4F77
:1030500080819181E826F926F182E0820E945C124B
:103060000E94ED140E945917909196038917A1F1BF
:103070000E945917809396032A960FB6F894DEBFE4
:103080000FBECDBFDF91CF911F910F91FF90EF90B9
:10309000DF90CF90BF90AF909F900C94EE088F5F21
:1030A000EE0CFF1C803109F0B3CF0F5F1F4F0630CD
:1030B000110509F094CF8FEF89838A831B820E94C8
:1030C0000B248160782F9D838C8349815A816B8189
:1030D0008D810E947E18C2CF2A960FB6F894DEBF6B
:1030E0000FBECDBFDF91CF911F910F91FF90EF9059
:1030F000DF90CF90BF90AF909F900895CF93DF93D4
:10310000CDB7DEB72B970FB6F894DEBF0FBECDBF9D
:103110004F83588769877A878B871E821D8285E057
:10312000FE013796DE01119601900D928A95E1F726
:1031300049815A816B817C818D819E812B960FB64E
:10314000F894DEBF0FBECDBFDF91CF910C94411E2E
:10315000FC01808191810C94F620CF93C82F8823A5
:1031600009F469C08238C1F40E94591781FD63C017
:1031700089E30E9424210E9495212FEF81EE94E0A3
:10318000215080409040E1F700C0000089E30E9498
:103190002B21CF910C9495218338A1F40E945917CB
:1031A00080FD49C083E50E9424210E9495212FEFD4
:1031B00081EE94E0215080409040E1F700C0000093
:1031C00083E5E5CF8438A1F40E94591782FD33C00E
:1031D00087E40E9424210E9495212FEF81EE94E044
:1031E000215080409040E1F700C0000087E4CFCF3D
:1031F0008CEF8C0F813A90F46C2F80911701909195
:1032000018010E94BF22882329F08C2F0E942B21B5
:103210000E9495218C2F0E942421BBCF80E28C0F2D
:10322000883048F4C77081E001C0880FCA95EAF77A
:103230000E944C21AECFCF910895882309F44BC052
:10324000823871F40E94591781FF45C089E30E94BA
:1032500024210E94952189E30E942B210C94952121
:10326000833859F40E94591780FF35C083E50E94C6
:1032700024210E94952183E5EFCF843859F40E94E0
:10328000591782FF28C087E40E9424210E949521BB
:1032900087E4E2CF9CEF980F913AF0F290E2980F1A
:1032A000983050F4877091E001C0990F8A95EAF741
:1032B000892F0E945221D2CF9BE5980F933020F4A2
:1032C00090E080E00C947F17885A873120F490E0DA
:1032D00080E00C9495170895CF93C82F0E94AD18E5
:1032E000C93349F42FEF87EE93E02150804090409E
:1032F000E1F700C000008C2FCF910C941D1988239A
:1033000021F00E944C210C9495210895882321F0EE
:103310000E9452210C9495210895BF92CF92DF9282
:10332000EF92FF920F931F93CF93DF936C01D62FF1
:10333000C72FFC01158112951F70028101110E9497
:1033400069210E944221E82E882391F00023D1F0C8
:103350008C2F807F803421F080E28D0F883090F0B8
:1033600082E00E94E0210E94422191E0E82EE926BD
:10337000BC2EB2949FE0B922EB2DF0E0E756F34D5E
:103380000C947C2BE12CF4CF1C2F1F70C07F11F00C
:103390001295107F0023A9F0112359F080E28D0FC0
:1033A000883010F0D11109C0812F0E944C210E9459
:1033B00095218D2F0E94AD1814C0812F0E945C2191
:1033C000F6CF8D2F0E941D19112359F080E28D0F29
:1033D000883010F0D1112CC0812F0E9452210E9400
:1033E00095212B2D2850330B2430310520F40E94D9
:1033F00059170E94EE08EE2009F477C10E943E2181
:1034000080FD73C1F60112820E9438210E94C51FFF
:10341000C6010E94961B0E943821DF91CF911F9117
:103420000F91FF90EF90DF90CF90BF900C94E61F2C
:10343000812F0E946221D3CFFC2FFF70FF2EC07F0F
:10344000C03219F0F29480EFF822DD2369F0D13018
:1034500049F1002391F1112351F1F601858180FF9B
:10346000A8CF8F70858323C0002381F0111106C07F
:103470000E947C218F290E947F19B3CF1130C1F7A0
:103480000E947C218F290E948221ABCF111106C09E
:103490000E948B218F2D0E948619A3CF113009F431
:1034A000A0CFF6CF002329F0163008F09ACF8F2D49
:1034B000E2CF153008F095CFEDCF112359F3D93372
:1034C00049F4FFEF27EE33E0F15020403040E1F7C0
:1034D00000C000008D2F0E941D1983CF8C2F837098
:1034E00009F041C001117DCF4D2F4295469547709F
:1034F000440F440F0D2F0F7010E030E020E0042E39
:1035000004C0000F111F221F331F0A94D2F760E07E
:1035100070E0CB01D4FF0FC06FE070E080E090E07E
:1035200004C0660F771F881F991F4A95D2F76095D0
:10353000709580959095C695C695C370602B712B3C
:10354000822B932BC23049F058F4C13019F00E94FD
:10355000771F47CF0E94651F44CF0E94891F41CF2C
:103560000E94631F3ECF8695002311F08C2F81703F
:10357000882309F436CF4D2F429546954770440F66
:10358000440F0D2F0F7010E030E020E0042E04C037
:10359000000F111F221F331F0A94D2F760E070E062
:1035A000CB01D4FF0FC06FE070E080E090E004C07A
:1035B000660F771F881F991F4A95D2F760957095FF
:1035C00080959095C695C695C370602B712B822B04
:1035D000932BC23049F058F4C13019F00E943C20BE
:1035E00000CF0E942A20FDCE0E944E20FACE0E94DB
:1035F0009F1FF7CECF70002329F08C2F0E94C51F8C
:103600008D2F39CF8D2F0E9486198C2F0E94E61F97
:10361000E8CED23F89F160F4D03FC9F0D13F29F123
:10362000002309F442C01111C4CE8C2F8F7121C028
:10363000D33F39F1D43FA1F7002369F1CF718C2F2B
:103640000E94C51F63E08C2F0E94CB21CACE0023AD
:1036500041F0153008F0C5CE8C2F8F710E940920E3
:10366000C0CE163008F0BDCEF7CF8C2F8F7100235F
:1036700069F20E94C51FB5CE8C2F8F710023C9F34C
:10368000C5CF002329F08C2F8F710E94B01FA9CEC7
:103690000E94AB1FA6CE81E00E94E021123008F408
:1036A000A0CE82E00E94E0219CCE112359F0D933B4
:1036B00009F010CF8FEF97EEE3E081509040E040AB
:1036C000E1F706CF8C2F8F71A1CF4C2F4F706D2F4C
:1036D000C6010E9426080E94DB1E83CE4C2F4F702D
:1036E0006D2FC6010E94F6087CCEDF91CF911F910D
:1036F0000F91FF90EF90DF90CF90BF9008950F93C0
:103700001F93CF93DF93EC01688179818A810E94B6
:1037100000218C010E9460200E94621FB801CE012E
:10372000DF91CF911F910F910C948D19CF93DF935F
:10373000EC018B819C81892B29F0888199818923D7
:103740008F3F59F4DF91CF910895CE010E947F1BE6
:10375000CE01DF91CF910C947708CE010E94A00892
:103760008111F3CF0E944221882361F38A8188234B
:1037700049F382E0DF91CF910C94E0210E9469210E
:103780000E9479210C9495210E9432210C94BE1B39
:103790000E9459210C94C41BE92FE295EF70E2506E
:1037A000EE3070F4F0E0E755F34D0C947C2B803F45
:1037B00019F020F4883E20F481E00895843FE1F37D
:1037C00080E00895883EC0F3813FD1F7F5CF93FBA9
:1037D000882780F908950E94F6200C94CC1BCF9383
:1037E000DF9300D000D00F92CDB7DEB70F900F90CF
:1037F0000F900F900F90DF91CF910895CF93DF93AB
:1038000000D000D000D0CDB7DEB726960FB6F89422
:10381000DEBF0FBECDBFDF91CF9108951F93CF9331
:10382000DF93C091A40316E08091A5038C1304C01C
:10383000DF91CF911F910895D0E01C9FF0011D9F53
:10384000F00D1124EA55FC4F408151816281738152
:10385000848195810E94FE1B2196C770E5CF40911F
:10386000D6035091D7036091D8037091D90380910A
:10387000DA039091DB030C94FE1B1F93CF93DF932D
:103880008091DB03807FA9F48091D803882389F09D
:103890008091A403C091A5036091D6037091D703D2
:1038A000A091D903B091DA03D62FD72316E0C8131D
:1038B00004C0DF91CF911F91089590E0109711F00F
:1038C000DF3F19F401968770F2CF189F9001199F7E
:1038D000300D1124F901EA55FC4F41814713F2CF15
:1038E00040814613EFCF42814111ECCF4381548197
:1038F0004A1B5B0B483C510528F78091DB038F7016
:1039000080618093DB03F901E555FC4F80818F7066
:103910008061808386ED93E00E94961BDF91CF91BA
:103920001F910C940E1CAF92BF92CF92DF92EF9238
:10393000FF920F931F93CF93DF93CDB7DEB76197BD
:103940000FB6F894DEBF0FBECDBF8C0185E0F80145
:10395000DE011D9601900D928A95E1F7F8014081F4
:103960005181E28086EDC82E83E0D82E6091D90384
:103970007091DA036115710509F461C19091D60364
:103980002091D703892F82238F3F09F458C1A38048
:10399000B480F090D803F501E61BF70BFF2009F483
:1039A000FCC08091DB03382F307FE83CF10508F044
:1039B000B2C0311179C0FE2C251323C0941321C04D
:1039C000E1101FC08F7080618093DB030E942F1C69
:1039D000C6010E94961B8091DB03F80185838F2D21
:1039E00061960FB6F894DEBF0FBECDBFDF91CF91C9
:1039F0001F910F91FF90EF90DF90CF90BF90AF900D
:103A00000895AB2829F0842F85238F3F09F033C117
:103A100080E0F82FF170DF2E80FF3CC08091A4037E
:103A20002091A50336E0821315C04D875E878D85F2
:103A30009E850E94F620292F22952F702230F0F0CB
:103A4000243018F59F70F1F0F8019581907FD1F442
:103A5000D12C1EC090E0389FF001399FF00D112449
:103A6000EA55FC4F6181651306C06081641303C091
:103A700062816E110FC001968770D5CF9F7011F0D3
:103A8000882331F3805E883018F3C8010E94961BAA
:103A9000FD2CA5CFEE2009F4A2CF8091DB0381603D
:103AA0008093DB03F12C9BCF251306C0941304C035
:103AB000F801EE2009F48DC04D875E878D859E85C7
:103AC0000E94EB1B882319F1EE2009F18091DB03A2
:103AD000803270F02091D6033091D70338872F833E
:103AE0001986BB86AA868C87CE0107960E94961BF4
:103AF00086E0F801A6EDB3E001900D928A95E1F71A
:103B00000E943D1C0E942F1CFF24F39468CFC80123
:103B10000E94961BF9CF311113C07A2DB98AA88A59
:103B20006E2D89890E94EF1B86ED93E00E94961B03
:103B300086E0F60111928A95E9F70E942F1CB2CF18
:103B400025130FC094130DC0E1100BC0F80185833D
:103B5000C8010E94961B86E0F60111928A95E9F74A
:103B60003ECF4D875E878D859E850E94EB1B882307
:103B700071F2EE2061F28091DB03803208F4B8CF5D
:103B80002091D6033091D7033A8329831B82BD82CB
:103B9000AC828E83CE010196A9CFE83CF10508F0F6
:103BA00041C0FE2CEE2009F4B2CF25132AC0941395
:103BB00028C08091DB0380FD1BC0982F907FC1F04F
:103BC000F8018583903F31F0982F907F905F8F7040
:103BD000892B8583C8010E94961B86E0F801A6ED1B
:103BE000B3E001900D928A95E1F70E942F1CF7CE69
:103BF00086E0F801A6EDB3E001900D928A95E1F719
:103C0000EECE4D875E878D859E850E94EB1B8111D0
:103C10006FCF8091DB0381608093DB03C8010E943A
:103C2000961BDDCE7A2DB98AA88A6E2D89890E94CD
:103C3000EF1B86E0F60111928A95E9F7D6CFEE20C8
:103C400009F465CF4D875E878D859E850E94EB1BAD
:103C5000F82E882309F45BCF86E0F801A6EDB3E0E7
:103C600001900D928A95E1F786ED93E00E94A818E5
:103C70000E943D1CBACF81E08E25CBCE88EC90E02F
:103C800008951F93CF93DF93CDB7DEB72C970FB670
:103C9000F894DEBF0FBECDBF4F83588769877A8700
:103CA0008B879C87CE0107960E94931C882369F01E
:103CB0008A859B85892B39F04F815885842F8523F0
:103CC0008F3F09F071C016E05FC086E0FE013796B5
:103CD000DE01119601900D928A95E1F78A859B8508
:103CE000892B89F38F81988589238F3F61F32091F8
:103CF000A50330E0C9010196877099274091A4037C
:103D00004817190671F40E94C81B1092A50310925F
:103D1000A40386E0E6EDF3E0DF011D928A95E9F762
:103D2000D2CF96E0929FD001939FB00D1124AA5557
:103D3000BC4FFE01319601900D929A95E1F7809368
:103D4000A5030E940E1CBFCF819FC00111248A557C
:103D50009C4F0E94931C8823E9F0E091A4031E9FCE
:103D6000F0011124EA55FC4F408151816281738139
:103D7000848195810E94FE1B8091A40390E00196AE
:103D8000877099278093A4038091A4039091A50341
:103D90008913DACF2C960FB6F894DEBF0FBECDBFD5
:103DA000DF91CF911F91089569857A858B859C85D8
:103DB0000E94FE1B88CFEF92FF920F931F93CF9329
:103DC000DF938C01892B81F0F12CEE24E394E80140
:103DD0002196F8018491843770F4843008F05FC034
:103DE0008130B1F08230A1F1DF91CF911F910F911D
:103DF000FF90EF900895853709F44CC008F43DC05A
:103E00009CE7980F903780F78F770E941D1949C063
:103E10000E5F1F4FFE01849190E2980F983060F47E
:103E20008770FE2D01C0FF0F8A95EAF78F2F0E9441
:103E30006C210E94952102C00E94AD188F2D8150E7
:103E400030F2EFE9FFE03197F1F700C00000F7CF63
:103E50000E5F1F4FFE01849190E2980F983050F44E
:103E60008770FE2D01C0FF0F8A95EAF78F2F0E9401
:103E70007221DFCF0E941D19E1CF0E5F1F4FFE019F
:103E8000C491C150D8F28FE99FE00197F1F700C0CB
:103E90000000F7CF0E5F1F4FFE01F490CFCF0E94BE
:103EA000AD188E01CBCF08950C94531F0E94541F60
:103EB00060931C0470931D0480931E0490931F0450
:103EC0000C94BE1B08950C94561F0F931F930091E2
:103ED0001C0410911D0420911E0430911F04602BBE
:103EE000712B822B932B1F910F910C94561F0F93C4
:103EF0001F9300911C0410911D0420911E04309109
:103F00001F0460237123822393231F910F910C942C
:103F1000561F0F931F9300911C0410911D042091B4
:103F20001E0430911F0460277127822793271F9159
:103F30000F910C94561F0C94531F0C949B1F0E94BE
:103F40009D1F609318047093190480931A04909332
:103F50001B040C94BE1B60E070E0CB010C949F1F0F
:103F60000F931F9341E050E060E070E08A019B01F5
:103F700004C0000F111F221F331F8A95D2F7C901F9
:103F8000B8011F910F910C949F1F0F931F9341E055
:103F900050E060E070E004C0440F551F661F771FBB
:103FA0008A95D2F78091180490911904A0911A046F
:103FB000B0911B048A019B01082B192B2A2B3B2B48
:103FC000C901B8011F910F910C949F1F0F931F936C
:103FD00041E050E060E070E004C0440F551F661FF0
:103FE000771F8A95D2F7CB01BA01609570958095BD
:103FF0009095009118041091190420911A043091A1
:104000001B0460237123822393231F910F910C942F
:104010009F1F0F931F9341E050E060E070E004C0E9
:10402000440F551F661F771F8A95D2F78091180499
:1040300090911904A0911A04B0911B048A019B016C
:10404000082719272A273B27C901B8011F910F917B
:104050000C949F1F0F931F93009118041091190443
:1040600020911A0430911B04602B712B822B932B0F
:104070001F910F910C949F1F0F931F930091180491
:104080001091190420911A0430911B0460237123AC
:10409000822393231F910F910C949F1F0F931F93C3
:1040A000009118041091190420911A0430911B04F6
:1040B00060277127822793271F910F910C949F1FD0
:1040C00008959295907F890F982F977041E001C0D5
:1040D000440F9A95EAF786958695869595E0899F8F
:1040E000F0011124E452FC4F30E020E070E05191E7
:1040F000DF011197CB01022E02C0969587950A9495
:10410000E2F7817081958527842385278C932F5F23
:104110003F4F2530310559F708959295907F890FCB
:10412000982F977086958695869525E0829FF00159
:104130001124E452FC4F50E040E080E0219130E057
:10414000092E02C0369527950A94E2F7217033278D
:10415000042E01C0220F0A94EAF7822B4F5F5F4FB3
:104160004530510559F70895BF92CF92DF92EF92F3
:10417000FF920F931F93CF93DF938C01C09018048D
:10418000D0901904E0901A04F0901B0480911C0454
:1041900090911D04A0911E04B0911F04C82AD92A31
:1041A000EA2AFB2ACFE1D0E0BC2ED701C6010C2EB3
:1041B00004C0B695A795979587950A94D2F780FD88
:1041C0000EC0219788F7B12C8B2DDF91CF911F91D5
:1041D0000F91FF90EF90DF90CF90BF900895B801BE
:1041E0008C2F0E941409019761F3EECFCF93DF93D8
:1041F000EC010E94B420BE01DF91CF910C94140910
:104200001F93CF93DF93EB019091A303992331F098
:10421000CB01DF91CF911F910C94F620882379F088
:10422000CB010E94B420182F682FCE010E9461207C
:10423000BE01812FDF91CF911F910C941409CB0106
:104240000E948D20182FF4CF682F80911701909134
:1042500018010C943F23682F809117019091180149
:104260000C944A2380911701909118010C945523C6
:1042700080912004859585958595089580912004E9
:104280008770089590912004977081E009F480E090
:10429000089580914404089590914404892B80935B
:1042A0004404089580959091440498239093440485
:1042B000089510924404089590914304892B8093AB
:1042C0004304089580959091430498239093430468
:1042D000089510924304089590914204892B80938D
:1042E000420408958095909142049823909342044B
:1042F000089510924204089580912104089508952C
:104300000C947F2190912104981721F0809321042F
:104310000C948021089580912104882329F0109223
:10432000210480E00C9480210895E0911701F09120
:104330001801809144048083E0911701F0911801E5
:10434000808190914304892B8083E0911701F09143
:104350001801808190914204892B808390912104DF
:10436000992381F0E0911701F09118018081892B48
:10437000808380911701909118010E94AB228111D6
:104380000E948B2180911701909118010C94651760
:1043900008950C94C82198E0899F90011124622B04
:1043A000609320040E94C51F809120048595859507
:1043B00085950C94C9211092200480E00C94C921A9
:1043C000909120048095892380932004282F2770C2
:1043D00071F4282F082E000C330B9217130639F0B6
:1043E0008595859585950E94E61F0C94DB2108959F
:1043F0006FEF7FEF90E080E00C944E2C90E080E037
:104400000E942A2C21E08C3E9E4F09F020E0822F52
:10441000089582E090E00C941C2C83E090E00C94D2
:104420001C2CCF9384E090E00E941C2CC82F81E2CA
:1044300090E00E941C2C982F8C2FCF910895CF9341
:10444000C92F682F84E090E00E94302C6C2F81E20D
:1044500090E0CF910C94302C86E090E00C941C2CD2
:10446000682F86E090E00C94302CAB01BC018FE00B
:1044700090E00C94422CAB01BC0183E190E00C94E1
:10448000422C60E070E0CB010C943B2260E070E0D5
:10449000CB010E9435220C9441226CEE7EEF90E01D
:1044A00080E00E944E2C60E082E090E00E94302C80
:1044B00060E083E090E00E94302C10921C04109287
:1044C0001D0410921E0410921F0460E084E090E02E
:1044D0000E94302C60E081E290E00E94302C60E08D
:1044E00085E090E00E94302C60E086E090E00E9441
:1044F000302C6FEF87E090E00E94302C40E050E0DD
:10450000BA0188E090E00E94422C60E08DE090E0EB
:104510000E94302C40E050E0BA0188E190E00E9417
:10452000422C60E087E190E00E94302C40E050E0B7
:10453000BA018CE190E00E94422C60E080E290E0C1
:104540000E94302C0C9446220C944D22682F8EE051
:1045500090E00C94302CFC0132968091230188234A
:1045600021F08091CE059EE187FF96E080E091509A
:1045700008F4089521912223D1F38F5FF8CF6623A9
:1045800001F1209123012223F1F02091CE0527FF94
:104590001AC0462F4695469546954E3190F4677061
:1045A00021E030E002C0220F331F6A95E2F7840F4A
:1045B000911DFC01828190E02823392381E0232B87
:1045C00069F480E00895FC0132960896219126173F
:1045D00021F0E817F907D1F7F4CF81E008959C01A5
:1045E000FC0132969FEF80E04191461751F09F3FCA
:1045F00019F4411101C0982F8F5F8630A9F79F3FB2
:1046000009F40895290F311D97FD3A95F901628348
:104610000895FC01329608962191261303C0DF010C
:1046200011971C92E817F907B9F70895E62FE69558
:10463000E695E695EE3168F4E80FF92FF11D677005
:1046400021E030E001C0220F6A95EAF78281822BD7
:1046500082830895E62FE695E695E695EE3170F4AF
:10466000E80FF92FF11D677021E030E001C0220F43
:104670006A95EAF720958281282322830895209164
:104680002301222329F02091CE0527FD0C94162327
:104690000C94EF2220912301222329F02091CE05B2
:1046A00027FD0C942A230C940923FC013296809157
:1046B0002301882351F08091CE0587FF06C08EE14B
:1046C000DF011D928A95E9F7089586E0F9CF0895F4
:1046D00008950C9468230E9469238091D405843046
:1046E00009F43CC01092460488E190E020E40FB643
:1046F000F894A895809360000FBE2093600080E03E
:104700000E948F1480E00E94EE080E94591280914E
:10471000470481110AC081E080934704809183049B
:104720008170809348040E948C110E94692383B792
:10473000817F846083BF83B7816083BF78948895CD
:1047400083B78E7F83BF0FB6F894A89580916000E1
:10475000886180936000109260000FBE08950895F4
:10476000CF930E9467230E943B0B0E94AF23C0E0BF
:104770008C2F0E94E50A892B31F4CF5FC630C1F738
:1047800080E0CF91089581E0FCCF08950C94C5237B
:104790000E94C81B0E9491130E9459170E94EE08A4
:1047A000109247048091480481110E9451120E9486
:1047B0009E110C94C6231F921FB61F9211248F9333
:1047C0009F93AF93BF9380914604811113C0809152
:1047D000CA059091CB05A091CC05B091CD0541962D
:1047E000A11DB11D8093CA059093CB05A093CC0564
:1047F000B093CD05BF91AF919F918F911F901FBE38
:104800001F90189582E084BD93E095BD9AEF97BD07
:1048100080936E0008952FB7F8948091CA05909107
:10482000CB05A091CC05B091CD052FBF08959C017B
:104830004FB7F8948091CA059091CB05A091CC0513
:10484000B091CD054FBF821B930B089578941F92B2
:104850001FB61F9211248F939F93AF93BF938091A4
:10486000CA059091CB05A091CC05B091CD050196DC
:10487000A11DB11D8093CA059093CB05A093CC05D3
:10488000B093CD05BF91AF919F918F911F901FBEA7
:104890001F90189581E08093E00080E28093D8001B
:1048A0001092C9008FE19EE40197F1F700C000006B
:1048B00087E090EBDC018093DD059093DE05A0930B
:1048C000DF05B093E00588E19CE00FB6F894A89569
:1048D000809360000FBE90936000FFCF0C94F8218E
:1048E0000E943B0B8FE39CE90197F1F700C00000A9
:1048F0000E943B0B80E00E94E50A80FF04C00E94FA
:104900006E240C944A2408950E94FE21811102C055
:104910000E94A4220E940922809345040E94112231
:104920009093CF058093CE050E940D22682F70E0F2
:1049300090E080E00E94631F609118047091190458
:1049400080911A0490911B040C949D1F809169041E
:10495000089508950895CF93DF93EC01809123018A
:104960008823B1F18091CE0587FF32C060E282E0FA
:104970008093E9008FEF9091E800815095FD06C08B
:1049800095ED9A95F1F700008111F5CF8091E8003F
:1049900085FF1BC08091230170E050E040E0811151
:1049A00004C050E040E068E070E0CE010E9477264D
:1049B0008091E8008E778093E80080E2FE01A9E410
:1049C000B4E001900D928A95E1F7DF91CF910895BF
:1049D00068E081E0CDCF08958091D305811109C0B1
:1049E0000E9407280E9464288091E20084608093DE
:1049F000E20008951092D3050895089508950C9447
:104A0000C82342E061EC81E00E94832742E261EC2E
:104A100082E00C9483278091D605833009F45FC02F
:104A200030F48130C1F1823009F49BC008958A309E
:104A300009F487C08B3009F46DC0893009F04EC08D
:104A40008091D505813209F049C08091D9059091B6
:104A5000DA05029708F042C08091E800877F8093D2
:104A6000E8008091E80082FF35C09091F3008091CA
:104A7000F200029729F48091F1008B7F813021F4BC
:104A80008091F100809369048091E8008B77809396
:104A9000E8000C94B7278091D505813AF9F480910C
:104AA000E800877F8093E8008091D9059091DA052E
:104AB000892B61F460E289E494E070E00E94C626EC
:104AC0008091E8008B778093E800089560E090E0A3
:104AD00080E0F3CF8091D4058111C3CF08958091F8
:104AE000D505813AD9F78091D9059091DA05892BBE
:104AF000A9F78091E800877F8093E8008091E80023
:104B000080FFFCCF809123018093F1008091E80029
:104B10008E77BDCF8091D505813201F78091D9057F
:104B20009091DA05892BD1F68091E800877F8093F8
:104B3000E8000E94B7278091D705809323010C9449
:104B4000C81B8091D505813249F68091E800877FA6
:104B50008093E8000E94B7278091D80580936A046B
:104B600008958091D505813A09F0B8CF8091E80089
:104B7000877F8093E8008091E80080FFFCCF8091E0
:104B80006A04C2CF84B7877F84BF0FB6F894A89514
:104B900080916000886180936000109260000FBE79
:104BA00080E890E00FB6F8948093610090936100E4
:104BB0000FBE0E94B9170E9407280E9464288091A6
:104BC000E20084608093E20078940E94ED2A0E94C3
:104BD000C31789E191E00E9454178091D405853074
:104BE00019F00E94CF17F9CF0E946B238091D20554
:104BF000882399F30E94B023882379F30E946126C9
:104C0000ECCF0C940326292F33272330310519F1DB
:104C100068F42130310509F44AC02230310509F425
:104C20004BC090E080E030E020E028C02132310528
:104C300079F122323105A9F780E490E02AE73FE0DC
:104C400061157105D9F08BE390E02FE33FE061300F
:104C50007105A1F0E6CF99278130910599F0009771
:104C600041F08230910589F00397D9F6E6ECFEE039
:104C700002C0EEEEFEE0849190E09F01FA013183E4
:104C800020830895EEEDFEE0F6CFECECFEE0F3CFEE
:104C900089E090E024E03FE06115710579F389E057
:104CA00090E02DE13FE06130710541F3BACF82E140
:104CB00090E02DE23FE0E2CF8BE390E022EF3EE098
:104CC000DDCF80E189BD82E189BD09B400FEFDCF61
:104CD0008091D8008F7D8093D8008091E000826021
:104CE0008093E0008091E00081FDFCCF0895AF92B9
:104CF000BF92CF92DF92FF920F931F93CF93DF93D8
:104D00006C01EB018A010E94D627F82E811123C085
:104D10000115110539F0F80180819181C81BD90B6B
:104D2000C80ED91EB12CA12C2097A9F08091E800C3
:104D300085FD22C08091E8008E778093E800011500
:104D40001105A1F0F80180819181A80EB91EB182F0
:104D5000A08285E0F82E8F2DDF91CF911F910F91CA
:104D6000FF90DF90CF90BF90AF9008950E94D6271C
:104D70008823D1F2F82EEFCFF60181916F01809355
:104D8000F1002197FFEFAF1ABF0ACECFFC0180914F
:104D9000DB059091DC0586179707A0F0611571057A
:104DA00029F49091E8009E779093E80090E06115D7
:104DB000710551F4911108C08091E80082FF34C060
:104DC00080E00895BC01F2CF8091D4058823C1F121
:104DD0008530C1F18091E80083FD30C08091E8000A
:104DE00082FDEACF8091E80080FFE1CF8091F3005F
:104DF0002091F200382F6115710519F02830310526
:104E000058F091E02830310509F090E02091E80059
:104E10002E772093E800CBCF81918093F1006150F1
:104E200071092F5F3F4FE7CF8091D405882341F070
:104E3000853041F08091E80083FFBECF81E0089586
:104E400082E0089583E00895FC018091DB05909154
:104E5000DC0586179707A0F06115710529F480918C
:104E6000E8008E778093E80090E06115710551F4B9
:104E7000911108C08091E80082FF35C080E008955C
:104E8000BC01F2CF8091D4058823C9F18530C9F1E6
:104E90008091E80083FD31C08091E80082FDEACF77
:104EA0008091E80080FFE1CF8091F3002091F20033
:104EB000382F6115710519F02830310558F091E04F
:104EC0002830310509F090E08091E8008E778093DA
:104ED000E800CBCF84918093F10031966150710945
:104EE0002F5F3F4FE6CF8091D405882341F0853076
:104EF00041F08091E80083FFBDCF81E0089582E01A
:104F0000089583E00895982F973028F08F7080934C
:104F1000E90081E008959093E900242F762F50E076
:104F2000981731F07091EC002091ED005091F00055
:104F300021FD02C09F5FE8CF3091EB003E7F3093B0
:104F4000EB003091ED003D7F3093ED003091EB00B0
:104F500031603093EB007093EC002093ED005093A0
:104F6000F0002091EE0027FDE5CF80E008958091CC
:104F7000D50587FF13C08091E80082FF06C08091AD
:104F8000E8008B778093E80004C08091D4058111FC
:104F9000F2CF08958091D4058823D9F38091E80059
:104FA00080FFF8CF8091E8008E77ECCF2091E4006D
:104FB0003091E50095E6A9012091EC00822F8170E7
:104FC00020FF06C08091E80080FF06C080E00895C1
:104FD0002091E80022FD1AC08091D405882389F031
:104FE000853089F08091EB0085FD0FC02091E400B1
:104FF0003091E50042175307F9F29150E1F684E051
:10500000089582E0089583E0089581E008950E9464
:1050100075280E947D28E0EEF0E080818160808329
:10502000E8EDF0E080818F77808319BCA7EDB0E0D8
:105030008C918E7F8C9380818F7E80831092D3059C
:1050400008950F931F93CF93DF930E9475280E94BA
:105050007D28C8EDD0E088818F778883888180683B
:10506000888388818F7D888319BC1092D405109223
:10507000D0051092D2051092D10500EE10E0F80193
:1050800080818B7F808388818160888342E060E0BB
:1050900080E00E948327E1EEF0E080818E7F8083B4
:1050A000E2EEF0E08081816080838081886080838F
:1050B000F80180818E7F8083888180618883DF9181
:1050C000CF911F910F910895E8EDF0E080818F7EE0
:1050D0008083E7EDF0E080818160808384E082BF9F
:1050E00081E08093D3050C942128E8EDF0E08081E5
:1050F0008E7F80831092E20008951092DA00109261
:10510000E10008951F920F920FB60F9211242F9372
:105110003F934F935F936F937F938F939F93AF933F
:10512000BF93EF93FF938091E10082FF0BC08091CA
:10513000E20082FF07C08091E1008B7F8093E10055
:105140000E94EC2A8091DA0080FF19C08091D8007B
:1051500080FF15C08091DA008E7F8093DA00809105
:10516000D90080FF96C080E189BD82E189BD09B484
:1051700000FEFDCF81E08093D4050E94EC24809155
:10518000E10080FF19C08091E20080FF15C080918E
:10519000E2008E7F8093E2008091E2008061809344
:1051A000E2008091D80080628093D80019BC85E02D
:1051B0008093D4050E94FE248091E10084FF2BC0DF
:1051C0008091E20084FF27C080E189BD82E189BD32
:1051D00089B5982F917080FFFBCF8091D8008F7D8B
:1051E0008093D8008091E1008F7E8093E1008091D0
:1051F000E2008F7E8093E2008091E20081608093E4
:10520000E2008091D005882309F449C084E08093AE
:10521000D4050E94FF248091E10083FF29C0809182
:10522000E20083FF25C08091E100877F8093E10049
:1052300082E08093D4051092D0058091E1008E7FAA
:105240008093E1008091E2008E7F8093E200809164
:10525000E20080618093E20042E060E080E00E9432
:1052600083278091F00088608093F0000E94FD24E5
:10527000FF91EF91BF91AF919F918F917F916F912E
:105280005F914F913F912F910F900FBE0F901F9004
:10529000189519BC1092D4050E94FA2470CF809101
:1052A000E30087FD93E09093D405B3CF1F920F9254
:1052B0000FB60F9211242F933F934F935F936F93E9
:1052C0007F938F939F93AF93BF93CF93DF93EF938E
:1052D000FF93D091E900DF708091EC00C82FC1707E
:1052E00080FDC0E81092E9008091F000877F8093F4
:1052F000F00078940E949A291092E9008091F000C1
:1053000088608093F000CD2BCF70C093E900FF91AF
:10531000EF91DF91CF91BF91AF919F918F917F914D
:105320006F915F914F913F912F910F900FBE0F9012
:105330001F9018951F93CF93DF93CDB7DEB7AA9731
:105340000FB6F894DEBF0FBECDBF85ED95E020917E
:10535000F100FC012193CF01F5E08D3D9F07B9F7E6
:105360000E940B258091E80083FF1EC18091D50526
:105370009091D6059A3008F017C1E92FF0E0E95472
:10538000F34D0C947C2B803899F0823809F00CC1D5
:105390008091D9058F70873008F006C18093E900AD
:1053A0008091EB0085FB882780F91092E90006C008
:1053B0008091D1059091D205911182609091E80081
:1053C000977F9093E8008093F1001092F100809114
:1053D000E8008E77E5C0882309F4D3C0823009F055
:1053E000E3C08091D7058111D6C08091D9058F7017
:1053F0002FEF280F263008F0D7C08093E9002091C6
:10540000EB0020FFC8C0933031F48091EB00806244
:105410008093EB00C0C09091EB0090619093EB0003
:1054200021E030E001C0220F8A95EAF72093EA00DC
:105430001092EA008091EB008860EACF8111B4C03D
:105440001091D7051F778091E3008078812B80939E
:10545000E3008091E800877F8093E8000E94B727EF
:105460008091E80080FFFCCF8091E300806880930A
:10547000E30082E0111183E08093D40595C0805849
:10548000823008F091C08091D7059091D8058C3D6D
:1054900023E09207A1F583E08A838AE289834FB7EC
:1054A000F894DE01139620E03EE051E2E32FF0E0B5
:1054B00050935700E49120FF03C0E295EF703F5FE7
:1054C000EF708E2F90E0EA30C0F0C7968D939D93D9
:1054D0002F5F243159F74FBF8091E800877F809379
:1054E000E8006AE270E0CE0101960E94C626809133
:1054F000E8008B778093E80057C0C096E7CF6091B3
:10550000D9057091DA05AE014F5F5F4F0E94012609
:10551000BC01892B09F448C09091E800977F9093D3
:10552000E80089819A810E942427E1CF8038E1F543
:105530008091E800877F8093E8008091D005809378
:10554000F10045CF811130C09091D705923060F5C0
:105550008091E800877F8093E8009093D0050E94B7
:10556000B7278091D005882311F084E005C0809191
:10557000E30087FDFACF81E08093D4050E940125E6
:1055800013C08091D705813079F481E0933009F020
:1055900080E08093D2051092E9008091E800877F37
:1055A0008093E8000E94B7278091E80083FF0AC03B
:1055B0008091E800877F8093E8008091EB00806213
:1055C0008093EB00AA960FB6F894DEBF0FBECDBF56
:1055D000DF91CF911F9108950895CF938091D405C5
:1055E0008823A1F0C091E900CF709091EC00892F41
:1055F000817090FD80E8C82B1092E9008091E8004E
:1056000083FD0E949A29CF70C093E900CF9108953D
:10561000DB018F939F930E94A02BBF91AF91A29F1C
:10562000800D911DA39F900DB29F900D11240895A0
:10563000991B79E004C0991F961708F0961B881FE4
:105640007A95C9F78095089587FB082E062687FD71
:10565000819567FD61950E94182B0EF4919507FCCA
:1056600081950895AA1BBB1B51E107C0AA1FBB1F50
:10567000A617B70710F0A61BB70B881F991F5A95DE
:10568000A9F780959095BC01CD01089597FB072E51
:1056900016F4009407D077FD09D00E94322B07FC46
:1056A00005D03EF4909581959F4F08957095619532
:1056B0007F4F0895A1E21A2EAA1BBB1BFD010DC04E
:1056C000AA1FBB1FEE1FFF1FA217B307E407F507B2
:1056D00020F0A21BB30BE40BF50B661F771F881F8E
:1056E000991F1A9469F760957095809590959B0124
:1056F000AC01BD01CF010895EE0FFF1F0590F4919D
:10570000E02D09940E948A2B332312F48A1B9B0BF1
:105710000C949B2BA29FB001B39FC001A39F700D5F
:10572000811D1124911DB29F700D811D1124911DA9
:1057300008950E948A2BB7FF0895821B930B08954A
:105740000E948A2BA59F900DB49F900DA49F800D61
:10575000911D11240895B7FF0C94A02B0E94A02B3B
:10576000821B930B08958F929F92AF92BF92CF921C
:10577000DF92EF92FF92CF93DF93EC016881798102
:105780008A819B81611571058105910521F464E28F
:1057900079ED8BE597E02DE133EF41E050E00E9499
:1057A000642C49015A019B01AC01A7EAB1E40E94B3
:1057B000A02B6B017C01ACEEB4EFA50194010E941B
:1057C000AE2BDC01CB018C0D9D1DAE1DBF1DB7FFA7
:1057D00003C00197A109B04888839983AA83BB833A
:1057E0009F77DF91CF91FF90EF90DF90CF90BF90A8
:1057F000AF909F908F9008950E94B32B089580E002
:1058000091E00E94B32B0895B0E0A0E080930001E6
:1058100090930101A0930201B09303010895FC014C
:105820004150504030F001900616D1F73197CF012A
:105830000895882799270895F999FECF92BD81BDD3
:10584000F89A992780B50895A6E1B0E044E050E0C9
:105850000C94562CA8E1B0E042E050E00C94562C99
:10586000262FF999FECF92BD81BDF89A019700B419
:10587000021639F01FBA20BD0FB6F894FA9AF99AB9
:105880000FBE08950396272F0E94312C0E94302CC2
:10589000252F0E94312C242F0C94312C0196272F78
:1058A0000E94312C0C94302CDC01CB01FC01F999C5
:1058B000FECF06C0F2BDE1BDF89A319600B40D925C
:1058C00041505040B8F70895052E97FB1EF4009400
:1058D0000E947B2C57FD07D00E945A2B07FC03D057
:1058E0004EF40C947B2C50954095309521953F4F6C
:1058F0004F4F5F4F089590958095709561957F4FBC
:105900008F4F9F4F0895F894FFCF37133F134613DF
:105910004B13501355135A135F13641369136E130B
:10592000731377137C137F138213851388138A13E1
:105930008D13C419C4191C1A1C1AF119F119F11983
:10594000F1196E1AFA1A091B091B651BF119F119D5
:105950006E1BD71BD71BE01BE01BE21BE01BE01BF1
:10596000E01BD71BD71BE71BE01BE01BE71BC32972
:10597000EB29D42AEB29D42A1E2A3F2AD42A962A94
:02598000A22A59
:1059820001000000010102006B006B6B01191A1B80
:105992001C1D1E1F2021222204A624AB24A924AAF6
:1059A20024EB240167F6F5F4F1C695929093949155
:1059B20096973435303132333766000102020202E3
:1059C2000606060909090909090F0F0F0F0F0F151E
:1059D200151518191919191919191919192324251D
:0659E20025252525250006
:00000001FF
