:100000000C948C060C94D3060C94D3060C94D30653
:100010000C94D3060C94D3060C94D3060C94D306FC
:100020000C94D3060C94D3060C944B270C941F28E5
:100030000C94A4220C94D3060C94D3060C94D306EF
:100040000C94D3060C94D3060C94D3060C94D306CC
:100050000C94D3060C94EF220C94D3060C94D30684
:100060000C94D3060C94D3060C94D3060C94D306AC
:100070000C94D3060C94D3060C94D3060C94D3069C
:100080000C94D3060C94D3060C94D3060C94D3068C
:100090000C94D3060C94D3060C94D3060C94D3067C
:1000A0000C94D3060C94D3060C94D30629001E009E
:1000B0001F0020002100220023002400250026002C
:1000C00027002D002E004C004B002B0014001A00BE
:1000D0000800150017001C0018000C001200130087
:1000E0002F0030002A004E003900040016000700DF
:1000F00009000A000B000D000E000F003300340051
:10010000280028004A00E1001D001B00060019001D
:100110000500110010003600370038003100E500FE
:1001200052004D00E000E300E200CF5CC25C2C0016
:100130002C002C00E600E7000151E40050005100C3
:100140004F0001003A003B003C003D003E003F00F4
:10015000400041004200430044004500010001000E
:100160000100010001000100010001000100010087
:100170000100010001000100010001000100010077
:100180000100C25CC35CCF5CD55CCD5CCE5CC95C5D
:10019000CA5C010001000100010001000100010032
:1001A000BD5CBF5CBE5C01000100010001000100FC
:1001B0000100010001000100010001000100010037
:1001C000BF5CC25C005C0100010001000100010095
:1001D0000100010001000100010001000100010017
:1001E0000100010001000100010001000100010007
:1001F00001000100010001000100010001000100F7
:1002000001000100010001000100010001000100E6
:100A000001000100010001000100010032190A008B
:100A1000047F3F1F643214643214783C1E1E140A93
:100A2000052223252628292A2C2D2F30323335362E
:100A3000383A3B3D3E4042434547494A4C4E50516F
:100A4000535557595A5C5E6062646668696B6D6F96
:100A500071737577797B7D7F81838587898A8C8E99
:100A600090929496989A9C9E9FA1A3A5A7A8AAACA1
:100A7000AEAFB1B3B4B6B8B9BBBCBEBFC1C2C3C5DB
:100A8000C6C7C9CACBCCCDCED0D1D2D2D3D4D5D67D
:100A9000D7D7D8D9D9DADADBDBDBDCDCDCDCDCDDB0
:100AA000DDDDDDDCDCDCDCDCDBDBDBDADAD9D9D894
:100AB000D7D7D6D5D4D3D2D2D1D0CECDCCCBCAC92C
:100AC000C7C6C5C3C2C1BFBEBCBBB9B8B6B4B3B15B
:100AD000AFAEACAAA8A7A5A3A19F9E9C9A989694F6
:100AE00092908E8C8A89878583817F7D7B797775CB
:100AF00073716F6D6B6968666462605E5C5A5957AA
:100B0000555351504E4C4A4947454342403E3D3B68
:100B10003A3836353332302F2D2C2A2928262523F2
:100B200022FFAA7F554000010101010101010101DD
:100B3000020202020202020202030303030303038E
:100B4000030404040404040405050505050606065B
:100B50000606070707070708080808090909090A18
:100B60000A0A0B0B0B0C0C0C0D0D0D0E0E0E0F0FBD
:100B70000F1010111111121213131414151516164B
:100B80001717181819191A1A1B1B1C1D1D1E1E1FBA
:100B90002020212222232424252626272829292A09
:100BA0002B2C2D2D2E2F3031323233343536373831
:100BB000393A3B3C3D3E3F4041424344454647482D
:100BC000494A4C4D4E4F50515354555658595A5B03
:100BD0005D5E5F616264656668696B6C6D6F7072A3
:100BE000737577787A7B7D7E8082838587888A8C0F
:100BF0008E8F91939596989A9C9EA0A2A3A5A7A943
:100C0000ABADAFB1B3B5B7BABCBEC0C2C4C6C9CB39
:100C1000CDCFD1D4D6D8DBDDDFE2E4E7E9EBEEF0EF
:100C2000F3F5F8FAFDFF0403300000000E0349005D
:100C30004400370035004800530000000E036400F4
:100C40007A00740065006300680000000403090472
:100C500009023B00020100A0FA090400000103019F
:100C6000010009211101000122400007058103084C
:100C7000000A09040100010300000009211101001C
:100C800001223B000705820320000A120110010027
:100C9000000008EDFE60600100010203010501098A
:100CA00006A1018505050719E029E715002501952D
:100CB00008750181020507190029EF150025019526
:100CC000F075018102050819012905950575019145
:100CD00002950175039101C005010906A1010507EF
:100CE00019E029E715002501950875018102950194
:100CF000750881010507190029FF150026FF0095D9
:100D000006750881000508190129059505750191E9
:100D100002950175039101C011241FBECFEFDAE0E7
:100D2000DEBFCDBF04B603FE27C080911B059091A6
:100D30001C05A0911D05B0911E058730904BA74062
:100D4000B04BD1F410921B0510921C0510921D059A
:100D500010921E0514BE84B7877F84BF0FB6F89427
:100D6000A895809160008861809360001092600077
:100D70000FBEE0E0F8E3099511E0A0E0B1E0E4E1A6
:100D8000F7E502C005900D92A436B107D9F725E02A
:100D9000A4E6B1E001C01D92AB31B207E1F70E94B9
:100DA0008B240C944C2B0C94000090E080E0089570
:100DB0000895089581E00895089581E008950C94C0
:100DC000DA0608950C94E1061F93CF93DF9300D0C9
:100DD00000D00F92CDB7DEB749835A836B83309131
:100DE000310389819A8131111DC06623B9F0222314
:100DF000A9F00E947D1F182F682F89819A810E9477
:100E0000291F69817A81812F0F900F900F900F9089
:100E10000F90DF91CF911F910C94A0070E94551F56
:100E2000182FEFCF0E947D1F69817A81EDCFFC01E1
:100E3000262F408151816281738184810C94E40664
:100E4000CF93DF93EC0160E00E941707BE01DF91B2
:100E5000CF910C94E2060E9439230E94C720811191
:100E600002C00E946D210E94B6130C9489090C9453
:100E70008B0908950E94901A0E9439072FEF84E38E
:100E80009CE0215080409040E1F700C000000C94AD
:100E900013230F931F93CF93DF93EC0161E00E9424
:100EA00017078C01BE010E94DF06882389F1BE016D
:100EB000C8010E942213882359F1BE01C8010E9473
:100EC0007D14882329F1BE01C8010E94CF14882314
:100ED000F9F0BE01C8010E94F2158823C9F0BE01D5
:100EE000C8010E94E911882399F08A81882339F08A
:100EF00001158CE5180751F00E3D1C4579F0CE0127
:100F0000DF91CF911F910F910C94DD060E943A075B
:100F100080E0DF91CF911F910F9108950E946D2184
:100F2000F7CF0C94DC0681E008950C949307CF93DF
:100F3000C82F0E9491078C2FCF910C94950708958C
:100F4000972F70E02FE0929F600D711D1124FB011F
:100F50009BE4899FE00DF11D1124EE0FFF1FE45566
:100F6000FF4F859194910895FC01EE0FFF1FE45F00
:100F7000F54F859194910895CF93DF930E94A00738
:100F80000E94AF08EC01811521E59207D0F581158B
:100F900030E5930708F096C081159042F8F4C1152A
:100FA00081E0D807B8F4C03ED10588F4C03CD10533
:100FB00008F07BC0C130D10569F0209759F0CE010F
:100FC0000497813A910530F0D0E0C0E003C0C83EFC
:100FD000D105D0F7CE01DF91CF910895C11590E4EE
:100FE000D90708F06CC0CE019F70C11520E3D2076D
:100FF00008F45EC0CE019927D3FF5EC0EC01D86C27
:10100000E9CF811535E5930700F5811544E594078F
:1010100008F08DC0C11583E5D80708F074C0C1156C
:1010200092E5D90708F46AC0CE018370992721E0C0
:1010300030E002C0220F331F8A95E2F7C695C695AD
:1010400080E2C89FE001112455C0811529E592076F
:10105000A0F4811538E5930708F06EC0811546E5C8
:10106000940708F0B1CF0E944609C82FD0E0DC2FCA
:10107000CC27CC27DF71D062ADCFC1158AE5D80768
:1010800008F45FC0CE0190568115904208F09CCFC5
:101090008D2F8F710E94460990E0982F882788270E
:1010A0009F719C012C2BE901E6CFCE01805C910958
:1010B0000E94B407EC018ECFEC01D06C8BCFDF70B7
:1010C000D06A88CFE4E096958795EA95E1F783703A
:1010D0002C2F26952695237040E2249F9001112401
:1010E000382B8C2F8370C1E0D0E002C0CC0FDD1F05
:1010F0008A95E2F7C22BD32BDC686CCFDC2FCC2790
:10110000C16FD06A67CFCE018370992721E030E0AC
:1011100002C0220F331F8A95E2F7C695C69590E26A
:10112000C99FE0011124C22BD32BDA6853CFD82FEB
:10113000CC27C46FD06A4ECFD82FCC27C06FD06ACF
:1011400049CF8C2F8F700E94460934E0D695C79501
:101150003A95E1F7CF709C2FEC01D0693BCF8238F4
:101160009105B1F1B0F48133910509F475C048F4EB
:101170008932910509F469C08A32910509F473C076
:1011800008958533910509F459C08933910501F11A
:101190000895833E9105A9F138F4803E9105F9F058
:1011A000823E910549F10895863E9105A9F1873E59
:1011B0009105C9F1843E910519F520910D0521FF96
:1011C0001FC080910C0584FD14C087EE90E0089547
:1011D00020910C052370A1F080EE90E008952091FD
:1011E0000C0520FD47C030910D0530FF09C024FFDC
:1011F00044C090E080E004C020910C0522FDF7CFB0
:10120000089520910C0522FD3BC030910D0530FD65
:10121000E3CF24FFF5CFEDCF20910C0523FFF0CFD6
:1012200024FDE7CFD2CF20910C0523FD2CC03091B7
:101230000D0531FFEECF84EE90E0089520910C056E
:1012400025FFDECF89E290E0089520910C0525FF6F
:10125000D7CF85E390E0089520910C0526FFD0CFED
:101260008AE290E0089520910C0526FFC9CF81E322
:1012700090E0089589E390E0089583EE90E008956A
:1012800082EE90E0089586EE90E0089590910C052E
:1012900092FF06C0282F28712830F9F4877F8460D8
:1012A00093FF06C0282F28712831F1F4877E8461CE
:1012B00020910D0520FF06C0382F38713830D9F441
:1012C000877F816021FF06C0282F28712831D1F443
:1012D000877E816194FD877E0895282F24712430B4
:1012E000F9F68B7F8860DCCF282F2471243101F739
:1012F0008B7E8861DDCF382F3171313019F78E7FC9
:101300008860E0CF282F2171213121F78E7E8861FE
:10131000E1CF0C94D8060C94D906E82FF0E0EE0F3C
:10132000FF1FE750FC4F808191810895089580EA66
:101330008A95F1F70895CF93DF93A3E3B1E048E3F3
:1013400051E0C1E0D0E08D91E82FE295EF70F0E040
:1013500061A18F709E0101C0220F8A95EAF7922F3A
:101360009095962391A382A1822B82A34A175B07B3
:1013700051F7A4E2B1E061E070E08D91E82FE295D1
:10138000EF70F0E041A18F709B0101C0220F8A95A0
:10139000EAF7922F9095942391A382A1822B82A3A6
:1013A00081E0A333B80749F71092F0031092EF03DE
:1013B0001092FA031092F9031092F2031092F103C3
:1013C0001092FC031092FB031092F4031092F303AB
:1013D0001092FE031092FD031092F6031092F50393
:1013E000109200041092FF031092F8031092F7037A
:1013F000109202041092010485E00E948A0ADF9193
:10140000CF910C942B078F929F92AF92BF92CF9265
:10141000DF92EF92FF920F931F93CF93DF9383E3BB
:10142000E82E81E0F82E0FEE13E0912CAA24A3946D
:10143000B12CF70181917F01C82FC295CF70D0E008
:1014400099A18F70650101C0CC0C8A95EAF7892FAC
:101450008C2989A38AA18C2C809488218AA30E943C
:101460009709E4E2F1E050E040E030E020E06191F3
:10147000A62FA295AF70B0E090968C9190E06F701F
:1014800002C0959587956A95E2F780FD3EC0C5013B
:10149000042E02C0880F991F0A94E2F7282B392BDB
:1014A0004F5F5F4F4F30510511F789A1882289A204
:1014B0008AA1C82ACAA2F801808191812817390718
:1014C00039F13183208381E0982A0E5F1F4FF8E3C2
:1014D000EF16F1E0FF0609F0ACCF292D45E069EFEA
:1014E00073E08FEE93E00E948B0A0E943707892DEC
:1014F000DF91CF911F910F91FF90EF90DF90CF90F0
:10150000BF90AF909F908F90089590E080E0C6CFFD
:1015100080E0DACF0895FF920F931F93CF93DF936C
:10152000F82E092F162FD72FC42F222349F081E040
:10153000809366010E94D422909365018093640198
:10154000809166018823A1F08091640190916501EA
:101550000E94E022069760F0EF2DF02FA12FBD2F03
:1015600090E080E0D0E08C179D0744F01092660177
:10157000DF91CF911F910F91FF90089521913191AB
:101580002D933D930196EFCFEF92FF920F931F9310
:10159000CF93DF93EB01E82FD11110C0442321F04A
:1015A000F0E0EA5DF44FE4916E2F7E2F8E2FDF91F5
:1015B000CF911F910F91FF90EF9008950D2F10E0A4
:1015C000282F30E0442329F02A5D344FF90124917B
:1015D00030E0F6E0CF9FC0011124EFEFF0E0BF0153
:1015E0000E94FB29AB018C2F90E0880F991FA5E585
:1015F000A49FB001A59F700D1124861B970B982FF7
:10160000990F980FBF01601B710B629FD001639F00
:10161000B00D729FB00D11248B2F9D9FB00111242E
:10162000672F7727EF01C61BD70BBE01629FE00132
:10163000639FD00D729FD00D11247F01E91AF1082C
:10164000E09EB001E19E700DF09E700D1124672F99
:101650007727E61BF70BE29F8001E39F100DF29FB7
:10166000100D1124E12F722F4230510599F048F4EA
:101670004115510569F04130510581F0EB2F8D2F57
:1016800007C04430510569F080F046305105B1F78C
:101690006E2F8DCFE22F7B2F812FFACFE22F7D2F60
:1016A000F7CFEB2F822F712FF3CF7B2F822FED2FD0
:1016B000EFCF41E00C94C40A0895CF93DF93762FC7
:1016C000E901682F842F0E94590B798368838A83EC
:1016D000DF91CF910895433308F042E30C945D0B02
:1016E00080910304982F9E7F61F4817082608093C3
:1016F000030480910604833318F082E38093060488
:1017000008958635B0F381708465F1CF88E090E06C
:101710000C94ED2ACF92DF92EF92FF926B017C0145
:101720000E94700BB701A60188E090E0FF90EF9057
:10173000DF90CF900C940B2BE3E0F4E081E1808309
:1017400011828FEF828382E38383148260817181AF
:10175000828193810C948A0B8091030480FF02C0E4
:101760008695089580E0089590910704933018F4C9
:101770009F5F90930704882351F060910304709158
:10178000040480910504909106040C948A0B08953A
:1017900081E00C94B40B90910704992319F09150B7
:1017A00090930704882351F060910304709104041E
:1017B00080910504909106040C948A0B089581E0B1
:1017C0000C94CB0B70E00C94C613609108018091CF
:1017D000030480FF0AC08091070123E0829FC001BB
:1017E0001124885F9B4F0C94E20B8091090190912A
:1017F0000A0123E0829FF0011124E85FFB4F891763
:1018000050F71182108212828F5F3396F8CF909139
:10181000030490FF14C09091090120910A0133E064
:10182000939FF0011124E85FFB4F921710F00C9486
:10183000E50B8183608342839F5F3396F6CF0895E3
:10184000CF93DF9300D00F92CDB7DEB79091030412
:1018500090FF0AC09E012F5F3F4F0E946B0B4B8190
:1018600069818A810E94070C0F900F900F90DF9181
:10187000CF910895CF93DF93EC01EC81F0E0EF5D21
:10188000F54F4491E3E0F4E0628181810E94200CF5
:101890008C818F5F8C83DF91CF910895CF93DF93FD
:1018A000EC01E3E0F4E0438162818C810E94200C32
:1018B0008C818F5F8C83DF91CF9108950F931F935D
:1018C000CF93DF9300D00F92CDB7DEB78C0180911C
:1018D000670181110AC09E012F5F3F4F42E36FEF06
:1018E0000E946B0B8A8180936701F80164816130EB
:1018F00069F08091670140E0662361F040E062306A
:1019000011F44091670180E060E004C060916701DC
:1019100040E080E00E94070CF801848190E001968D
:1019200063E070E00E940F2A84830F900F900F9065
:10193000DF91CF911F910F910895AF92BF92CF92F7
:10194000DF92EF92FF920F931F93CF93DF9300D01C
:101950000F92CDB7DEB7182FF62E042FE22E9091FE
:10196000030490FF29C0E92FE695AE2FB0E0A85CF4
:10197000BE4F8C9180931A039E7F923059F59E0141
:101980002F5F3F4F812F0E946B0B4B8169818A81B2
:101990000E94070C10930404F092050400930604BF
:1019A000EE2051F0609103047091040480910504CD
:1019B000909106040E948A0B0F900F900F90DF9178
:1019C000CF911F910F91FF90EF90DF90CF90BF903C
:1019D000AF900895823019F400910604DBCF863071
:1019E00019F410910404D6CF8930D9F3893191F6D6
:1019F000E9518E2F8170D82EE695F0E0EF5DF44F1F
:101A0000A590B490C12CBB2460910B01C61618F0B0
:101A10000E94E50BBFCF2C2D30E0A29EC001A39EFB
:101A2000900DB29E900D112470E00E94FB29812F31
:101A3000D11013C0860F40910901420F532F511D41
:101A40009A01220F331F240F351F285F3B4F402F71
:101A50006F2D0E946B0BC394D7CF861BECCFE3E0B6
:101A6000F4E09181282F4381628188E0890F0C94F2
:101A70009D0C81E00C942F0DE3E0F4E09181282F80
:101A80004381628188EF890F0C949D0C81E00C9456
:101A90003C0DE3E0F4E0628128E0620F08F46FEFB0
:101AA000282F438181810C949D0C81E00C94490D79
:101AB000E3E0F4E0628128E0621B08F460E0282F94
:101AC000438181810C949D0C81E00C94580DE3E0DE
:101AD000F4E0438128E0420F08F44FEF282F6281A1
:101AE00081810C949D0C81E00C94670DE3E0F4E09F
:101AF000438128E0421B08F440E0282F6281818165
:101B00000C949D0C81E00C94760D20E00C949D0CBF
:101B1000EF92FF921F93CF93DF93EC0110E0EE243E
:101B2000EA94F12C60910B01161770F00E94E50BFE
:101B30009A818C8190FF27C08F5F8C83DF91CF913A
:101B40001F91FF90EF90089520910901422F410FBE
:101B50005527551FCA019A01220F331F280F391F1D
:101B6000285F3B4F70E0C7010E940F2A962F8C819F
:101B70004091060460910504199F800D11240E9474
:101B80006B0B1F5FCFCF8150D8CFAF92BF92CF9258
:101B9000DF92EF92FF920F931F93CF93DF93FC019D
:101BA00082810FEF80FF01E010E045E5A42E8091D7
:101BB0000B011817C8F00E94E50B809169010130F4
:101BC00009F055C0811102C080910B0181508093B2
:101BD0006901DF91CF911F910F91FF90EF90DF90FE
:101BE000CF90BF90AF900895C0910901C12ED12C24
:101BF000CC0DDD2DD11DCE01880F991FC80FD91F27
:101C0000C85FDB4F198218821A8234E0E32EF12C70
:101C1000B12C809169018B0D86351CF16A2D0E94D3
:101C2000ED29892F082E000C990BC816D90691F4BE
:101C3000809106048E9DA0018F9D500D1124559515
:101C40004795559547959E01609105048091040440
:101C50000E946B0BB00EF1E0EF1AF108D1F61F5F96
:101C6000A6CF87FFDFCF90910B01890FDBCF90E0EC
:101C7000019660910B0170E00E940F2AA8CF0F938C
:101C80001F93CF93DF938091090190910A0123E084
:101C9000829FF0011124E85FFB4F891740F1C0E0FB
:101CA000D3E060910B01C61740F10E94E50B209133
:101CB000050180916801820F80936801909106016F
:101CC000920F90930601191654F4082E000C990BEC
:101CD00040910B014150550B841795071CF021953D
:101CE00020930501DF91CF911F910F9108951182EB
:101CF000108212828F5F3396D0CF0C2F10E070E0ED
:101D0000C8010E940F2A20910901820F482F50E03C
:101D100020916801022E000C330B02171307BCF050
:101D200020910601022E000C330B201731077CF0A6
:101D30008D9F90011124285F3B4F409106046091D4
:101D40000504809104040E946B0BCF5FAACFFA01B7
:101D5000EE0FFF1FE40FF51FE85FFB4F11821082AB
:101D60001282F3CF8F929F92AF92BF92CF92DF9267
:101D7000EF92FF920F931F93CF93DF93EC014C816F
:101D8000042F10E09801D8010E94532A9B01AC0156
:101D90000E94692A4B015C01E0E2F0E0E01BF10BDC
:101DA000A5E5B0E0AC019B010E94692A6B017C01B2
:101DB0009F01DF010E944B2A9B01AC010E94742A03
:101DC0009B01AC01280D391D4A1D5B1DC701B601E1
:101DD0000E94232AF22E822F90E039E23F1560F113
:101DE00043E0249F9001112435952795122F1095DB
:101DF00000E085E5E82EEF1880910B01081758F1F7
:101E00000E94E50B9C8181E0992319F0903219F42E
:101E10008FEF8093040180910401890F8C83DF91FF
:101E2000CF911F910F91FF90EF90DF90CF90BF90D7
:101E3000AF909F908F90089525E530E0B901681B21
:101E4000790B9B01220F331F260F371F37FFCCCF93
:101E50002F5F3F4FC9CF8E2D01FD8F2D209109019E
:101E6000622F600F7727771F9B01220F331F260FEA
:101E7000371F285F3B4F412F609105040E946B0B79
:101E80000F5FBACF0F931F93CF93DF93EC0110E056
:101E900000E090910B019017110609F06CF40E947C
:101EA000E50B8C8190E00196817099278C83DF91FE
:101EB000CF911F910F91089520910901A801420F20
:101EC000511D9A01220F331F240F351F285F3B4FEE
:101ED0004C81609105048091040496959017110639
:101EE00051F04CF0442349F0409106040E946B0BE2
:101EF0000F5F1F4FCECF4423B9F340E0F7CF8F924F
:101F00009F92AF92BF92CF92DF92EF92FF920F9388
:101F10001F93CF93DF93FC01B280948081E0848390
:101F200000E015E05BE4A52E88248394EE24EA9477
:101F3000F12C7BE4C72ED12C80910B01081770F097
:101F4000DF91CF911F910F91FF90EF90DF90CF9095
:101F5000BF90AF909F908F900C94E50BC02FD0E076
:101F60001C9FF0011D9FF00D1124E659FE4F9110AA
:101F70001CC01382128220910901CE01820F911D93
:101F80009C01220F331F280F391F285F3B4F1C9FD6
:101F9000F0011D9FF00D1124E659FE4F4281618131
:101FA00080810E946B0B0F5FC7CF2381222379F1C1
:101FB0002150238334818A2D821B311101C0822F4D
:101FC0001C9FF0011D9FF00D1124E659FE4F9091CA
:101FD0000604899FC0011124B6010E94FB29628377
:101FE000211104C0332311F01482A38222E02B15A7
:101FF00010F21C9FF0011D9FF00D1124E659FE4FB9
:10200000809104048083809105048183B4CF0E9471
:10201000C82A823091400CF0AECF82E08B1530F5AB
:102020000E94C82AB7010E940F2A1C9FF0011D9F21
:10203000F00D1124E659FE4F808322E02B15C8F4E1
:102040000E94C82A209105042695622F70E00E9404
:102050000F2A280F1C9FF0011D9FF00D1124E65937
:10206000FE4F21831282A382848285CF8091040453
:10207000DCCF20910504EECFE3E0F4E080818E7F99
:10208000808360817181828193810E948A0B10928A
:102090001B032FEF80E792E0215080409040E1F752
:1020A00000C000000C94E50BE3E0F4E080818E7F3B
:1020B000808310921B032FEF80E792E02150804035
:1020C0009040E1F700C000000C94E50B6091030420
:1020D000669570E04BE050E08CE091E00E94D82AD9
:1020E000892B19F481E080931B030E94D4229093E2
:1020F00014038093130308959091030490FF35C057
:102100009170811128C0926090930304662351F06E
:102110006091030470910404809105049091060479
:102120000E948A0B60910304669570E04BE050E0DA
:102130008CE091E00E94D82A892BA1F010921B0319
:1021400081E080931603409106046091050480911C
:1021500004040C94850D8B3210F09465D5CF880F54
:10216000982BD2CF0E946610EBCF0895682F9091E4
:102170000304969581E0890F8B3208F081E00C947E
:102180007C1081E00C94B610682F90910304969512
:102190008FEF890F09F48AE20C947C1081E00C9493
:1021A000C41061E00C947C10E3E0F4E08081816075
:1021B000808386950C94D1108091030480FD0C944B
:1021C0003C100C94D41060E00C947C1080911903A6
:1021D00081112EC00E94C720811104C00E946D2170
:1021E0000E949C0B0E94860B60930304709304046E
:1021F00080930504909306046E7F61F40E949C0B0B
:102200000E94860B6093030470930404809305047A
:10221000909306040E94700B10921B03809103049C
:1022200080FF03C086950E94E31081E0809319032C
:102230000895E3E0F4E080818160808386950C94CA
:10224000E31010921B0308950F931F93CF93DF9316
:1022500080911B03882309F49DC080911A03E091AB
:102260000304E695E81BE09315038230C9F5F0E01E
:10227000E35EF54FE491CE2FD0E00AE31CE08091BD
:102280001603882389F0109216030E94D4229E011F
:1022900020953095820F931F90931403809313031E
:1022A0001092180310921703809113039091140356
:1022B0000E94E0228C179D0708F46CC0E091130384
:1022C000F0911403CE0FDF1FD0931403C0931303B8
:1022D00083E193E0F801DF91CF911F910F91099471
:1022E000863049F4F0E0E65EF54FE491CE2FD0E081
:1022F0000EE41CE0C4CF893051F4E695F0E0E95ECD
:10230000F54FE491CE2FD0E008E81DE0B8CF8F3034
:1023100051F4E695F0E0EC5EF54FE491CE2FD0E07D
:1023200005EC1DE0ACCF853149F4F0E0EF5EF54FF0
:10233000E491CE2FD0E00FE31EE0A1CFC8E2D0E0C1
:1023400002EB1EE0883109F49ACF833239F4EFE0D2
:10235000FAE0C591D4910EE51CE091CFC4EFD1E035
:1023600002E41FE0843209F48ACFC0EDD7E00CE527
:102370001BE0853209F083CF8E2F63E00E94E129B4
:10238000E92FF0E0E45FF54FE491CE2FD0E00FE7C6
:102390001FE075CFDF91CF911F910F910895FA0142
:1023A000811101C0FB010994CF93DF93C82FD62F71
:1023B0000E94AC0B8C1740F00E94AC0B8D1720F4E0
:1023C000DF91CF910C94C1108C2FDF91CF910C94A1
:1023D000D1100F931F93CF938C01FB01C281CC23AB
:1023E00009F465C00E9412208272F801E25CFC458B
:1023F000E431F10538F4E25BF44D0C94452A0E9477
:10240000DC10C0E08C2FCF911F910F9108954EECFE
:1024100050E161EC70E10E94CF11F3CF41EC50E14B
:102420006EEC70E1F8CF46E45DE069E37DE0F3CF68
:1024300049E35DE066E47DE0EECF44E65DE065E51E
:102440007DE0E9CF45E55DE064E67DE0E4CF42E88C
:102450005DE063E77DE0DFCF43E75DE062E87DE0DC
:10246000DACF4FED5BE068EC7BE0D5CF48EC5BE08A
:102470006FED7BE0D0CF81E00E94D110C2CF65E04C
:1024800082E00E94D411BDCF68E086E0FACF6EE012
:1024900089E0F7CF64E18FE0F4CF67E185E1F1CF28
:1024A00088E1EACF62E289E1ECCF83E2E5CFC1E0E7
:1024B000A9CF0E94C720811102C00E946D210E94F5
:1024C000F52080930705803220F087708861809323
:1024D000070590910705892F817090FF04C0892F0F
:1024E0008695869586950C94571380910705982FAD
:1024F000969596959695933040F49F5F990F990F16
:10250000990F8770892B809307058091070581605B
:10251000809307050E94F92080910705869586958E
:1025200086950C94571380910705982F987F79F022
:10253000885080930705887F91E009F490E08091AE
:10254000070590FB80F9809307050E94F920809190
:1025500007058695869586950C94571380910705F7
:1025600080FD13C0816080930705813019F489E0F4
:1025700080930705809107050E94F9208091070547
:102580008695869586950C94571308958091070536
:1025900080FF08C08E7F809307050E94F92080E0AD
:1025A0000C94571308958091070580FD0C94C61272
:1025B0000C94AE1290910705892F86958695869585
:1025C0008F5F8F7197708430D8F4880F880F880FD1
:1025D000892B8093070580910705887F91E009F496
:1025E00090E08091070590FB80F9809307050E9499
:1025F000F920809107058695869586950C9457134A
:1026000090930705E8CF843008F083E090910705A8
:102610009770282F220F220F220F922B90930705DD
:10262000987F21E009F420E09091070520FB90F9C4
:10263000909307050C9457130E940313809107058C
:102640000C94F9209C01FB018281882349F12D3BE8
:10265000FCE53F07C9F040F42B3BECE53E0769F091
:102660002C3B3C4579F008952F3B9CE5390791F0D0
:1026700070F0203C3C4589F0089583E00E941C13D3
:1026800080E0089580E0FACF0E949312F9CF0E9473
:102690007512F6CF0E94D312F3CF0E94DA12F0CF58
:1026A00081E00895279A2F9808952F980895CF9242
:1026B000DF92EF92FF92CF93C82F843040F58111C3
:1026C00027C080918000877F809380000E945513EF
:1026D0002C2F30E0AFEFBFEF0E94532A23E030E011
:1026E00040E050E00E94232AC9012C3764E13607FC
:1026F000A8F469E070E00E94FB2970938D0060935C
:102700008C00CF91FF90EF90DF90CF900895C3E0C1
:1027100080918000886080938000DACF2A50374D06
:102720004F4F5F4F942F832F722F662725EF38E28C
:1027300041E050E00E94232A69017A01CA01B901EF
:102740000E94D1299B01AC01C701B6010E94D12989
:10275000672F782F892F99276115710521E082074E
:10276000910559F66FEF7FEFC8CF08950E9452137D
:102770008AE08093800089E1809381008FEF9FEF52
:1027800090938700809386000C945912809A41B3ED
:102790004E7F51B35160EFB7F8949B01220F331F66
:1027A000260F371F280F391F2817390741F4EFBFAD
:1027B0008FE594E00197F1F700C000000895DC0177
:1027C0006D91CD0178E051BB000000C067FF41BBB7
:1027D000660F000000C000C000C041BB00C07A9579
:1027E00091F7E2CFAF92BF92CF92DF92EF92FF923A
:1027F0000F931F93CF93DF937C015B01C42FD22FE4
:10280000FC0182818823F9F040931E030E94D422A8
:1028100090931D0380931C0380E28C0F883008F096
:1028200061C0C77081E001C0880FCA95EAF7DF91E7
:10283000CF911F910F91FF90EF90DF90CF90BF90BD
:10284000AF900C94471810911E03141340C0809150
:102850001C0390911D030E94E0226C01B701C50189
:102860000E94061DC816D90690F5C0E2CD0F1D17AF
:10287000B9F080E2810F883040F4177081E001C028
:10288000880F1A95EAF70E944E18C83048F481E084
:102890009D2F977001C0880F9A95EAF70E944718FC
:1028A000802F0E943418C830E8F4D77081E001C04E
:1028B000880FDA95EAF7DF91CF911F910F91FF9082
:1028C000EF90DF90CF90BF90AF900C944E1880E2C5
:1028D0008C0F883038F4C77081E001C0880FCA952A
:1028E000EAF7E9CFDF91CF911F910F91FF90EF9021
:1028F000DF90CF90BF90AF9008950F939C01CB01D4
:10290000233F4CE5340759F1A8F4283DFCE53F0787
:1029100001F1293D4CE53407D1F1273D3C4591F4C7
:1029200006E221EE41EE67ED7CE50E94F21380E0C5
:102930000F910895253FFCE53F07E9F0B0F0263FF1
:102940003C45F9F0FC018281882339F110921E0385
:10295000EFCF07E225EE45EE68ED7CE5E6CF06E237
:1029600021EE40EE63EF7CE5E0CF07E225EE44EE9A
:1029700064EF7CE5DACF06E221EE42EE65EF7CE51E
:10298000D4CF07E225EE46EE66EF7CE5CECF08E237
:1029900021E045EE69ED7CE5C8CF81E0C9CFCF935A
:1029A000DF93EC01FB018281882309F419C1C23055
:1029B000FCE5DF07C0F1C6319CE5D90730F09E0188
:1029C0002A5F3C452930310570F50E94DA2090934A
:1029D0000D0580930C05C031ECE5DE0709F4CFC08E
:1029E00008F05BC0C8308CE5D80709F4B6C088F59C
:1029F000C430ECE5DE0709F4A8C0C0F4C2308CE5B1
:102A0000D80709F49CC080910C058260C330DC4576
:102A100009F498C080910C0590910D050E94E82062
:102A20000E94901A80E0DF91CF91089580910C056B
:102A30008061C630ECE5DE0709F484C080910C05A6
:102A40008860C730DC4508F47DC080910C05806249
:102A500079C0CC308CE5D80709F489C070F4809136
:102A60000C058C60CA30ECE5DE0709F46BC008F495
:102A700078C080910C058E7F65C0CE308CE5D8077C
:102A800009F479C080910C058B7FCF30DC4508F4C8
:102A900059C080910C058F7E55C0CB3FECE5DE0719
:102AA00009F457C030F5C3318CE5D80709F46FC07D
:102AB00078F4C131ECE5DE0709F465C0C231DC45CC
:102AC00009F0A8CF0E94901A80910C058F773AC028
:102AD000C5318CE5D80709F462C008F476C080914E
:102AE0000D058160CA3FDC4509F094CF80930D0548
:102AF00091CFCF3FFCE5DF0709F44DC088F480910A
:102B00000D058D7FCD3F9CE5D90781F380910D05A3
:102B10008E7FCE3FDC4550F380910D058360E6CF7C
:102B2000C130FDE5DF0709F459C008F444C080E076
:102B3000C230DD4509F06ECF0E946F216BCF8091CE
:102B40000C05816080930C0565CF80910C05846035
:102B5000F9CF80910D058260C9CF80910C0580640A
:102B6000F1CF0E94901A80910C058068EBCF809184
:102B70000C058D7FE7CF80910C05877FE3CF809197
:102B80000C058F7DDFCF80910C058F7BDBCF809193
:102B90000C05837FD7CF80910D058C7FA7CF8091C7
:102BA0000C0582FB992790F921E0922790FB82F98E
:102BB00090FB83F9C7CF80910D05982F9095917068
:102BC0008E7F892B90FB81F991CF0E94901A909172
:102BD0000C05892F97FB87F98058B4CF81E0ACCFE3
:102BE00081E021CFCF93DF93EB0186319C4511F536
:102BF0000E9412209A81992399F08A7A91E009F42F
:102C000090E090931F03811109C089E20E94ED1F9B
:102C10000E945E2080E0DF91CF91089585E3F6CF9A
:102C200080911F03811104C089E20E94F41FF0CF3C
:102C300085E3FBCF81E0EFCF9093250380932403BE
:102C40000895E0912403F0912503309721F001903D
:102C5000F081E02D099480E00895E0912403F09143
:102C60002503309799F020912301222359F02091D8
:102C70000C0527FF07C0DC012C9111962C931197AE
:102C800025E02C930280F381E02D09940895209192
:102C90002203309123032817390771F090932303FF
:102CA00080932203E0912403F0912503309721F0D3
:102CB0000680F781E02D099408952091200330913A
:102CC00021032817390771F0909321038093200383
:102CD000E0912403F0912503309721F00084F185E1
:102CE000E02D0994089585B7806885BF85B7806811
:102CF00085BF0895089508950C947A1608950C944C
:102D00007E160E9473160E947B160C947C1681E03E
:102D100008950C9487160E94CB220E949B090E9462
:102D20004D230E9459120E94E6100C947F169F9228
:102D3000AF92BF92CF92DF92EF92FF920F931F93C9
:102D4000CF93DF93CDB7DEB72A970FB6F894DEBFE7
:102D50000FBECDBF0E94030A0E948916882309F482
:102D600072C057E2A52E53E0B52E10E000E0902E81
:102D7000802F0E948D096C01F501E190F1905F01B7
:102D8000E816F90609F459C08091C90381FD0E9433
:102D9000960997012C253D2580E0EE24E394F12C43
:102DA000A9014E215F21452B09F441C08E839F82EA
:102DB000CE20DF2081E0CD2809F480E088870E94C2
:102DC000D4228160782F9A8789874E815F816885B8
:102DD0008A850E944617000F111FF801E95DFC4F1C
:102DE00080819181E826F926F182E0820E942411F7
:102DF0000E94B5130E942116909126038917A1F114
:102E00000E942116809326032A960FB6F894DEBFFF
:102E10000FBECDBFDF91CF911F910F91FF90EF902B
:102E2000DF90CF90BF90AF909F900C9497078F5FEB
:102E3000EE0CFF1C8F3009F0B3CF0F5F1F4F053032
:102E4000110509F094CF8FEF89838A831B820E943A
:102E5000D4228160782F9D838C8349815A816B8134
:102E60008D810E944617C2CF2A960FB6F894DEBF16
:102E70000FBECDBFDF91CF911F910F91FF90EF90CB
:102E8000DF90CF90BF90AF909F900895CF93DF9346
:102E9000CDB7DEB72B970FB6F894DEBF0FBECDBF10
:102EA0004F83588769877A878B871E821D8285E0CA
:102EB000FE013796DE01119601900D928A95E1F799
:102EC00049815A816B817C818D819E812B960FB6C1
:102ED000F894DEBF0FBECDBFDF91CF910C94091DDA
:102EE000FC01808191810C94BF1FCF93C82F882350
:102EF00009F469C08238C1F40E94211681FD63C0C3
:102F000089E30E94ED1F0E945E202FEF81EE94E086
:102F1000215080409040E1F700C0000089E30E940A
:102F2000F41FCF910C945E208338A1F40E942116E7
:102F300080FD49C083E50E94ED1F0E945E202FEFB7
:102F400081EE94E0215080409040E1F700C0000005
:102F500083E5E5CF8438A1F40E94211682FD33C0B9
:102F600087E40E94ED1F0E945E202FEF81EE94E027
:102F7000215080409040E1F700C0000087E4CFCFAF
:102F80008CEF8C0F813A90F46C2F80911701909107
:102F900018010E948821882329F08C2F0E94F41F99
:102FA0000E945E208C2F0E94ED1FBBCF80E28C0F11
:102FB000883048F4C77081E001C0880FCA95EAF7ED
:102FC0000E941520AECFCF910895882309F44BC0FD
:102FD000823871F40E94211681FF45C089E30E9466
:102FE000ED1F0E945E2089E30E94F41F0C945E2076
:102FF000833859F40E94211680FF35C083E50E9472
:10300000ED1F0E945E2083E5EFCF843859F40E94C3
:10301000211682FF28C087E40E94ED1F0E945E20D7
:1030200087E4E2CF9CEF980F913AF0F290E2980F8C
:10303000983050F4877091E001C0990F8A95EAF7B3
:10304000892F0E941B20D2CF9BE5980F933020F44C
:1030500090E080E00C944716885A873120F490E085
:1030600080E00C945D160895CF93C82F0E947517C9
:10307000C93349F42FEF87EE93E021508040904010
:10308000E1F700C000008C2FCF910C94E517882346
:1030900021F00E9415200C945E200895882321F0D1
:1030A0000E941B200C945E200895BF92CF92DF9265
:1030B000EF92FF920F931F93CF93DF936C01D62F64
:1030C000C72FFC01158112951F70028101110E940A
:1030D00032200E940B20E82E882391F00023D1F0AB
:1030E0008C2F807F803421F080E28D0F883090F02B
:1030F00082E00E94A9200E940B2091E0E82EE926A0
:10310000BC2EB2949FE0B922EB2DF0E0EE59F44DC5
:103110000C94452AE12CF4CF1C2F1F70C07F11F0B6
:103120001295107F0023A9F0112359F080E28D0F32
:10313000883010F0D11109C0812F0E9415200E9403
:103140005E208D2F0E94751714C0812F0E942520AC
:10315000F6CF8D2F0E94E517112359F080E28D0FD5
:10316000883010F0D1112CC0812F0E941B200E94AA
:103170005E202B2D2850330B2430310520F40E9483
:1031800021160E949707EE2009F477C10E940720BC
:1031900080FD73C1F60112820E9401200E948D1EE3
:1031A000C6010E945E1A0E940120DF91CF911F91FB
:1031B0000F91FF90EF90DF90CF90BF900C94AE1ED8
:1031C000812F0E942B20D3CFFC2FFF70FF2EC07FBA
:1031D000C03219F0F29480EFF822DD2369F0D1308B
:1031E00049F1002391F1112351F1F601858180FF0E
:1031F000A8CF8F70858323C0002381F0111106C0F2
:103200000E9445208F290E944718B3CF1130C1F783
:103210000E9445208F290E944B20ABCF111106C080
:103220000E9454208F2D0E944E18A3CF113009F414
:10323000A0CFF6CF002329F0163008F09ACF8F2DBB
:10324000E2CF153008F095CFEDCF112359F3D933E4
:1032500049F4FFEF27EE33E0F15020403040E1F732
:1032600000C000008D2F0E94E51783CF8C2F837044
:1032700009F041C001117DCF4D2F42954695477011
:10328000440F440F0D2F0F7010E030E020E0042EAB
:1032900004C0000F111F221F331F0A94D2F760E0F1
:1032A00070E0CB01D4FF0FC06FE070E080E090E0F1
:1032B00004C0660F771F881F991F4A95D2F7609543
:1032C000709580959095C695C695C370602B712BAF
:1032D000822B932BC23049F058F4C13019F00E9470
:1032E0003F1E47CF0E942D1E44CF0E94511E41CF4A
:1032F0000E942B1E3ECF8695002311F08C2F8170EB
:10330000882309F436CF4D2F429546954770440FD8
:10331000440F0D2F0F7010E030E020E0042E04C0A9
:10332000000F111F221F331F0A94D2F760E070E0D4
:10333000CB01D4FF0FC06FE070E080E090E004C0EC
:10334000660F771F881F991F4A95D2F76095709571
:1033500080959095C695C695C370602B712B822B76
:10336000932BC23049F058F4C13019F00E94041F69
:1033700000CF0E94F21EFDCE0E94161FFACE0E94C0
:10338000671EF7CECF70002329F08C2F0E948D1E70
:103390008D2F39CF8D2F0E944E188C2F0E94AE1E7C
:1033A000E8CED23F89F160F4D03FC9F0D13F29F196
:1033B000002309F442C01111C4CE8C2F8F7121C09B
:1033C000D33F39F1D43FA1F7002369F1CF718C2F9E
:1033D0000E948D1E63E08C2F0E949420CACE002391
:1033E00041F0153008F0C5CE8C2F8F710E94D11E90
:1033F000C0CE163008F0BDCEF7CF8C2F8F710023D2
:1034000069F20E948D1EB5CE8C2F8F710023C9F3F7
:10341000C5CF002329F08C2F8F710E94781EA9CE72
:103420000E94731EA6CE81E00E94A920123008F4EB
:10343000A0CE82E00E94A9209CCE112359F0D9335E
:1034400009F010CF8FEF97EEE3E081509040E0401D
:10345000E1F706CF8C2F8F71A1CF4C2F4F706D2FBE
:10346000C6010E94D5060E94A31D83CE4C2F4F702B
:103470006D2FC6010E949F077CCEDF91CF911F91D7
:103480000F91FF90EF90DF90CF90BF9008950F9332
:103490001F93CF93DF93EC01688179818A810E9429
:1034A000C91F8C010E94281F0E942A1EB801CE014C
:1034B000DF91CF911F910F910C945518CF93DF930B
:1034C000EC018B819C81892B29F08881998189234A
:1034D0008F3F59F4DF91CF910895CE010E94471A92
:1034E000CE01DF91CF910C942007CE010E944907B5
:1034F0008111F3CF0E940B20882361F38A818823F6
:1035000049F382E0DF91CF910C94A9200E943220F0
:103510000E9442200C945E200E94FB1F0C94861A8D
:103520000E9422200C948C1AE92FE295EF70E25051
:10353000EE3070F4F0E0EE58F44D0C94452A803FE4
:1035400019F020F4883E20F481E00895843FE1F3EF
:1035500080E00895883EC0F3813FD1F7F5CF93FB1B
:10356000882780F908950E94BF1F0C94941ACF9366
:10357000DF9300D000D00F92CDB7DEB70F900F9041
:103580000F900F900F90DF91CF910895CF93DF931D
:1035900000D000D000D0CDB7DEB726960FB6F89495
:1035A000DEBF0FBECDBFDF91CF9108951F93CF93A4
:1035B000DF93C091320316E0809133038C1304C073
:1035C000DF91CF911F910895D0E01C9FF0011D9FC6
:1035D000F00D1124EC5CFC4F4081518162817381BC
:1035E000848195810E94C61A2196C770E5CF4091CB
:1035F0006403509165036091660370916703809145
:103600006803909169030C94C61A1F93CF93DF93BC
:1036100080916903807FA9F480916603882389F0F3
:1036200080913203C091330360916403709165030C
:10363000A0916703B0916803D62FD72316E0C81373
:1036400004C0DF91CF911F91089590E0109711F081
:10365000DF3F19F401968770F2CF189F9001199FF0
:10366000300D1124F901EC5CFC4F41814713F2CF7E
:1036700040814613EFCF42814111ECCF4381548109
:103680004A1B5B0B483C510528F7809169038F70FA
:10369000806180936903F901E75CFC4F80818F7042
:1036A0008061808384E693E00E945E1ADF91CF916F
:1036B0001F910C94D61AAF92BF92CF92DF92EF92E5
:1036C000FF920F931F93CF93DF93CDB7DEB7619730
:1036D0000FB6F894DEBF0FBECDBF8C0185E0F801B8
:1036E000DE011D9601900D928A95E1F7F801408167
:1036F0005181E28084E6C82E83E0D82E6091670372
:10370000709168036115710509F461C190916403BA
:1037100020916503892F82238F3F09F458C1A3802C
:10372000B480F0906603F501E61BF70BFF2009F467
:10373000FCC080916903382F307FE83CF10508F028
:10374000B2C0311179C0FE2C251323C0941321C0BF
:10375000E1101FC08F708061809369030E94F71A87
:10376000C6010E945E1A80916903F80185838F2D3E
:1037700061960FB6F894DEBF0FBECDBFDF91CF913B
:103780001F910F91FF90EF90DF90CF90BF90AF907F
:103790000895AB2829F0842F85238F3F09F033C18A
:1037A00080E0F82FF170DF2E80FF3CC08091320363
:1037B0002091330336E0821315C04D875E878D85D7
:1037C0009E850E94BF1F292F22952F702230F0F076
:1037D000243018F59F70F1F0F8019581907FD1F4B5
:1037E000D12C1EC090E0389FF001399FF00D1124BC
:1037F000EC5CFC4F6181651306C06081641303C0FB
:1038000062816E110FC001968770D5CF9F7011F045
:10381000882331F3805E883018F3C8010E945E1A55
:10382000FD2CA5CFEE2009F4A2CF80916903816021
:1038300080936903F12C9BCF251306C0941304C019
:10384000F801EE2009F48DC04D875E878D859E8539
:103850000E94B31A882319F1EE2009F180916903BF
:10386000803270F0209164033091650338872F8394
:103870001986BB86AA868C87CE0107960E945E1A9F
:1038800086E0F801A4E6B3E001900D928A95E1F795
:103890000E94051B0E94F71AFF24F39468CFC80109
:1038A0000E945E1AF9CF311113C07A2DB98AA88A05
:1038B0006E2D89890E94B71A84E693E00E945E1AF1
:1038C00086E0F60111928A95E9F70E94F71AB2CFC5
:1038D00025130FC094130DC0E1100BC0F8018583B0
:1038E000C8010E945E1A86E0F60111928A95E9F7F6
:1038F0003ECF4D875E878D859E850E94B31A8823B3
:1039000071F2EE2061F280916903803208F4B8CF41
:1039100020916403309165033A8329831B82BD8221
:10392000AC828E83CE010196A9CFE83CF10508F068
:1039300041C0FE2CEE2009F4B2CF25132AC0941307
:1039400028C08091690380FD1BC0982F907FC1F033
:10395000F8018583903F31F0982F907F905F8F70B2
:10396000892B8583C8010E945E1A86E0F801A4E6CF
:10397000B3E001900D928A95E1F70E94F71AF7CE15
:1039800086E0F801A4E6B3E001900D928A95E1F794
:10399000EECE4D875E878D859E850E94B31A81117C
:1039A0006FCF80916903816080936903C8010E9491
:1039B0005E1ADDCE7A2DB98AA88A6E2D89890E9479
:1039C000B71A86E0F60111928A95E9F7D6CFEE2074
:1039D00009F465CF4D875E878D859E850E94B31A59
:1039E000F82E882309F45BCF86E0F801A4E6B3E063
:1039F00001900D928A95E1F784E693E00E9470179A
:103A00000E94051BBACF81E08E25CBCE88EC90E0DA
:103A100008951F93CF93DF93CDB7DEB72C970FB6E2
:103A2000F894DEBF0FBECDBF4F83588769877A8772
:103A30008B879C87CE0107960E945B1B882369F0C9
:103A40008A859B85892B39F04F815885842F852362
:103A50008F3F09F071C016E05FC086E0FE01379627
:103A6000DE01119601900D928A95E1F78A859B857A
:103A7000892B89F38F81988589238F3F61F320916A
:103A8000330330E0C90101968770992740913203D2
:103A90004817190671F40E94901A1092330310927D
:103AA000320386E0E4E6F3E0DF011D928A95E9F750
:103AB000D2CF96E0929FD001939FB00D1124AC5CC1
:103AC000BC4FFE01319601900D929A95E1F78093DB
:103AD00033030E94D61ABFCF819FC00111248C5C92
:103AE0009C4F0E945B1B8823E9F0E09132031E9FEC
:103AF000F0011124EC5CFC4F4081518162817381A3
:103B0000848195810E94C61A8091320390E00196CB
:103B10008770992780933203809132039091330309
:103B20008913DACF2C960FB6F894DEBF0FBECDBF47
:103B3000DF91CF911F91089569857A858B859C854A
:103B40000E94C61A88CFEF92FF920F931F93CF93D4
:103B5000DF938C01892B81F0F12CEE24E394E801B2
:103B60002196F8018491843770F4843008F05FC0A6
:103B70008130B1F08230A1F1DF91CF911F910F918F
:103B8000FF90EF900895853709F44CC008F43DC0CC
:103B90009CE7980F903780F78F770E94E51749C010
:103BA0000E5F1F4FFE01849190E2980F983060F4F1
:103BB0008770FE2D01C0FF0F8A95EAF78F2F0E94B4
:103BC00035200E945E2002C00E9475178F2D815003
:103BD00030F2EFE9FFE03197F1F700C00000F7CFD6
:103BE0000E5F1F4FFE01849190E2980F983050F4C1
:103BF0008770FE2D01C0FF0F8A95EAF78F2F0E9474
:103C00003B20DFCF0E94E517E1CF0E5F1F4FFE0183
:103C1000C491C150D8F28FE99FE00197F1F700C03D
:103C20000000F7CF0E5F1F4FFE01F490CFCF0E9430
:103C300075178E01CBCF08950C941B1E0E941C1E7D
:103C40006093A0037093A1038093A2039093A303B6
:103C50000C94861A08950C941E1E0F931F930091C6
:103C6000A0031091A1032091A2033091A303602B24
:103C7000712B822B932B1F910F910C941E1E0F936F
:103C80001F930091A0031091A1032091A2033091F2
:103C9000A30360237123822393231F910F910C941C
:103CA0001E1E0F931F930091A0031091A10320915A
:103CB000A2033091A30360277127822793271F91C6
:103CC0000F910C941E1E0C941B1E0C94631E0E94DC
:103CD000651E60939C0370939D0380939E03909355
:103CE0009F030C94861A60E070E0CB010C94671E71
:103CF0000F931F9341E050E060E070E08A019B0168
:103D000004C0000F111F221F331F8A95D2F7C9016B
:103D1000B8011F910F910C94671E0F931F9341E000
:103D200050E060E070E004C0440F551F661F771F2D
:103D30008A95D2F780919C0390919D03A0919E0358
:103D4000B0919F038A019B01082B192B2A2B3B2B37
:103D5000C901B8011F910F910C94671E0F931F9317
:103D600041E050E060E070E004C0440F551F661F62
:103D7000771F8A95D2F7CB01BA016095709580952F
:103D8000909500919C0310919D0320919E0330918A
:103D90009F0360237123822393231F910F910C941F
:103DA000671E0F931F9341E050E060E070E004C095
:103DB000440F551F661F771F8A95D2F780919C0389
:103DC00090919D03A0919E03B0919F038A019B0156
:103DD000082719272A273B27C901B8011F910F91EE
:103DE0000C94671E0F931F9300919C0310919D03E9
:103DF00020919E0330919F03602B712B822B932B7C
:103E00001F910F910C94671E0F931F9300919C03B9
:103E100010919D0320919E0330919F036023712395
:103E2000822393231F910F910C94671E0F931F936E
:103E300000919C0310919D0320919E0330919F035C
:103E400060277127822793271F910F910C94671E7B
:103E500008952FE0929F800D1124982F977041E0D4
:103E600001C0440F9A95EAF786958695869595E068
:103E7000899FF0011124E659FC4F90E080E070E04A
:103E80005191DF0111979B01082E02C036952795AD
:103E90000A94E2F7217021952527242325272C93C6
:103EA00001968530910561F708952FE0929F800D6E
:103EB0001124982F977086958695869525E0829F88
:103EC000F0011124E659FC4F50E040E080E02191E0
:103ED00030E0092E02C0369527950A94E2F721704A
:103EE0003327042E01C0220F0A94EAF7822B4F5F7A
:103EF0005F4F4530510559F70895BF92CF92DF9239
:103F0000EF92FF920F931F93CF93DF938C01C0909A
:103F10009C03D0909D03E0909E03F0909F038091BE
:103F2000A0039091A103A091A203B091A303C82A7A
:103F3000D92AEA2AFB2ACFE1D0E0BC2ED701C6015C
:103F40000C2E04C0B695A795979587950A94D2F73D
:103F500080FD0EC0219788F7B12C8B2DDF91CF917A
:103F60001F910F91FF90EF90DF90CF90BF90089539
:103F7000B8018C2F0E94BC07019761F3EECFCF935D
:103F8000DF93EC010E947D1FBE01DF91CF910C9465
:103F9000BC071F93CF93DF93EB01909131039923DB
:103FA00031F0CB01DF91CF911F910C94BF1F88237B
:103FB00079F0CB010E947D1F182F682FCE010E943F
:103FC000291FBE01812FDF91CF911F910C94BC0757
:103FD000CB010E94551F182FF4CF682F8091170135
:103FE000909118010C940822682F809117019091EC
:103FF00018010C94132280911701909118010C94D0
:104000001E228091A40385958595859508958091BC
:10401000A403877008959091A403977081E009F438
:1040200080E008958091C80308959091C803892B7A
:104030008093C803089580959091C8039823909326
:10404000C80308951092C80308959091C703892B5F
:104050008093C703089580959091C7039823909308
:10406000C70308951092C70308959091C603892B42
:104070008093C603089580959091C60398239093EA
:10408000C60308951092C60308958091A50308956C
:1040900008950C9448209091A503981721F08093DF
:1040A000A5030C94492008958091A503882329F045
:1040B0001092A50380E00C9449200895E091170127
:1040C000F09118018091C8038083E0911701F0916D
:1040D000180180819091C703892B8083E09117019B
:1040E000F091180180819091C603892B8083909173
:1040F000A503992381F0E0911701F09118018081C7
:10410000892B808380911701909118010E9474215E
:1041100081110E94542080911701909118010C94F4
:104120002D1608950C94912098E0899F90011124F8
:10413000622B6093A4030E948D1E8091A403859539
:10414000859585950C9492201092A40380E00C94A0
:1041500092209091A403809589238093A403282F13
:10416000277071F4282F082E000C330B92171306BA
:1041700039F08595859585950E94AE1E0C94A420F6
:1041800008956FEF7FEF90E080E00C94172B90E0A4
:1041900080E00E94F32A21E08C3E9E4F09F020E04F
:1041A000822F089582E090E00C94E52A83E090E06D
:1041B0000C94E52ACF9384E090E00E94E52AC82F72
:1041C00081E290E00E94E52A982F8C2FCF910895EC
:1041D000CF93C92F682F84E090E00E94F92A6C2FBA
:1041E00081E290E0CF910C94F92A86E090E00C9463
:1041F000E52A682F86E090E00C94F92AAB01BC0117
:104200008FE090E00C940B2BAB01BC0183E190E0BC
:104210000C940B2B60E070E0CB010C94042160E067
:1042200070E0CB010E94FE200C940A216CEE7EEF20
:1042300090E080E00E94172B60E082E090E00E9416
:10424000F92A60E083E090E00E94F92A1092A0032E
:104250001092A1031092A2031092A30360E084E0E5
:1042600090E00E94F92A60E081E290E00E94F92A41
:1042700060E085E090E00E94F92A60E086E090E04E
:104280000E94F92A6FEF87E090E00E94F92A40E04F
:1042900050E0BA0188E090E00E940B2B60E08DE0D6
:1042A00090E00E94F92A40E050E0BA0188E190E0F5
:1042B0000E940B2B60E087E190E00E94F92A40E029
:1042C00050E0BA018CE190E00E940B2B60E080E2AC
:1042D00090E00E94F92A0C940F210C941621682F6B
:1042E0008EE090E00C94F92AFC0132968091230133
:1042F000882321F080910C059EE187FF96E080E005
:10430000915008F4089521912223D1F38F5FF8CFC3
:10431000662301F1209123012223F1F020910C0565
:1043200027FF1AC0462F4695469546954E3190F484
:10433000677021E030E002C0220F331F6A95E2F778
:10434000840F911DFC01828190E02823392381E0B4
:10435000232B69F480E00895FC01329608962191A0
:10436000261721F0E817F907D1F7F4CF81E0089577
:104370009C01FC0132969FEF80E04191461751F07D
:104380009F3F19F4411101C0982F8F5F8630A9F724
:104390009F3F09F40895290F311D97FD3A95F901C2
:1043A00062830895FC01329608962191261303C07A
:1043B000DF0111971C92E817F907B9F70895E62F66
:1043C000E695E695E695EE3168F4E80FF92FF11DD4
:1043D000677021E030E001C0220F6A95EAF7828120
:1043E000822B82830895E62FE695E695E695EE31D9
:1043F00070F4E80FF92FF11D677021E030E001C083
:10440000220F6A95EAF72095828128232283089556
:1044100020912301222329F020910C0527FD0C94E3
:10442000DF210C94B82120912301222329F020912F
:104430000C0527FD0C94F3210C94D221FC0132963B
:1044400080912301882351F080910C0587FF06C0DD
:104450008EE1DF011D928A95E9F7089586E0F9CF94
:10446000089508950C9431220E9432228091120501
:10447000843009F43CC01092CA0388E190E020E443
:104480000FB6F894A895809360000FBE209360004B
:1044900080E00E94571380E00E9497070E9421113C
:1044A0008091CB0381110AC081E08093CB0380917E
:1044B000030481708093CC030E9454100E94322226
:1044C00083B7817F846083BF83B7816083BF789423
:1044D000889583B78E7F83BF0FB6F894A895809197
:1044E0006000886180936000109260000FBE0895A4
:1044F0000895CF930E9430220E94030A0E947822DE
:10450000C0E08C2F0E948D09892B31F4CF5FC5301C
:10451000C1F780E0CF91089581E0FCCF08950C941D
:104520008E220E94901A0E9459120E9421160E9407
:1045300097071092CB038091CC0381110E9419112F
:104540000E9466100C948F221F921FB61F92112496
:104550008F939F93AF93BF938091CA03811113C030
:104560008091080590910905A0910A05B0910B056D
:104570004196A11DB11D8093080590930905A09354
:104580000A05B0930B05BF91AF919F918F911F903A
:104590001FBE1F90189582E084BD93E095BD9AEFF1
:1045A00097BD80936E0008952FB7F8948091080509
:1045B00090910905A0910A05B0910B052FBF0895B0
:1045C0009C014FB7F8948091080590910905A0913E
:1045D0000A05B0910B054FBF821B930B0895789489
:1045E0001F921FB61F9211248F939F93AF93BF9377
:1045F0008091080590910905A0910A05B0910B05DD
:104600000196A11DB11D8093080590930905A09303
:104610000A05B0930B05BF91AF919F918F911F90A9
:104620001FBE1F90189581E08093E00080E2809388
:10463000D8001092C9008FE19EE40197F1F700C005
:10464000000087E090EBDC0180931B0590931C0534
:10465000A0931D05B0931E0588E19CE00FB6F89469
:10466000A895809360000FBE90936000FFCF0C94DC
:10467000C1200E94030A8FE39CE90197F1F700C073
:1046800000000E94030A80E00E948D0980FF04C0A0
:104690000E9437230C94132308950E94C720811190
:1046A00002C00E946D210E94D2208093C9030E9403
:1046B000DA2090930D0580930C050E94D620682F78
:1046C00070E090E080E00E942B1E60919C0370914E
:1046D0009D0380919E0390919F030C94651E809191
:1046E000ED03089508950895CF93DF93EC01809131
:1046F00023018823B1F180910C0587FF32C060E26D
:1047000082E08093E9008FEF9091E800815095FD61
:1047100006C095ED9A95F1F700008111F5CF8091D3
:10472000E80085FF1BC08091230170E050E040E06D
:10473000811104C050E040E068E070E0CE010E94CA
:1047400040258091E8008E778093E80080E2FE01AA
:10475000ADECB3E001900D928A95E1F7DF91CF9136
:10476000089568E081E0CDCF089580911105811111
:1047700009C00E94D0260E942D278091E20084600B
:104780008093E20008951092110508950895089508
:104790000C94912242E061EC81E00E944C2642E2BE
:1047A00061EC82E00C944C2680911405833009F46E
:1047B0005FC030F48130C1F1823009F49BC00895AC
:1047C0008A3009F487C08B3009F46DC0893009F054
:1047D0004EC080911305813209F049C080911705C0
:1047E00090911805029708F042C08091E800877FF9
:1047F0008093E8008091E80082FF35C09091F3003B
:104800008091F200029729F48091F1008B7F813032
:1048100021F48091F1008093ED038091E8008B7783
:104820008093E8000C94802680911305813AF9F476
:104830008091E800877F8093E80080911705909130
:104840001805892B61F460E28DEC93E070E00E9422
:104850008F258091E8008B778093E800089560E0D1
:1048600090E080E0F3CF809112058111C3CF0895CD
:1048700080911305813AD9F7809117059091180519
:10488000892BA9F78091E800877F8093E8008091C9
:10489000E80080FFFCCF809123018093F10080919C
:1048A000E8008E77BDCF80911305813201F78091AA
:1048B000170590911805892BD1F68091E800877F24
:1048C0008093E8000E948026809115058093230143
:1048D0000C94901A80911305813249F68091E8007A
:1048E000877F8093E8000E94802680911605809340
:1048F000EE03089580911305813A09F0B8CF8091B5
:10490000E800877F8093E8008091E80080FFFCCF7B
:104910008091EE03C2CF84B7877F84BF0FB6F8942F
:10492000A89580916000886180936000109260007B
:104930000FBE80E890E00FB6F894809361009093EA
:1049400061000FBE0E9481160E94D0260E942D2772
:104950008091E20084608093E20078940E94B629FE
:104960000E948B1689E191E00E941C16809112052D
:10497000853019F00E949716F9CF0E943422809159
:104980001005882399F30E947922882379F30E94E5
:104990002A25ECCF0C94CC24292F33272330310542
:1049A00019F168F42130310509F44AC0223031058B
:1049B00009F44BC090E080E030E020E028C02132D4
:1049C000310579F122323105A9F780E490E028ED34
:1049D0003CE061157105D9F08BE390E02DE93CE0F6
:1049E00061307105A1F0E6CF99278130910599F0EA
:1049F000009741F08230910589F00397D9F6E6E2FD
:104A0000FCE002C0ECE4FCE0849190E09F01FA013C
:104A1000318320830895ECE3FCE0F6CFECE2FCE088
:104A2000F3CF89E090E022E63CE06115710579F36F
:104A300089E090E02BE73CE06130710541F3BACFAB
:104A400082E190E02BE83CE0E2CF8BE390E020E5D0
:104A50003CE0DDCF80E189BD82E189BD09B400FE83
:104A6000FDCF8091D8008F7D8093D8008091E000A9
:104A700082608093E0008091E00081FDFCCF08958A
:104A8000AF92BF92CF92DF92FF920F931F93CF937B
:104A9000DF936C01EB018A010E949F26F82E8111A1
:104AA00023C00115110539F0F80180819181C81BDF
:104AB000D90BC80ED91EB12CA12C2097A9F080913A
:104AC000E80085FD22C08091E8008E778093E800A1
:104AD00001151105A1F0F80180819181A80EB91E80
:104AE000B182A08285E0F82E8F2DDF91CF911F91AA
:104AF0000F91FF90DF90CF90BF90AF9008950E94EC
:104B00009F268823D1F2F82EEFCFF60181916F0115
:104B10008093F1002197FFEFAF1ABF0ACECFFC01BF
:104B20008091190590911A0586179707A0F06115D5
:104B3000710529F49091E8009E779093E80090E049
:104B40006115710551F4911108C08091E80082FF50
:104B500034C080E00895BC01F2CF80911205882313
:104B6000C1F18530C1F18091E80083FD30C08091B2
:104B7000E80082FDEACF8091E80080FFE1CF8091DC
:104B8000F3002091F200382F6115710519F02830DB
:104B9000310558F091E02830310509F090E020917E
:104BA000E8002E772093E800CBCF81918093F1002D
:104BB000615071092F5F3F4FE7CF80911205882325
:104BC00041F0853041F08091E80083FFBECF81E065
:104BD000089582E0089583E00895FC01809119050D
:104BE00090911A0586179707A0F06115710529F4B1
:104BF0008091E8008E778093E80090E06115710560
:104C000051F4911108C08091E80082FF35C080E026
:104C10000895BC01F2CF809112058823C9F1853037
:104C2000C9F18091E80083FD31C08091E80082FDE8
:104C3000EACF8091E80080FFE1CF8091F3002091DE
:104C4000F200382F6115710519F02830310558F040
:104C500091E02830310509F090E08091E8008E77EE
:104C60008093E800CBCF84918093F100319661501E
:104C700071092F5F3F4FE6CF80911205882341F0E5
:104C8000853041F08091E80083FFBDCF81E0089539
:104C900082E0089583E00895982F973028F08F7070
:104CA0008093E90081E008959093E900242F762F06
:104CB00050E0981731F07091EC002091ED00509188
:104CC000F00021FD02C09F5FE8CF3091EB003E7FF6
:104CD0003093EB003091ED003D7F3093ED0030914B
:104CE000EB0031603093EB007093EC002093ED000B
:104CF0005093F0002091EE0027FDE5CF80E008956D
:104D00008091130587FF13C08091E80082FF06C0E1
:104D10008091E8008B778093E80004C080911205B1
:104D20008111F2CF0895809112058823D9F38091E3
:104D3000E80080FFF8CF8091E8008E77ECCF2091DB
:104D4000E4003091E50095E6A9012091EC00822F66
:104D5000817020FF06C08091E80080FF06C080E0DF
:104D600008952091E80022FD1AC080911205882341
:104D700089F0853089F08091EB0085FD0FC020918E
:104D8000E4003091E50042175307F9F29150E1F643
:104D900084E0089582E0089583E0089581E0089515
:104DA0000E943E270E944627E0EEF0E0808181606D
:104DB0008083E8EDF0E080818F77808319BCA7EDD8
:104DC000B0E08C918E7F8C9380818F7E8083109257
:104DD000110508950F931F93CF93DF930E943E27F1
:104DE0000E944627C8EDD0E088818F77888388812C
:104DF0008068888388818F7D888319BC1092120512
:104E000010920E051092100510920F0500EE10E0A2
:104E1000F80180818B7F808388818160888342E074
:104E200060E080E00E944C26E1EEF0E080818E7F21
:104E30008083E2EEF0E08081816080838081886001
:104E40008083F80180818E7F808388818061888360
:104E5000DF91CF911F910F910895E8EDF0E08081EF
:104E60008F7E8083E7EDF0E080818160808384E045
:104E700082BF81E0809311050C94EA26E8EDF0E012
:104E800080818E7F80831092E20008951092DA0074
:104E90001092E10008951F920F920FB60F92112405
:104EA0002F933F934F935F936F937F938F939F9332
:104EB000AF93BF93EF93FF938091E10082FF0BC00C
:104EC0008091E20082FF07C08091E1008B7F809398
:104ED000E1000E94B5298091DA0080FF19C080911D
:104EE000D80080FF15C08091DA008E7F8093DA00B1
:104EF0008091D90080FF96C080E189BD82E189BDA3
:104F000009B400FEFDCF81E0809312050E94B52315
:104F10008091E10080FF19C08091E20080FF15C000
:104F20008091E2008E7F8093E2008091E2008061B8
:104F30008093E2008091D80080628093D80019BCF1
:104F400085E0809312050E94C7238091E10084FFD1
:104F50002BC08091E20084FF27C080E189BD82E1FF
:104F600089BD89B5982F917080FFFBCF8091D800C3
:104F70008F7D8093D8008091E1008F7E8093E10047
:104F80008091E2008F7E8093E2008091E200816058
:104F90008093E20080910E05882309F449C084E0E3
:104FA000809312050E94C8238091E10083FF29C0ED
:104FB0008091E20083FF25C08091E100877F80938C
:104FC000E10082E08093120510920E058091E100CD
:104FD0008E7F8093E1008091E2008E7F8093E200DB
:104FE0008091E20080618093E20042E060E080E036
:104FF0000E944C268091F00088608093F0000E940F
:10500000C623FF91EF91BF91AF919F918F917F91B7
:105010006F915F914F913F912F910F900FBE0F9025
:105020001F90189519BC109212050E94C32370CFCF
:105030008091E30087FD93E090931205B3CF1F9218
:105040000F920FB60F9211242F933F934F935F93BC
:105050006F937F938F939F93AF93BF93CF93DF9380
:10506000EF93FF93D091E900DF708091EC00C82F9F
:10507000C17080FDC0E81092E9008091F000877F48
:105080008093F00078940E9463281092E900809148
:10509000F00088608093F000CD2BCF70C093E900C2
:1050A000FF91EF91DF91CF91BF91AF919F918F9140
:1050B0007F916F915F914F913F912F910F900FBE14
:1050C0000F901F9018951F93CF93DF93CDB7DEB746
:1050D000AA970FB6F894DEBF0FBECDBF83E195E06F
:1050E0002091F100FC012193CF01F5E08B319F0766
:1050F000B9F70E94D4238091E80083FF1EC18091FC
:105100001305909114059A3008F017C1E92FF0E0CB
:10511000E058F44D0C94452A803899F0823809F013
:105120000CC1809117058F70873008F006C18093FD
:10513000E9008091EB0085FB882780F91092E90057
:1051400006C080910F059091100591118260909199
:10515000E800977F9093E8008093F1001092F100AF
:105160008091E8008E77E5C0882309F4D3C08230AF
:1051700009F0E3C0809115058111D6C08091170513
:105180008F702FEF280F263008F0D7C08093E900EA
:105190002091EB0020FFC8C0933031F48091EB00E8
:1051A00080628093EB00C0C09091EB00906190937F
:1051B000EB0021E030E001C0220F8A95EAF720934E
:1051C000EA001092EA008091EB008860EACF81113A
:1051D000B4C0109115051F778091E3008078812B72
:1051E0008093E3008091E800877F8093E8000E942D
:1051F00080268091E80080FFFCCF8091E3008068EA
:105200008093E30082E0111183E08093120595C042
:105210008058823008F091C0809115059091160554
:105220008C3D23E09207A1F583E08A838AE289839B
:105230004FB7F894DE01139620E03EE051E2E32FF1
:10524000F0E050935700E49120FF03C0E295EF7027
:105250003F5FEF708E2F90E0EA30C0F0C7968D93DD
:105260009D932F5F243159F74FBF8091E800877FCE
:105270008093E8006AE270E0CE0101960E948F25DB
:105280008091E8008B778093E80057C0C096E7CF05
:105290006091170570911805AE014F5F5F4F0E9436
:1052A000CA24BC01892B09F448C09091E800977F7B
:1052B0009093E80089819A810E94ED25E1CF8038A2
:1052C000E1F58091E800877F8093E80080910E05EA
:1052D0008093F10045CF811130C090911505923037
:1052E00060F58091E800877F8093E80090930E0539
:1052F0000E94802680910E05882311F084E005C06D
:105300008091E30087FDFACF81E0809312050E942F
:10531000CA2313C080911505813079F481E0933060
:1053200009F080E0809310051092E9008091E80078
:10533000877F8093E8000E9480268091E80083FFA9
:105340000AC08091E800877F8093E8008091EB009D
:1053500080628093EB00AA960FB6F894DEBF0FBE72
:10536000CDBFDF91CF911F9108950895CF93809184
:1053700012058823A1F0C091E900CF709091EC0054
:10538000892F817090FD80E8C82B1092E9008091F0
:10539000E80083FD0E946328CF70C093E900CF919D
:1053A0000895DB018F939F930E94692ABF91AF916B
:1053B000A29F800D911DA39F900DB29F900D11246F
:1053C0000895991B79E004C0991F961708F0961B61
:1053D000881F7A95C9F78095089587FB082E0626C1
:1053E00087FD819567FD61950E94E1290EF49195F5
:1053F00007FC81950895AA1BBB1B51E107C0AA1F9A
:10540000BB1FA617B70710F0A61BB70B881F991F65
:105410005A95A9F780959095BC01CD01089597FB09
:10542000072E16F4009407D077FD09D00E94FB29BF
:1054300007FC05D03EF4909581959F4F0895709597
:1054400061957F4F0895A1E21A2EAA1BBB1BFD0197
:105450000DC0AA1FBB1FEE1FFF1FA217B307E40753
:10546000F50720F0A21BB30BE40BF50B661F771FAB
:10547000881F991F1A9469F760957095809590958B
:105480009B01AC01BD01CF010895EE0FFF1F0590F8
:10549000F491E02D09940E94532A332312F48A1BBD
:1054A0009B0B0C94642AA29FB001B39FC001A39FE1
:1054B000700D811D1124911DB29F700D811D11244D
:1054C000911D08950E94532AB7FF0895821B930BE4
:1054D00008950E94532AA59F900DB49F900DA49FFC
:1054E000800D911D11240895B7FF0C94692A0E9424
:1054F000692A821B930B08958F929F92AF92BF925D
:10550000CF92DF92EF92FF92CF93DF93EC0168810D
:1055100079818A819B81611571058105910521F44D
:1055200064E279ED8BE597E02DE133EF41E050E067
:105530000E942D2B49015A019B01AC01A7EAB1E45D
:105540000E94692A6B017C01ACEEB4EFA5019401C5
:105550000E94772ADC01CB018C0D9D1DAE1DBF1D65
:10556000B7FF03C00197A109B04888839983AA8334
:10557000BB839F77DF91CF91FF90EF90DF90CF902B
:10558000BF90AF909F908F9008950E947C2A0895BD
:1055900080E091E00E947C2A0895B0E0A0E0809332
:1055A000000190930101A0930201B09303010895BB
:1055B000FC014150504030F001900616D1F7319770
:1055C000CF010895882799270895F999FECF92BDB4
:1055D00081BDF89A992780B50895A6E1B0E044E02E
:1055E00050E00C941F2BA8E1B0E042E050E00C9496
:1055F0001F2B262FF999FECF92BD81BDF89A0197F6
:1056000000B4021639F01FBA20BD0FB6F894FA9A0A
:10561000F99A0FBE08950396272F0E94FA2A0E9436
:10562000F92A252F0E94FA2A242F0C94FA2A01968F
:10563000272F0E94FA2A0C94F92ADC01CB01FC01E5
:10564000F999FECF06C0F2BDE1BDF89A319600B4DB
:105650000D9241505040B8F70895052E97FB1EF467
:1056600000940E94442B57FD07D00E94232A07FC78
:1056700003D04EF40C94442B5095409530952195D1
:105680003F4F4F4F5F4F089590958095709561956E
:105690007F4F8F4F9F4F0895F894FFCFFF11071250
:1056A0000E12131218121D12221227122C1231126E
:1056B00036123B123F12441247124A124D12501238
:1056C000521255128C188C18E418E418B918B9182D
:1056D000B918B9183619C219D119D1192D1AB91812
:1056E000B918361A9F1A9F1AA81AA81AAA1AA81A1D
:1056F000A81AA81A9F1A9F1AAF1AA81AA81AAF1A9E
:105700008C28B4289D29B4289D29E72808299D299B
:045710005F296B2979
:1057140001000000010102005500555501191A1B32
:105724001C1D1E1F202122A6036F237423722373C2
:1057340023B42301F6F5F4F1C695939291909496CF
:1057440097343530336736660001020202020606DA
:10575400060909090909090F0F0F0F0F0F15151570
:10576400181919191919191919191923242525256D
:0457740025252500C2
:00000001FF
