:100000000C94DD040C9424050C9424050C94240514
:100010000C9424050C9424050C9424050C942405BC
:100020000C9424050C9424050C940E240C94E224C6
:100030000C94671F0C9424050C9424050C9424053F
:100040000C9424050C9424050C9424050C9424058C
:100050000C9424050C94B21F0C9424050C942405D4
:100060000C9424050C9424050C9424050C9424056C
:100070000C9424050C9424050C9424050C9424055C
:100080000C9424050C9424050C9424050C9424054C
:100090000C9424050C9424050C9424050C9424053C
:1000A0000C9424050C9424050C94240529001400B8
:1000B0001A000800150017001C0018000C001200A0
:1000C00013002A002B0004001600070009000A0094
:1000D0000B000D000E000F0033003400E1001D0086
:1000E0001B00060019000500110010003600520028
:1000F000380028003600E000E200E3002C002C006D
:1001000000002C00500051004F00015101003A0046
:100110003B003C003D003E003F00400041004200EB
:100120004300010001001E001F00200021002200EA
:100130002300240025002600270001000100010003
:1001400001000100010001000100010001000100A7
:1001500001000100005C010001000100010001003C
:100160000000010001000100010001000100010088
:100170000100010001000100010001000100010077
:100180000100010001000100010001000100010067
:100190000100010001000100010001000100010057
:1001A0000100010001000100010001000100010047
:1001B0000100010001000100010001000100010037
:1001C0000000010001000100010001000100010028
:1001D0000100010001000100010001000100010017
:1001E0000100010001000100010001000100010007
:1001F00001000100010001000100010001000100F7
:1002000001000100010001000100010001000100E6
:1002100001000100010001000100010001000100D6
:1002200000000100010001000100010001000100C7
:1002300001000100010001000100010001000100B6
:1002400001000100010001000100010001000100A6
:100250000100010001000100010001000100010096
:100260000100010001000100010001000100010086
:100270000100010001000100010001000100010076
:100280000000010001000100010001000100010067
:100290000100010001000100010001000100010056
:1002A0000100010001000100010001000100010046
:1002B0000100010001000100010001000100010036
:1002C0000100010001000100010001000100010026
:1002D0000100010001000100010001000100010016
:1002E0000000010001000100010001000100010007
:1002F00001000100010001000100010001000100F6
:1003000001000100010001000100010001000100E5
:1003100001000100010001000100010001000100D5
:1003200001000100010001000100010001000100C5
:1003300001000100010001000100010001000100B5
:1003400000000100010001000100010001000100A6
:100350000100010001000100010001000100010095
:100360000100010001000100010001000100010085
:100370000100010001000100010001000100010075
:100380000100010001000100010001000100010065
:100390000100010001000100010001000100010055
:1003A0000000010001000100010001000100010046
:1003B0000100010001000100010001000100010035
:1003C0000100010001000100010001000100010025
:1003D0000100010001000100010001000100010015
:1003E0000100010001000100010001000100010005
:1003F00001000100010001000100010001000100F5
:1004000000000100010001000100010001000100E5
:1004100001000100010001000100010001000100D4
:1004200001000100010001000100010001000100C4
:1004300001000100010001000100010001000100B4
:1004400001000100010001000100010001000100A4
:100450000100010001000100010001000100010094
:100460000000010001000100010001000100010085
:100470000100010001000100010001000100010074
:100480000100010001000100010001000100010064
:100490000100010001000100010001000100010054
:1004A0000100010001000100010001000100010044
:1004B0000100010001000100010001000100010034
:1004C0000000010001000100010001000100010025
:1004D0000100010001000100010001000100010014
:1004E0000100010001000100010001000100010004
:1004F00001000100010001000100010001000100F4
:1005000001000100010001000100010001000100E3
:1005100001000100010001000100010001000100D3
:1005200000000100010001000100010001000100C4
:1005300001000100010001000100010001000100B3
:1005400001000100010001000100010001000100A3
:100550000100010001000100010001000100010093
:100560000100010001000100010001000100010083
:100570000100010001000100010001000100010073
:100580000000010001000100010001000100010064
:100590000100010001000100010001000100010053
:1005A0000100010001000100010001000100010043
:1005B0000100010001000100010001000100010033
:1005C0000100010001000100010001000100010023
:1005D0000100010001000100010001000100010013
:1005E0000000010001000100010001000100010004
:1005F00001000100010001000100010001000100F3
:1006000001000100010001000100010001000100E2
:1006100001000100010001000100010001000100D2
:1006200001000100010001000100010001000100C2
:1006300001000100010001000100010001000100B2
:1006400000000100010001000100010001000100A3
:100650000100010001000100010001000100010092
:100660000100010001000100010001000100010082
:100670000100010001000100010001000100010072
:100680000100010001000100010001000100010062
:100690000100010001000100010001000100010052
:1006A00000000100010001000100010032190A00F0
:1006B000047F3F1F643214643214783C1E1E140AF7
:1006C000052223252628292A2C2D2F303233353692
:1006D000383A3B3D3E4042434547494A4C4E5051D3
:1006E000535557595A5C5E6062646668696B6D6FFA
:1006F00071737577797B7D7F81838587898A8C8EFD
:1007000090929496989A9C9E9FA1A3A5A7A8AAAC04
:10071000AEAFB1B3B4B6B8B9BBBCBEBFC1C2C3C53E
:10072000C6C7C9CACBCCCDCED0D1D2D2D3D4D5D6E0
:10073000D7D7D8D9D9DADADBDBDBDCDCDCDCDCDD13
:10074000DDDDDDDCDCDCDCDCDBDBDBDADAD9D9D8F7
:10075000D7D7D6D5D4D3D2D2D1D0CECDCCCBCAC98F
:10076000C7C6C5C3C2C1BFBEBCBBB9B8B6B4B3B1BE
:10077000AFAEACAAA8A7A5A3A19F9E9C9A98969459
:1007800092908E8C8A89878583817F7D7B7977752E
:1007900073716F6D6B6968666462605E5C5A59570D
:1007A000555351504E4C4A4947454342403E3D3BCC
:1007B0003A3836353332302F2D2C2A292826252356
:1007C00022FFAA7F55400001010101010101010141
:1007D00002020202020202020203030303030303F2
:1007E00003040404040404040505050505060606BF
:1007F0000606070707070708080808090909090A7C
:100800000A0A0B0B0B0C0C0C0D0D0D0E0E0E0F0F20
:100810000F101011111112121313141415151616AE
:100820001717181819191A1A1B1B1C1D1D1E1E1F1D
:100830002020212222232424252626272829292A6C
:100840002B2C2D2D2E2F3031323233343536373894
:10085000393A3B3C3D3E3F40414243444546474890
:10086000494A4C4D4E4F50515354555658595A5B66
:100870005D5E5F616264656668696B6C6D6F707206
:10088000737577787A7B7D7E8082838587888A8C72
:100890008E8F91939596989A9C9EA0A2A3A5A7A9A6
:1008A000ABADAFB1B3B5B7BABCBEC0C2C4C6C9CB9D
:1008B000CDCFD1D4D6D8DBDDDFE2E4E7E9EBEEF053
:1008C000F3F5F8FAFDFF04033000000010035100B7
:1008D0007500610072006B003400300000000E03F0
:1008E00064007A007400650063006800000004037F
:1008F000090409023B00020100A0FA0904000001FA
:1009000003010100092111010001224000070581B6
:100910000308000A09040100010300000009211175
:10092000010001223B000705820320000A1201108A
:100930000100000008EDFE606001000102030105F6
:10094000010906A1018505050719E029E71500251C
:10095000019508750181020507190029EF15002589
:100960000195F075018102050819012905950575A4
:10097000019102950175039101C005010906A101CC
:10098000050719E029E71500250195087501810281
:100990009501750881010507190029FF150026FF3B
:1009A000009506750881000508190129059505754A
:1009B000019102950175039101C011241FBECFEF73
:1009C000DAE0DEBFCDBF04B603FE27C08091CC03C2
:1009D0009091CD03A091CE03B091CF038730904B7F
:1009E000A740B04BD1F41092CC031092CD031092DB
:1009F000CE031092CF0314BE84B7877F84BF0FB697
:100A0000F894A895809160008861809360001092AE
:100A100060000FBEE0E0F8E3099511E0A0E0B1E06E
:100A2000EAE7F0E502C005900D92A036B107D9F7CC
:100A300023E0A0E6B1E001C01D92AC3CB207E1F7B3
:100A40000E944E210C94FF270C94000090E080E05F
:100A500008950895089581E00895089581E0089526
:100A60000C942B0508950C9432051F93CF93DF93BC
:100A700000D000D00F92CDB7DEB749835A836B8385
:100A800030916D0289819A8131111DC06623B9F0C0
:100A90002223A9F00E944E1C182F682F89819A8169
:100AA0000E94FA1B69817A81812F0F900F900F901D
:100AB0000F900F90DF91CF911F910C94E9050E9448
:100AC000261C182FEFCF0E944E1C69817A81EDCF32
:100AD000FC01262F408151816281738184810C94B5
:100AE0003505CF93DF93EC0160E00E946805BE01FD
:100AF000DF91CF910C9433050E94FC1F0E94981D3A
:100B0000811102C00E94351E0C94D2070C94D407A8
:100B100008950E9461170E9488052FEF84E39CE0EE
:100B2000215080409040E1F700C000000C94D61F97
:100B30000F931F93CF93DF93EC0161E00E94680550
:100B40008C01BE010E943005882359F1BE01C80105
:100B50000E945211882329F1BE01C8010E94A411EC
:100B60008823F9F0BE01C8010E94C7128823C9F08A
:100B7000BE01C8010E942B10882399F08A81882326
:100B800039F001158CE5180751F00E3D1C4579F040
:100B9000CE01DF91CF911F910F910C942E050E94F1
:100BA000890580E0DF91CF911F910F9108950E94F8
:100BB000351EF7CF0C942D0581E008950C94DC05CB
:100BC000CF93C82F0E94DA058C2FCF910C94DE05AD
:100BD0000895972F70E02CE0929F600D711D1124F5
:100BE000FB0190E3899FE00DF11D1124EE0FFF1F23
:100BF000E455FF4F859194910895FC01EE0FFF1F7E
:100C0000E455F94F859194910895CF93DF930E9415
:100C1000E9050E94F806EC01811521E59207D0F55F
:100C2000811530E5930708F096C081159042F8F4DD
:100C3000C11581E0D807B8F4C03ED10588F4C03CA6
:100C4000D10508F07BC0C130D10569F0209759F07B
:100C5000CE010497813A910530F0D0E0C0E003C0A6
:100C6000C83ED105D0F7CE01DF91CF910895C115CF
:100C700090E4D90708F06CC0CE019F70C11520E345
:100C8000D20708F45EC0CE019927D3FF5EC0EC0105
:100C9000D86CE9CF811535E5930700F5811544E55A
:100CA000940708F08DC0C11583E5D80708F074C01B
:100CB000C11592E5D90708F46AC0CE01837099275F
:100CC00021E030E002C0220F331F8A95E2F7C6957B
:100CD000C69580E2C89FE001112455C0811529E521
:100CE0009207A0F4811538E5930708F06EC08115CE
:100CF00046E5940708F0B1CF0E948F07C82FD0E0D7
:100D0000DC2FCC27CC27DF71D062ADCFC1158AE5AF
:100D1000D80708F45FC0CE0190568115904208F0C4
:100D20009CCF8D2F8F710E948F0790E0982F88277E
:100D300088279F719C012C2BE901E6CFCE01805CB6
:100D400091090E94FD05EC018ECFEC01D06C8BCF98
:100D5000DF70D06A88CFE4E096958795EA95E1F751
:100D600083702C2F26952695237040E2249F9001B6
:100D70001124382B8C2F8370C1E0D0E002C0CC0F3F
:100D8000DD1F8A95E2F7C22BD32BDC686CCFDC2FFA
:100D9000CC27C16FD06A67CFCE018370992721E03D
:100DA00030E002C0220F331F8A95E2F7C695C69540
:100DB00090E2C99FE0011124C22BD32BDA6853CFF4
:100DC000D82FCC27C46FD06A4ECFD82FCC27C06F76
:100DD000D06A49CF8C2F8F700E948F0734E0D69550
:100DE000C7953A95E1F7CF709C2FEC01D0693BCFC6
:100DF00082389105B1F1B0F48133910509F475C0E1
:100E000048F48932910509F469C08A32910509F4E0
:100E100073C008958533910509F459C0893391054C
:100E200001F10895833E9105A9F138F4803E9105C2
:100E3000F9F0823E910549F10895863E9105A9F1A8
:100E4000873E9105C9F1843E910519F52091BE03B5
:100E500021FF1FC08091BD0384FD14C087EE90E088
:100E600008952091BD032370A1F080EE90E00895D5
:100E70002091BD0320FD47C03091BE0330FF09C063
:100E800024FF44C090E080E004C02091BD0322FD17
:100E9000F7CF08952091BD0322FD3BC03091BE03E2
:100EA00030FDE3CF24FFF5CFEDCF2091BD0323FF2D
:100EB000F0CF24FDE7CFD2CF2091BD0323FD2CC07E
:100EC0003091BE0331FFEECF84EE90E00895209183
:100ED000BD0325FFDECF89E290E008952091BD0398
:100EE00025FFD7CF85E390E008952091BD0326FF2D
:100EF000D0CF8AE290E008952091BD0326FFC9CFAC
:100F000081E390E0089589E390E0089583EE90E016
:100F1000089582EE90E0089586EE90E00895909115
:100F2000BD0392FF06C0282F28712830F9F4877F6F
:100F3000846093FF06C0282F28712831F1F4877E42
:100F400084612091BE0320FF06C0382F38713830ED
:100F5000D9F4877F816021FF06C0282F28712831AE
:100F6000D1F4877E816194FD877E0895282F2471B6
:100F70002430F9F68B7F8860DCCF282F2471243150
:100F800001F78B7E8861DDCF382F3171313019F751
:100F90008E7F8860E0CF282F2171213121F78E7E4E
:100FA0008861E1CF0C9429050C942A05E82FF0E024
:100FB000EE0FFF1FE15EFC4F80819181089508953F
:100FC00080EA8A95F1F70895CF93DF93A0E3B1E02B
:100FD00044E351E0C1E0D0E08D91E82FE295EF705D
:100FE000F0E061A18F709E0101C0220F8A95EAF79F
:100FF000922F9095962391A382A1822B82A34A17C8
:101000005B0751F7A4E2B1E040E351E0C1E0D0E07A
:101010008D91E82FE295EF70F0E061A18F709E0155
:1010200001C0220F8A95EAF7922F9095962391A3FB
:1010300082A1822B82A34A175B0751F710921803F3
:10104000109217031092200310921F0310921A039C
:1010500010921903109222031092210310921C0384
:1010600010921B03109224031092230310921E036C
:1010700010921D03109226031092250384E00E9413
:10108000CC08DF91CF910C947C058F929F92AF9208
:10109000BF92CF92DF92EF92FF920F931F93CF9365
:1010A000DF9380E3E82E81E0F82E07E113E0912C36
:1010B000AA24A394B12CF70181917F01C82FC29576
:1010C000CF70D0E099A18F70650101C0CC0C8A95DA
:1010D000EAF7892F8C2989A38AA18C2C80948821F6
:1010E0008AA30E94E007E4E2F1E050E040E030E053
:1010F00020E06191A62FA295AF70B0E090968C9100
:1011000090E06F7002C0959587956A95E2F780FD33
:101110003EC0C501042E02C0880F991F0A94E2F751
:10112000282B392B4F5F5F4F4C30510511F789A1A8
:10113000882289A28AA1C82ACAA2F8018081918145
:101140002817390739F13183208381E0982A0E5F0F
:101150001F4FF4E3EF16F1E0FF0609F0ACCF292DA5
:1011600044E06FE173E087E193E00E94CD080E94C4
:101170008605892DDF91CF911F910F91FF90EF9000
:10118000DF90CF90BF90AF909F908F90089590E0A8
:1011900080E0C6CF80E0DACF0895FF920F931F93CF
:1011A000CF93DF93F82E092F162FD72FC42F22238A
:1011B00049F081E0809362010E94971F9093610142
:1011C00080936001809162018823A1F08091600189
:1011D000909161010E94A31F069760F0EF2DF02F00
:1011E000A12FBD2F90E080E0D0E08C179D0744F048
:1011F00010926201DF91CF911F910F91FF9008959E
:10120000219131912D933D930196EFCFEF92FF9273
:101210000F931F93CF93DF93EB01E82FD11110C0F1
:10122000442321F0F0E0EA53F84FE4916E2F7E2F33
:101230008E2FDF91CF911F910F91FF90EF90089526
:101240000D2F10E0282F30E0442329F02A53384F87
:10125000F901249130E0F6E0CF9FC0011124EFEFB7
:10126000F0E0BF010E94AE26AB018C2F90E0880F0A
:10127000991FA5E5A49FB001A59F700D1124861BA1
:10128000970B982F990F980FBF01601B710B629FEE
:10129000D001639FB00D729FB00D11248B2F9D9FC5
:1012A000B0011124672F7727EF01C61BD70BBE01B2
:1012B000629FE001639FD00D729FD00D11247F01CA
:1012C000E91AF108E09EB001E19E700DF09E700DEC
:1012D0001124672F7727E61BF70BE29F8001E39F1E
:1012E000100DF29F100D1124E12F722F4230510585
:1012F00099F048F44115510569F04130510581F0EC
:10130000EB2F8D2F07C04430510569F080F0463037
:101310005105B1F76E2F8DCFE22F7B2F812FFACFA2
:10132000E22F7D2FF7CFEB2F822F712FF3CF7B2F63
:10133000822FED2FEFCF41E00C9406090895CF9353
:10134000DF93762FE901682F842F0E949B09798310
:1013500068838A83DF91CF910895433308F042E395
:101360000C949F0980912703982F9E7F61F48170D0
:1013700082608093270380912A03833318F082E3ED
:1013800080932A0308958635B0F381708465F1CF88
:1013900088E090E00C94A027CF92DF92EF92FF922A
:1013A0006B017C010E94B209B701A60188E090E0C0
:1013B000FF90EF90DF90CF900C94BE27E7E2F3E030
:1013C00081E1808311828FEF828382E383831482A1
:1013D00060817181828193810C94CC098091270373
:1013E00080FF02C08695089580E0089590912B03B8
:1013F000933018F49F5F90932B03882351F06091F2
:101400002703709128038091290390912A030C945B
:10141000CC09089581E00C94F60990912B0399234F
:1014200019F0915090932B03882351F0609127037A
:10143000709128038091290390912A030C94CC0980
:10144000089581E00C940D0A70E00C949B1060915B
:1014500008018091270380FF0AC08091070123E0E3
:10146000829FC0011124845D9C4F0C94240A8091BA
:10147000090190910A0123E0829FF0011124E45DAB
:10148000FC4F891750F71182108212828F5F3396BA
:10149000F8CF9091270390FF14C0909109012091FB
:1014A0000A0133E0939FF0011124E45DFC4F921791
:1014B00010F00C94270A8183608342839F5F3396E8
:1014C000F6CF0895CF93DF9300D00F92CDB7DEB75C
:1014D0009091270390FF0AC09E012F5F3F4F0E940B
:1014E000AD094B8169818A810E94490A0F900F9052
:1014F0000F90DF91CF910895CF93DF93EC01EC81B2
:10150000F0E0EF53F94F4491E7E2F3E0628181812B
:101510000E94620A8C818F5F8C83DF91CF91089546
:10152000CF93DF93EC01E7E2F3E0438162818C81AA
:101530000E94620A8C818F5F8C83DF91CF91089526
:101540000F931F93CF93DF9300D00F92CDB7DEB7E9
:101550008C018091630181110AC09E012F5F3F4F72
:1015600042E36FEF0E94AD098A8180936301F80125
:101570006481613069F08091630140E0662361F02D
:1015800040E0623011F44091630180E060E004C00B
:101590006091630140E080E00E94490AF801848183
:1015A00090E0019663E070E00E94C22684830F9071
:1015B0000F900F90DF91CF911F910F910895AF92EF
:1015C000BF92CF92DF92EF92FF920F931F93CF9330
:1015D000DF9300D00F92CDB7DEB7182FF62E042F71
:1015E000E22E9091270390FF29C0E92FE695AE2FB8
:1015F000B0E0AC5CBE4F8C91809358029E7F9230DD
:1016000059F59E012F5F3F4F812F0E94AD094B81FD
:1016100069818A810E94490A10932803F092290364
:1016200000932A03EE2051F0609127037091280364
:101630008091290390912A030E94CC090F900F906A
:101640000F90DF91CF911F910F91FF90EF90DF905E
:10165000CF90BF90AF900895823019F400912A0383
:10166000DBCF863019F410912803D6CF8930D9F317
:10167000893191F6E9518E2F8170D82EE695F0E0F0
:10168000EF53F84FA590B490C12CBB2460910B018F
:10169000C61618F00E94270ABFCF2C2D30E0A29E5C
:1016A000C001A39E900DB29E900D112470E00E9487
:1016B000AE26812FD11013C0860F40910901420F31
:1016C000532F511D9A01220F331F240F351F245D04
:1016D0003C4F402F6F2D0E94AD09C394D7CF861B7E
:1016E000ECCFE7E2F3E09181282F4381628188E02B
:1016F000890F0C94DF0A81E00C94710BE7E2F3E0B0
:101700009181282F4381628188EF890F0C94DF0A31
:1017100081E00C947E0BE7E2F3E0628128E0620F47
:1017200008F46FEF282F438181810C94DF0A81E058
:101730000C948B0BE7E2F3E0628128E0621B08F473
:1017400060E0282F438181810C94DF0A81E00C94B2
:101750009A0BE7E2F3E0438128E0420F08F44FEFF1
:10176000282F628181810C94DF0A81E00C94A90BFF
:10177000E7E2F3E0438128E0421B08F440E0282F31
:10178000628181810C94DF0A81E00C94B80B20E027
:101790000C94DF0AEF92FF921F93CF93DF93EC013B
:1017A00010E0EE24EA94F12C60910B01161770F012
:1017B0000E94270A9A818C8190FF27C08F5F8C83BB
:1017C000DF91CF911F91FF90EF9008952091090133
:1017D000422F410F5527551FCA019A01220F331F6F
:1017E000280F391F245D3C4F70E0C7010E94C226BC
:1017F000962F8C8140912A0360912903199F800DB7
:1018000011240E94AD091F5FCFCF8150D8CFAF9276
:10181000BF92CF92DF92EF92FF920F931F93CF93DD
:10182000DF93FC0182810FEF80FF01E010E04FE2C7
:10183000A42E80910B011817C8F00E94270A8091EE
:101840006501013009F055C0811102C080910B0182
:10185000815080936501DF91CF911F910F91FF908F
:10186000EF90DF90CF90BF90AF900895C0910901A5
:10187000C12ED12CCC0DDD2DD11DCE01880F991F8D
:10188000C80FD91FC45DDC4F198218821A8234E058
:10189000E32EF12CB12C809165018B0D80331CF16E
:1018A0006A2D0E94A026892F082E000C990BC816BD
:1018B000D90691F480912A038E9DA0018F9D500D31
:1018C000112455954795559547959E01609129039B
:1018D000809128030E94AD09B00EF1E0EF1AF108E3
:1018E000D1F61F5FA6CF87FFDFCF90910B01890F45
:1018F000DBCF90E0019660910B0170E00E94C22660
:10190000A8CF0F931F93CF93DF93809109019091FC
:101910000A0123E0829FF0011124E45DFC4F891746
:1019200040F1C0E0D3E060910B01C61740F10E9486
:10193000270A2091050180916401820F8093640140
:1019400090910601920F90930601191654F4082EF7
:10195000000C990B40910B014150550B84179507D2
:101960001CF0219520930501DF91CF911F910F91DC
:1019700008951182108212828F5F3396D0CF0C2F80
:1019800010E070E0C8010E94C22620910901820F78
:10199000482F50E020916401022E000C330B0217F7
:1019A0001307BCF020910601022E000C330B201708
:1019B00031077CF08D9F90011124245D3C4F4091B4
:1019C0002A0360912903809128030E94AD09CF5F0B
:1019D000AACFFA01EE0FFF1FE40FF51FE45DFC4FE5
:1019E000118210821282F3CF8F929F92AF92BF9298
:1019F000CF92DF92EF92FF920F931F93CF93DF93DB
:101A0000EC014C81042F10E09801D8010E940627B8
:101A10009B01AC010E941C274B015C01E0E2F0E05D
:101A2000E01BF10BA5E5B0E0AC019B010E941C2777
:101A30006B017C019F01DF010E94FE269B01AC012E
:101A40000E9427279B01AC01280D391D4A1D5B1DF3
:101A5000C701B6010E94D626F22E822F90E039E20D
:101A60003F1560F143E0249F90011124359527959F
:101A7000122F109500E085E5E82EEF1880910B01FC
:101A8000081758F10E94270A9C8181E0992319F0D8
:101A9000903219F48FEF8093040180910401890F33
:101AA0008C83DF91CF911F910F91FF90EF90DF908A
:101AB000CF90BF90AF909F908F90089525E530E034
:101AC000B901681B790B9B01220F331F260F371FAB
:101AD00037FFCCCF2F5F3F4FC9CF8E2D01FD8F2D0C
:101AE00020910901622F600F7727771F9B01220F3A
:101AF000331F260F371F245D3C4F412F6091290370
:101B00000E94AD090F5FBACF0F931F93CF93DF935E
:101B1000EC0110E000E090910B019017110609F024
:101B20006CF40E94270A8C8190E0019681709927BD
:101B30008C83DF91CF911F910F910895209109011E
:101B4000A801420F511D9A01220F331F240F351F88
:101B5000245D3C4F4C816091290380912803969528
:101B60009017110651F04CF0442349F040912A039C
:101B70000E94AD090F5F1F4FCECF4423B9F340E061
:101B8000F7CF8F929F92AF92BF92CF92DF92EF9258
:101B9000FF920F931F93CF93DF93FC01B280948049
:101BA00081E0848300E015E05BE4A52E8824839423
:101BB000EE24EA94F12C7BE4C72ED12C80910B010A
:101BC000081770F0DF91CF911F910F91FF90EF9068
:101BD000DF90CF90BF90AF909F908F900C94270A8A
:101BE000C02FD0E01C9FF0011D9FF00D1124EA5979
:101BF000FE4F91101CC01382128220910901CE0168
:101C0000820F911D9C01220F331F280F391F245D65
:101C10003C4F1C9FF0011D9FF00D1124EA59FE4F0F
:101C20004281618180810E94AD090F5FC7CF23810E
:101C3000222379F12150238334818A2D821B311193
:101C400001C0822F1C9FF0011D9FF00D1124EA5945
:101C5000FE4F90912A03899FC0011124B6010E9472
:101C6000AE266283211104C0332311F01482A382B3
:101C700022E02B1510F21C9FF0011D9FF00D112486
:101C8000EA59FE4F80912803808380912903818344
:101C9000B4CF0E947B27823091400CF0AECF82E01F
:101CA0008B1530F50E947B27B7010E94C2261C9F2E
:101CB000F0011D9FF00D1124EA59FE4F808322E0B0
:101CC0002B15C8F40E947B27209129032695622FAB
:101CD00070E00E94C226280F1C9FF0011D9FF00D8E
:101CE0001124EA59FE4F21831282A382848285CF78
:101CF00080912803DCCF20912903EECFE7E2F3E0C7
:101D000080818E7F808360817181828193810E9436
:101D1000CC09109259022FEF80E792E021508040C9
:101D20009040E1F700C000000C94270AE7E2F3E0DE
:101D300080818E7F8083109259022FEF80E792E09E
:101D4000215080409040E1F700C000000C94270A29
:101D500060912703669570E04BE050E08CE091E0E5
:101D60000E948B27892B19F481E0809359020E94ED
:101D7000971F9093520280935102089590912703E8
:101D800090FF35C09170811128C092609093270315
:101D9000662351F0609127037091280380912903F5
:101DA00090912A030E94CC0960912703669570E008
:101DB0004BE050E08CE091E00E948B27892BA1F052
:101DC0001092590281E08093540240912A0360915D
:101DD0002903809128030C94C70B8B3210F0946573
:101DE000D5CF880F982BD2CF0E94A80EEBCF0895A5
:101DF000682F90912703969581E0890F8B3208F028
:101E000081E00C94BE0E81E00C94F80E682F909146
:101E1000270396958FEF890F09F48AE20C94BE0E82
:101E200081E00C94060F61E00C94BE0EE7E2F3E053
:101E300080818160808386950C94130F80912703A5
:101E400080FD0C947E0E0C94160F60E00C94BE0E78
:101E50008091570281112EC00E94981D811104C0EB
:101E60000E94351E0E94DE090E94C8096093270364
:101E7000709328038093290390932A036E7F61F463
:101E80000E94DE090E94C80960932703709328030B
:101E90008093290390932A030E94B2091092590259
:101EA0008091270380FF03C086950E94250F81E063
:101EB000809357020895E7E2F3E080818160808398
:101EC00086950C94250F1092590208950F931F9335
:101ED000CF93DF9380915902882309F49DC08091AC
:101EE0005802E0912703E695E81BE0935302823005
:101EF000C9F5F0E0E354F94FE491CE2FD0E00CE7C0
:101F00001AE080915402882389F0109254020E94B2
:101F1000971F9E0120953095820F931F9093520238
:101F200080935102109256021092550280915102F4
:101F3000909152020E94A31F8C179D0708F46CC059
:101F4000E0915102F0915202CE0FDF1FD093520266
:101F5000C093510281E592E0F801DF91CF911F918A
:101F60000F910994863049F4F0E0E654F94FE4917A
:101F7000CE2FD0E000E91AE0C4CF893051F4E695C5
:101F8000F0E0E954F94FE491CE2FD0E00AEC1BE0E9
:101F9000B8CF8F3051F4E695F0E0EC54F94FE4916E
:101FA000CE2FD0E007E01CE0ACCF853149F4F0E063
:101FB000EF54F94FE491CE2FD0E001E81CE0A1CF1F
:101FC000C8E2D0E004EF1CE0883109F49ACF8332F4
:101FD00039F4EFEAF6E0C591D49100EA1AE091CF26
:101FE000C4EFD1E004E81DE0843209F48ACFC0EDEB
:101FF000D7E00EE919E0853209F083CF8E2F63E038
:102000000E949426E92FF0E0E455F94FE491CE2F99
:10201000D0E001EC1DE075CFDF91CF911F910F91C2
:102020000895FA01811101C0FB010994CF93DF9358
:10203000C82FD62F0E94EE098C1740F00E94EE099F
:102040008D1720F4DF91CF910C94030F8C2FDF912B
:10205000CF910C94130F0F931F93CF938C01FB011F
:10206000C281CC2309F465C00E94E31C8272F8018E
:10207000E25CFC45E431F10538F4EF5FF74D0C9478
:10208000F8260E941E0FC0E08C2FCF911F910F9158
:10209000089540E15FE063E07FE00E941110F3CF1C
:1020A00043E05FE060E17FE0F8CF48E85BE06BE7AA
:1020B0007BE0F3CF4BE75BE068E87BE0EECF46EAFE
:1020C0005BE067E97BE0E9CF47E95BE066EA7BE05C
:1020D000E4CF44EC5BE065EB7BE0DFCF45EB5BE01E
:1020E00064EC7BE0DACF41E25AE06AE07AE0D5CFF7
:1020F0004AE05AE061E27AE0D0CF81E00E94130F1B
:10210000C2CF65E082E00E941610BDCF68E086E095
:10211000FACF6EE089E0F7CF64E18FE0F4CF67E1BA
:1021200085E1F1CF88E1EACF62E289E1ECCF83E299
:10213000E5CFC1E0A9CF819A41B34D7F51B3526041
:10214000EFB7F8949B01220F331F260F371F280F7C
:10215000391F2817390741F4EFBF8FE594E0019745
:10216000F1F700C000000895DC016D91CD0178E029
:1021700051BB000000C067FF41BB660F000000C0FC
:1021800000C000C041BB00C07A9591F7E2CFAF928A
:10219000BF92CF92DF92EF92FF920F931F93CF9354
:1021A000DF937C015B01C42FD22FFC018281882345
:1021B000F9F040935C020E94971F90935B0280931A
:1021C0005A0280E28C0F883008F061C0C77081E04D
:1021D00001C0880FCA95EAF7DF91CF911F910F9147
:1021E000FF90EF90DF90CF90BF90AF900C941815B8
:1021F00010915C02141340C080915A0290915B02CE
:102200000E94A31F6C01B701C5010E94D719C8160F
:10221000D90690F5C0E2CD0F1D17B9F080E2810F0D
:10222000883040F4177081E001C0880F1A95EAF7F2
:102230000E941F15C83048F481E09D2F977001C09F
:10224000880F9A95EAF70E941815802F0E940515AD
:10225000C830E8F4D77081E001C0880FDA95EAF75A
:10226000DF91CF911F910F91FF90EF90DF90CF9072
:10227000BF90AF900C941F1580E28C0F883038F41B
:10228000C77081E001C0880FCA95EAF7E9CFDF91F6
:10229000CF911F910F91FF90EF90DF90CF90BF9063
:1022A000AF9008950F939C01CB01233F4CE5340779
:1022B00059F1A8F4283DFCE53F0701F1293D4CE523
:1022C0003407D1F1273D3C4591F406E221EE41EE81
:1022D00067ED7CE50E94C71080E00F910895253FCF
:1022E000FCE53F07E9F0B0F0263F3C45F9F0FC0182
:1022F0008281882339F110925C02EFCF07E225EE4C
:1023000045EE68ED7CE5E6CF06E221EE40EE63EFB8
:102310007CE5E0CF07E225EE44EE64EF7CE5DACF22
:1023200006E221EE42EE65EF7CE5D4CF07E225EE32
:1023300046EE66EF7CE5CECF08E221E045EE69EDA2
:102340007CE5C8CF81E0C9CFCF93DF93EC01FB01DF
:102350008281882309F419C1C230FCE5DF07C0F18E
:10236000C6319CE5D90730F09E012A5F3C452930F3
:10237000310570F50E94AB1D9093BE038093BD03A1
:10238000C031ECE5DE0709F4CFC008F05BC0C8300F
:102390008CE5D80709F4B6C088F5C430ECE5DE0753
:1023A00009F4A8C0C0F4C2308CE5D80709F49CC079
:1023B0008091BD038260C330DC4509F498C08091F0
:1023C000BD039091BE030E94B91D0E94611780E079
:1023D000DF91CF9108958091BD038061C630ECE517
:1023E000DE0709F484C08091BD038860C730DC45F6
:1023F00008F47DC08091BD03806279C0CC308CE54B
:10240000D80709F489C070F48091BD038C60CA308C
:10241000ECE5DE0709F46BC008F478C08091BD03D9
:102420008E7F65C0CE308CE5D80709F479C08091E5
:10243000BD038B7FCF30DC4508F459C08091BD03CC
:102440008F7E55C0CB3FECE5DE0709F457C030F571
:10245000C3318CE5D80709F46FC078F4C131ECE5DD
:10246000DE0709F465C0C231DC4509F0A8CF0E943F
:1024700061178091BD038F773AC0C5318CE5D807CD
:1024800009F462C008F476C08091BE038160CA3F3F
:10249000DC4509F094CF8093BE0391CFCF3FFCE59C
:1024A000DF0709F44DC088F48091BE038D7FCD3FD6
:1024B0009CE5D90781F38091BE038E7FCE3FDC453A
:1024C00050F38091BE038360E6CFC130FDE5DF07A6
:1024D00009F459C008F444C080E0C230DD4509F079
:1024E0006ECF0E94371E6BCF8091BD0381608093B9
:1024F000BD0365CF8091BD038460F9CF8091BE0399
:102500008260C9CF8091BD038064F1CF0E946117C2
:102510008091BD038068EBCF8091BD038D7FE7CFB5
:102520008091BD03877FE3CF8091BD038F7DDFCF97
:102530008091BD038F7BDBCF8091BD03837FD7CF9D
:102540008091BE038C7FA7CF8091BD0382FB99272A
:1025500090F921E0922790FB82F990FB83F9C7CF95
:102560008091BE03982F909591708E7F892B90FB60
:1025700081F991CF0E9461179091BD03892F97FB3C
:1025800087F98058B4CF81E0ACCF81E021CFCF93E1
:10259000DF93EB0186319C4511F50E94E31C9A8183
:1025A000992399F08A7A91E009F490E090935D0282
:1025B000811109C089E20E94BE1C0E942F1D80E08B
:1025C000DF91CF91089585E3F6CF80915D0281116F
:1025D00004C089E20E94C51CF0CF85E3FBCF81E0F7
:1025E000EFCF90936302809362020895E0916202BC
:1025F000F0916302309721F00190F081E02D099471
:1026000080E00895E0916202F0916302309799F0C2
:1026100020912301222359F02091BD0327FF07C0F9
:10262000DC012C9111962C93119725E02C930280BC
:10263000F381E02D099408952091600230916102A8
:102640002817390771F09093610280936002E0913E
:102650006202F0916302309721F00680F781E02D4D
:102660000994089520915E0230915F02281739077E
:1026700071F090935F0280935E02E0916202F091AC
:102680006302309721F00084F185E02D09940895CC
:1026900085B7806885BF85B7806885BF0895089530
:1026A00008950C944F1308950C9453130E944813EB
:1026B0000E9450130C94511381E008950C945C1304
:1026C0000E948E1F0E94E4070E9410200E94280F83
:1026D0000C9454139F92AF92BF92CF92DF92EF92DD
:1026E000FF920F931F93CF93DF93CDB7DEB72A9757
:1026F0000FB6F894DEBF0FBECDBF0E9445080E9402
:102700005E13882309F470C055E6A52E52E0B52E5D
:1027100010E000E0902E802F0E94D6076C01F5019A
:10272000E190F1905F01E816F90609F457C0809135
:10273000F10281FD0E94DF0797012C253D2580E0F5
:10274000EE24E394F12CA9014E215F21452B09F4DD
:102750003FC08E839F82CE20DF2081E0CD2809F408
:1027600080E088870E94971F8160782F9A878987E9
:102770004E815F8168858A850E941714000F111FA2
:10278000F801EB59FD4F80819181E826F926F1820D
:10279000E0820E94660F0E94F612909164028917EF
:1027A000A1F10E94F612809364022A960FB6F89463
:1027B000DEBF0FBECDBFDF91CF911F910F91FF9074
:1027C000EF90DF90CF90BF90AF909F900C94E0057A
:1027D0008F5FEE0CFF1C8C3009F0B5CF0F5F1F4FE1
:1027E0000430110509F096CF8FEF89838A831B820D
:1027F0000E94971F8160782F9D838C8349815A8125
:102800006B818D810E941714C4CF2A960FB6F8945D
:10281000DEBF0FBECDBFDF91CF911F910F91FF9013
:10282000EF90DF90CF90BF90AF909F900895CF939F
:10283000DF93CDB7DEB72B970FB6F894DEBF0FBE90
:10284000CDBF4F83588769877A878B871E821D8209
:1028500085E0FE013796DE01119601900D928A9572
:10286000E1F749815A816B817C818D819E812B9614
:102870000FB6F894DEBF0FBECDBFDF91CF910C94A1
:10288000DA19FC01808191810C94901CCF93C82FA0
:10289000882309F469C08238C1F40E94F61281FDD0
:1028A00063C089E30E94BE1C0E942F1D2FEF81EEA2
:1028B00094E0215080409040E1F700C0000089E39F
:1028C0000E94C51CCF910C942F1D8338A1F40E9447
:1028D000F61280FD49C083E50E94BE1C0E942F1D98
:1028E0002FEF81EE94E0215080409040E1F700C04E
:1028F000000083E5E5CF8438A1F40E94F61282FD42
:1029000033C087E40E94BE1C0E942F1D2FEF81EE72
:1029100094E0215080409040E1F700C0000087E43F
:10292000CFCF8CEF8C0F813A90F46C2F80911701F0
:10293000909118010E94501E882329F08C2F0E942C
:10294000C51C0E942F1D8C2F0E94BE1CBBCF80E295
:102950008C0F883048F4C77081E001C0880FCA9599
:10296000EAF70E94E61CAECFCF910895882309F4C0
:102970004BC0823871F40E94F61281FF45C089E392
:102980000E94BE1C0E942F1D89E30E94C51C0C944E
:102990002F1D833859F40E94F61280FF35C083E55D
:1029A0000E94BE1C0E942F1D83E5EFCF843859F48E
:1029B0000E94F61282FF28C087E40E94BE1C0E947B
:1029C0002F1D87E4E2CF9CEF980F913AF0F290E24E
:1029D000980F983050F4877091E001C0990F8A9554
:1029E000EAF7892F0E94EC1CD2CF9BE5980F933019
:1029F00020F490E080E00C941C13885A873120F476
:102A000090E080E00C9432130895CF93C82F0E9479
:102A10004614C93349F42FEF87EE93E021508040EC
:102A20009040E1F700C000008C2FCF910C94B614B9
:102A3000882321F00E94E61C0C942F1D0895882302
:102A400021F00E94EC1C0C942F1D0895BF92CF9290
:102A5000DF92EF92FF920F931F93CF93DF936C015E
:102A6000D62FC72FFC01158112951F70028101110D
:102A70000E94031D0E94DC1CE82E882391F0002395
:102A8000D1F08C2F807F803421F080E28D0F883050
:102A900090F082E00E947A1D0E94DC1C91E0E82EFA
:102AA000E926BC2EB2949FE0B922EB2DF0E0EB5E5C
:102AB000F74D0C94F826E12CF4CF1C2F1F70C07F2B
:102AC00011F01295107F0023A9F0112359F080E234
:102AD0008D0F883010F0D11109C0812F0E94E61CA3
:102AE0000E942F1D8D2F0E94461414C0812F0E941A
:102AF000F61CF6CF8D2F0E94B614112359F080E2F8
:102B00008D0F883010F0D1112CC0812F0E94EC1C49
:102B10000E942F1D2B2D2850330B2430310520F41B
:102B20000E94F6120E94E005EE2009F477C10E948F
:102B3000D81C80FD73C1F60112820E94D21C0E9433
:102B40005E1BC6010E942F170E94D21CDF91CF91FD
:102B50001F910F91FF90EF90DF90CF90BF900C945A
:102B60007F1B812F0E94FC1CD3CFFC2FFF70FF2EF8
:102B7000C07FC03219F0F29480EFF822DD2369F0B3
:102B8000D13049F1002391F1112351F1F6018581F2
:102B900080FFA8CF8F70858323C0002381F011119F
:102BA00006C00E94161D8F290E941815B3CF113040
:102BB000C1F70E94161D8F290E941C1DABCF111159
:102BC00006C00E94251D8F2D0E941F15A3CF113016
:102BD00009F4A0CFF6CF002329F0163008F09ACFE1
:102BE0008F2DE2CF153008F095CFEDCF112359F39B
:102BF000D93349F4FFEF27EE33E0F1502040304065
:102C0000E1F700C000008D2F0E94B61483CF8C2FF7
:102C1000837009F041C001117DCF4D2F429546953B
:102C20004770440F440F0D2F0F7010E030E020E08C
:102C3000042E04C0000F111F221F331F0A94D2F765
:102C400060E070E0CB01D4FF0FC06FE070E080E087
:102C500090E004C0660F771F881F991F4A95D2F72E
:102C60006095709580959095C695C695C370602BBC
:102C7000712B822B932BC23049F058F4C13019F0DC
:102C80000E94101B47CF0E94FE1A44CF0E94221BB5
:102C900041CF0E94FC1A3ECF8695002311F08C2F65
:102CA0008170882309F436CF4D2F429546954770A1
:102CB000440F440F0D2F0F7010E030E020E0042E81
:102CC00004C0000F111F221F331F0A94D2F760E0C7
:102CD00070E0CB01D4FF0FC06FE070E080E090E0C7
:102CE00004C0660F771F881F991F4A95D2F7609519
:102CF000709580959095C695C695C370602B712B85
:102D0000822B932BC23049F058F4C13019F00E9445
:102D1000D51B00CF0E94C31BFDCE0E94E71BFACE3D
:102D20000E94381BF7CECF70002329F08C2F0E9411
:102D30005E1B8D2F39CF8D2F0E941F158C2F0E9467
:102D40007F1BE8CED23F89F160F4D03FC9F0D13F7C
:102D500029F1002309F442C01111C4CE8C2F8F71C8
:102D600021C0D33F39F1D43FA1F7002369F1CF71DE
:102D70008C2F0E945E1B63E08C2F0E94651DCACEC3
:102D8000002341F0153008F0C5CE8C2F8F710E94C2
:102D9000A21BC0CE163008F0BDCEF7CF8C2F8F719E
:102DA000002369F20E945E1BB5CE8C2F8F71002329
:102DB000C9F3C5CF002329F08C2F8F710E94491BC6
:102DC000A9CE0E94441BA6CE81E00E947A1D12303B
:102DD00008F4A0CE82E00E947A1D9CCE112359F007
:102DE000D93309F010CF8FEF97EEE3E08150904098
:102DF000E040E1F706CF8C2F8F71A1CF4C2F4F70A1
:102E00006D2FC6010E9426050E94741A83CE4C2F96
:102E10004F706D2FC6010E94E8057CCEDF91CF91E7
:102E20001F910F91FF90EF90DF90CF90BF9008958A
:102E30000F931F93CF93DF93EC01688179818A818F
:102E40000E949A1C8C010E94F91B0E94FB1AB80177
:102E5000CE01DF91CF911F910F910C942615CF9346
:102E6000DF93EC018B819C81892B29F088819981EA
:102E700089238F3F59F4DF91CF910895CE010E94AD
:102E80001817CE01DF91CF910C947105CE010E94ED
:102E900098058111F3CF0E94DC1C882361F38A819D
:102EA000882349F382E0DF91CF910C947A1D0E9430
:102EB000031D0E94131D0C942F1D0E94CC1C0C940A
:102EC00057170E94F31C0C945D17E92FE295EF70E1
:102ED000E250EE3070F4F0E0EB5DF74D0C94F82624
:102EE000803F19F020F4883E20F481E00895843F6B
:102EF000E1F380E00895883EC0F3813FD1F7F5CF3C
:102F000093FB882780F908950E94901C0C94651704
:102F1000CF93DF9300D000D00F92CDB7DEB70F90E4
:102F20000F900F900F900F90DF91CF910895CF9356
:102F3000DF9300D000D000D0CDB7DEB726960FB615
:102F4000F894DEBF0FBECDBFDF91CF9108951F93E0
:102F5000CF93DF93C0916E0216E080916F028C13C5
:102F600004C0DF91CF911F910895D0E01C9FF00124
:102F70001D9FF00D1124E059FD4F40815181628168
:102F80007381848195810E9497172196C770E5CF40
:102F90004091A0025091A1026091A2027091A302FF
:102FA0008091A4029091A5020C9497171F93CF9340
:102FB000DF938091A502807FA9F48091A2028823EB
:102FC00089F080916E02C0916F026091A0027091B1
:102FD000A102A091A302B091A402D62FD72316E09C
:102FE000C81304C0DF91CF911F91089590E010970E
:102FF00011F0DF3F19F401968770F2CF189F90010E
:10300000199F300D1124F901E059FD4F41814713FB
:10301000F2CF40814613EFCF42814111ECCF438183
:1030200054814A1B5B0B483C510528F78091A5024F
:103030008F7080618093A502F901EB58FD4F80816C
:103040008F708061808380EA92E00E942F17DF9169
:10305000CF911F910C94A717AF92BF92CF92DF929E
:10306000EF92FF920F931F93CF93DF93CDB7DEB70D
:1030700061970FB6F894DEBF0FBECDBF8C0185E01F
:10308000F801DE011D9601900D928A95E1F7F80195
:1030900040815181E28080EAC82E82E0D82E609182
:1030A000A3027091A4026115710509F461C19091A8
:1030B000A0022091A102892F82238F3F09F458C1D9
:1030C000A380B480F090A202F501E61BF70BFF206D
:1030D00009F4FCC08091A502382F307FE83CF1054F
:1030E00008F0B2C0311179C0FE2C251323C094130F
:1030F00021C0E1101FC08F7080618093A5020E94E3
:10310000C817C6010E942F178091A502F801858378
:103110008F2D61960FB6F894DEBF0FBECDBFDF9145
:10312000CF911F910F91FF90EF90DF90CF90BF90C4
:10313000AF900895AB2829F0842F85238F3F09F0A5
:1031400033C180E0F82FF170DF2E80FF3CC080910A
:103150006E0220916F0236E0821315C04D875E87A4
:103160008D859E850E94901C292F22952F702230DC
:10317000F0F0243018F59F70F1F0F8019581907F00
:10318000D1F4D12C1EC090E0389FF001399FF00D92
:103190001124E059FD4F6181651306C060816413FD
:1031A00003C062816E110FC001968770D5CF9F70EA
:1031B00011F0882331F3805E883018F3C8010E9433
:1031C0002F17FD2CA5CFEE2009F4A2CF8091A502E8
:1031D00081608093A502F12C9BCF251306C0941328
:1031E00004C0F801EE2009F48DC04D875E878D85FF
:1031F0009E850E948417882319F1EE2009F18091A1
:10320000A502803270F02091A0023091A10238878F
:103210002F831986BB86AA868C87CE0107960E94CB
:103220002F1786E0F801A0EAB2E001900D928A958E
:10323000E1F70E94D6170E94C817FF24F39468CFC5
:10324000C8010E942F17F9CF311113C07A2DB98A06
:10325000A88A6E2D89890E94881780EA92E00E94D0
:103260002F1786E0F60111928A95E9F70E94C81798
:10327000B2CF25130FC094130DC0E1100BC0F8019D
:103280008583C8010E942F1786E0F60111928A9566
:10329000E9F73ECF4D875E878D859E850E94841716
:1032A000882371F2EE2061F28091A502803208F449
:1032B000B8CF2091A0023091A1023A8329831B82CA
:1032C000BD82AC828E83CE010196A9CFE83CF10588
:1032D00008F041C0FE2CEE2009F4B2CF25132AC01D
:1032E000941328C08091A50280FD1BC0982F907F69
:1032F000C1F0F8018583903F31F0982F907F905F67
:103300008F70892B8583C8010E942F1786E0F801F2
:10331000A0EAB2E001900D928A95E1F70E94C817E9
:10332000F7CE86E0F801A0EAB2E001900D928A950E
:10333000E1F7EECE4D875E878D859E850E948417CE
:1033400081116FCF8091A50281608093A502C80191
:103350000E942F17DDCE7A2DB98AA88A6E2D898911
:103360000E94881786E0F60111928A95E9F7D6CF78
:10337000EE2009F465CF4D875E878D859E850E947E
:103380008417F82E882309F45BCF86E0F801A0EAC1
:10339000B2E001900D928A95E1F780EA92E00E94F6
:1033A00041140E94D617BACF81E08E25CBCE88EC8F
:1033B00090E008951F93CF93DF93CDB7DEB72C979E
:1033C0000FB6F894DEBF0FBECDBF4F835887698715
:1033D0007A878B879C87CE0107960E942C188823BA
:1033E00069F08A859B85892B39F04F815885842F18
:1033F00085238F3F09F071C016E05FC086E0FE01B3
:103400003796DE01119601900D928A95E1F78A8533
:103410009B85892B89F38F81988589238F3F61F361
:1034200020916F0230E0C901019687709927409181
:103430006E024817190671F40E94611710926F020C
:1034400010926E0286E0E0EAF2E0DF011D928A95BA
:10345000E9F7D2CF96E0929FD001939FB00D11244F
:10346000A059BD4FFE01319601900D929A95E1F75A
:1034700080936F020E94A717BFCF819FC0011124C4
:1034800080599D4F0E942C188823E9F0E0916E022C
:103490001E9FF0011124E059FD4F4081518162814E
:1034A0007381848195810E94971780916E0290E0CC
:1034B00001968770992780936E0280916E02909199
:1034C0006F028913DACF2C960FB6F894DEBF0FBEC9
:1034D000CDBFDF91CF911F91089569857A858B8546
:1034E0009C850E94971788CFEF92FF920F931F93AE
:1034F000CF93DF938C01892B81F0F12CEE24E394A0
:10350000E8012196F8018491843770F4843008F042
:103510005FC08130B1F08230A1F1DF91CF911F9176
:103520000F91FF90EF900895853709F44CC008F48F
:103530003DC09CE7980F903780F78F770E94B614B4
:1035400049C00E5F1F4FFE01849190E2980F9830A2
:1035500060F48770FE2D01C0FF0F8A95EAF78F2F68
:103560000E94061D0E942F1D02C00E9446148F2D2E
:10357000815030F2EFE9FFE03197F1F700C0000031
:10358000F7CF0E5F1F4FFE01849190E2980F9830A5
:1035900050F48770FE2D01C0FF0F8A95EAF78F2F38
:1035A0000E940C1DDFCF0E94B614E1CF0E5F1F4FAB
:1035B000FE01C491C150D8F28FE99FE00197F1F765
:1035C00000C00000F7CF0E5F1F4FFE01F490CFCF79
:1035D0000E9446148E01CBCF08950C94EC1A0E94E1
:1035E000ED1A6093C8027093C9028093CA02909347
:1035F000CB020C94571708950C94EF1A0F931F9356
:103600000091C8021091C9022091CA023091CB02E8
:10361000602B712B822B932B1F910F910C94EF1A1F
:103620000F931F930091C8021091C9022091CA0202
:103630003091CB0260237123822393231F910F913A
:103640000C94EF1A0F931F930091C8021091C902B6
:103650002091CA023091CB026027712782279327DD
:103660001F910F910C94EF1A0C94EC1A0C94341BCC
:103670000E94361B6093C4027093C5028093C602F9
:103680009093C7020C94571760E070E0CB010C9444
:10369000381B0F931F9341E050E060E070E08A0117
:1036A0009B0104C0000F111F221F331F8A95D2F700
:1036B000C901B8011F910F910C94381B0F931F93F0
:1036C00041E050E060E070E004C0440F551F661F09
:1036D000771F8A95D2F78091C4029091C502A0917C
:1036E000C602B091C7028A019B01082B192B2A2B15
:1036F0003B2BC901B8011F910F910C94381B0F93FC
:103700001F9341E050E060E070E004C0440F551F9B
:10371000661F771F8A95D2F7CB01BA016095709525
:10372000809590950091C4021091C5022091C60227
:103730003091C70260237123822393231F910F913D
:103740000C94381B0F931F9341E050E060E070E051
:1037500004C0440F551F661F771F8A95D2F78091CA
:10376000C4029091C502A091C602B091C7028A011D
:103770009B01082719272A273B27C901B8011F9158
:103780000F910C94381B0F931F930091C40210915A
:10379000C5022091C6023091C702602B712B822B8B
:1037A000932B1F910F910C94381B0F931F93009133
:1037B000C4021091C5022091C6023091C702602355
:1037C0007123822393231F910F910C94381B0F9325
:1037D0001F930091C4021091C5022091C60230913E
:1037E000C70260277127822793271F910F910C949E
:1037F000381B08952CE0929F800D1124982F97700C
:1038000041E001C0440F9A95EAF786958695869522
:1038100095E0899FF0011124EA55FD4F90E080E08A
:1038200070E05191DF0111979B01082E02C036957F
:1038300027950A94E2F7217021952527242325272F
:103840002C9301968530910561F708952CE0929FA5
:10385000800D1124982F977086958695869525E082
:10386000829FF0011124EA55FD4F50E040E080E0D6
:10387000219130E0092E02C0369527950A94E2F78F
:1038800021703327042E01C0220F0A94EAF7822BFD
:103890004F5F5F4F4530510559F70895BF92CF9262
:1038A000DF92EF92FF920F931F93CF93DF938C01E0
:1038B000C090C402D090C502E090C602F090C7024A
:1038C0008091C8029091C902A091CA02B091CB0226
:1038D000C82AD92AEA2AFB2ACFE1D0E0BC2ED70198
:1038E000C6010C2E04C0B695A795979587950A94A6
:1038F000D2F780FD0EC0219788F7B12C8B2DDF9178
:10390000CF911F910F91FF90EF90DF90CF90BF90DC
:103910000895B8018C2F0E940506019761F3EECF40
:10392000CF93DF93EC010E944E1CBE01DF91CF913B
:103930000C9405061F93CF93DF93EB0190916D02DA
:10394000992331F0CB01DF91CF911F910C94901C02
:10395000882379F0CB010E944E1C182F682FCE01CE
:103960000E94FA1BBE01812FDF91CF911F910C9411
:103970000506CB010E94261C182FF4CF682F8091DA
:103980001701909118010C94D01E682F8091170197
:10399000909118010C94DB1E8091170190911801F1
:1039A0000C94E61E8091CC028595859585950895A9
:1039B0008091CC02877008959091CC02977081E03D
:1039C00009F480E008958091F00208959091F0024A
:1039D000892B8093F002089580959091F0029823AE
:1039E0009093F00208951092F00208959091EF02E2
:1039F000892B8093EF02089580959091EF02982390
:103A00009093EF0208951092EF0208959091EE02C4
:103A1000892B8093EE02089580959091EE02982371
:103A20009093EE0208951092EE0208958091CD02D7
:103A3000089508950C94191D9091CD02981721F0C6
:103A40008093CD020C941A1D08958091CD02882395
:103A500029F01092CD0280E00C941A1D0895E09197
:103A60001701F09118018091F0028083E091170115
:103A7000F091180180819091EF02892B8083E09171
:103A80001701F091180180819091EE02892B8083BB
:103A90009091CD02992381F0E0911701F0911801E6
:103AA0008081892B808380911701909118010E9459
:103AB0003C1E81110E94251D8091170190911801D3
:103AC0000C94021308950C94621D98E0899F900154
:103AD0001124622B6093CC020E945E1B8091CC0269
:103AE0008595859585950C94631D1092CC0280E098
:103AF0000C94631D9091CC02809589238093CC0215
:103B0000282F277071F4282F082E000C330B9217E2
:103B1000130639F08595859585950E947F1B0C9439
:103B2000751D08956FEF7FEF90E080E00C94CA2739
:103B300090E080E00E94A62721E08C3E9E4F09F095
:103B400020E0822F089582E090E00C94982783E093
:103B500090E00C949827CF9384E090E00E949827FF
:103B6000C82F81E290E00E949827982F8C2FCF9148
:103B70000895CF93C92F682F84E090E00E94AC276E
:103B80006C2F81E290E0CF910C94AC27AB01BC018B
:103B90008FE090E00C94BE27AB01BC0183E190E084
:103BA0000C94BE2760E070E0CB010C94CC1D60E06B
:103BB00070E0CB010E94C61D0C94D21D6CEE7EEF0E
:103BC00090E080E00E94CA2760E082E090E00E94DE
:103BD000AC2760E083E090E00E94AC271092C8021E
:103BE0001092C9021092CA021092CB0260E084E0E7
:103BF00090E00E94AC2760E081E290E00E94AC2758
:103C000060E085E090E00E94AC2760E086E090E014
:103C10000E94AC276FEF87E090E00E94AC2740E065
:103C200050E0BA0188E090E00E94BE2760E08DE09D
:103C300090E00E94AC2740E050E0BA0188E190E0BB
:103C40000E94BE2760E087E190E00E94AC2740E040
:103C500050E0BA018CE190E00E94BE2760E080E273
:103C600090E00E94AC270C94D71D0C94DE1D682FA9
:103C70008EE090E00C94AC27FC01329680912301F9
:103C8000882321F08091BD039EE187FF96E080E0CC
:103C9000915008F4089521912223D1F38F5FF8CF3A
:103CA000662301F1209123012223F1F02091BD032D
:103CB00027FF1AC0462F4695469546954E3190F4FB
:103CC000677021E030E002C0220F331F6A95E2F7EF
:103CD000840F911DFC01828190E02823392381E02B
:103CE000232B69F480E00895FC0132960896219117
:103CF000261721F0E817F907D1F7F4CF81E00895EE
:103D00009C01FC0132969FEF80E04191461751F0F3
:103D10009F3F19F4411101C0982F8F5F8630A9F79A
:103D20009F3F09F40895290F311D97FD3A95F90138
:103D300062830895FC01329608962191261303C0F0
:103D4000DF0111971C92E817F907B9F70895E62FDC
:103D5000E695E695E695EE3168F4E80FF92FF11D4A
:103D6000677021E030E001C0220F6A95EAF7828196
:103D7000822B82830895E62FE695E695E695EE314F
:103D800070F4E80FF92FF11D677021E030E001C0F9
:103D9000220F6A95EAF720958281282322830895CD
:103DA00020912301222329F02091BD0327FD0C94AB
:103DB000A71E0C94801E20912301222329F020911C
:103DC000BD0327FD0C94BB1E0C949A1EFC01329679
:103DD00080912301882351F08091BD0387FF06C0A5
:103DE0008EE1DF011D928A95E9F7089586E0F9CF0B
:103DF000089508950C94F91E0E94FA1E8091C30341
:103E0000843009F439C01092F20288E190E020E495
:103E10000FB6F894A895809360000FBE20936000C1
:103E200080E00E94E0050E94630F8091F3028111FF
:103E30000AC081E08093F302809127038170809310
:103E4000F4020E94960E0E94FA1E83B7817F84605E
:103E500083BF83B7816083BF7894889583B78E7F53
:103E600083BF0FB6F894A895809160008861809315
:103E70006000109260000FBE08950895CF930E94D5
:103E8000F81E0E9445080E943D1FC0E08C2F0E9432
:103E9000D607892B31F4CF5FC430C1F780E0CF91D2
:103EA000089581E0FCCF08950C94531F0E94611780
:103EB0000E94F6120E94E0051092F3028091F40233
:103EC00081110E945B0F0E94A80E0C94541F1F9238
:103ED0001FB61F9211248F939F93AF93BF9380912E
:103EE000F202811113C08091B9039091BA03A0919D
:103EF000BB03B091BC034196A11DB11D8093B903D2
:103F00009093BA03A093BB03B093BC03BF91AF914E
:103F10009F918F911F901FBE1F90189582E084BDC6
:103F200093E095BD9AEF97BD80936E0008952FB7EB
:103F3000F8948091B9039091BA03A091BB03B0911A
:103F4000BC032FBF08959C014FB7F8948091B9032B
:103F50009091BA03A091BB03B091BC034FBF821BE9
:103F6000930B089578941F921FB61F9211248F937C
:103F70009F93AF93BF938091B9039091BA03A0919F
:103F8000BB03B091BC030196A11DB11D8093B90381
:103F90009093BA03A093BB03B093BC03BF91AF91BE
:103FA0009F918F911F901FBE1F90189581E0809365
:103FB000E00080E28093D8001092C9008FE19EE477
:103FC0000197F1F700C0000087E090EBDC018093DF
:103FD000CC039093CD03A093CE03B093CF0388E19D
:103FE0009CE00FB6F894A895809360000FBE909364
:103FF0006000FFCF0C94921D0E9445088FE39CE95E
:104000000197F1F700C000000E94450880E00E947F
:10401000D60780FF04C00E94FA1F0C94D61F089593
:104020000E94981D811102C00E94351E0E94A31D8E
:104030008093F1020E94AB1D9093BE038093BD0359
:104040000E94A71D682F70E090E080E00E94FC1A9B
:104050006091C4027091C5028091C6029091C7021E
:104060000C94361B80911503089508950895CF93FD
:10407000DF93EC01809123018823B1F18091BD038E
:1040800087FF32C060E282E08093E9008FEF909179
:10409000E800815095FD06C095ED9A95F1F7000076
:1040A0008111F5CF8091E80085FF1BC0809123012D
:1040B00070E050E040E0811104C050E040E068E072
:1040C00070E0CE010E9403228091E8008E778093F9
:1040D000E80080E2FE01A5EFB2E001900D928A9522
:1040E000E1F7DF91CF91089568E081E0CDCF0895A9
:1040F0008091C203811109C00E9493230E94F02382
:104100008091E20084608093E20008951092C203DF
:104110000895089508950C94561F42E061EC81E0E3
:104120000E940F2342E261EC82E00C940F23809105
:10413000C503833009F45FC030F48130C1F18230AF
:1041400009F49BC008958A3009F487C08B3009F4C4
:104150006DC0893009F04EC08091C403813209F0EE
:1041600049C08091C8039091C903029708F042C0EA
:104170008091E800877F8093E8008091E80082FFCB
:1041800035C09091F3008091F200029729F480915C
:10419000F1008B7F813021F48091F1008093150331
:1041A0008091E8008B778093E8000C944323809102
:1041B000C403813AF9F48091E800877F8093E80096
:1041C0008091C8039091C903892B61F460E285EF67
:1041D00092E070E00E9452228091E8008B778093F9
:1041E000E800089560E090E080E0F3CF8091C303A1
:1041F0008111C3CF08958091C403813AD9F780918A
:10420000C8039091C903892BA9F78091E800877FA3
:104210008093E8008091E80080FFFCCF809123012B
:104220008093F1008091E8008E77BDCF8091C40328
:10423000813201F78091C8039091C903892BD1F68F
:104240008091E800877F8093E8000E94432380915B
:10425000C603809323010C9461178091C4038132BB
:1042600049F68091E800877F8093E8000E9443230D
:104270008091C7038093160308958091C403813A07
:1042800009F0B8CF8091E800877F8093E8008091A3
:10429000E80080FFFCCF80911603C2CF84B7877FF0
:1042A00084BF0FB6F894A8958091600088618093D0
:1042B0006000109260000FBE80E890E00FB6F894A6
:1042C00080936100909361000FBE0E9456130E947C
:1042D00093230E94F0238091E20084608093E200A7
:1042E00078940E9479260E94601389E191E00E94EF
:1042F000F1128091C303853019F00E946A13F9CF3F
:104300000E94FC1E8091C103882399F30E943E1FE6
:10431000882379F30E94ED21ECCF0C948F21292F73
:1043200033272330310519F168F42130310509F4C0
:104330004AC02230310509F44BC090E080E030E003
:1043400020E028C02132310579F122323105A9F768
:1043500080E490E02AE739E061157105D9F08BE33C
:1043600090E02FE339E061307105A1F0E6CF9927A5
:104370008130910599F0009741F08230910589F0E4
:104380000397D9F6E6ECF8E002C0EEEEF8E084918F
:1043900090E09F01FA01318320830895EEEDF8E06B
:1043A000F6CFECECF8E0F3CF89E090E024E039E0E0
:1043B0006115710579F389E090E02DE139E0613014
:1043C000710541F3BACF82E190E02DE239E0E2CF0E
:1043D0008BE390E022EF38E0DDCF80E189BD82E120
:1043E00089BD09B400FEFDCF8091D8008F7D8093F8
:1043F000D8008091E00082608093E0008091E0002E
:1044000081FDFCCF0895AF92BF92CF92DF92FF92D1
:104410000F931F93CF93DF936C01EB018A010E94EE
:104420006223F82E811123C00115110539F0F8011E
:1044300080819181C81BD90BC80ED91EB12CA12C2B
:104440002097A9F08091E80085FD22C08091E800C6
:104450008E778093E80001151105A1F0F8018081A5
:104460009181A80EB91EB182A08285E0F82E8F2D11
:10447000DF91CF911F910F91FF90DF90CF90BF9070
:10448000AF9008950E9462238823D1F2F82EEFCFD7
:10449000F60181916F018093F1002197FFEFAF1A30
:1044A000BF0ACECFFC018091CA039091CB0386173F
:1044B0009707A0F06115710529F49091E8009E77A7
:1044C0009093E80090E06115710551F4911108C0D6
:1044D0008091E80082FF34C080E00895BC01F2CFF3
:1044E0008091C3038823C1F18530C1F18091E80038
:1044F00083FD30C08091E80082FDEACF8091E80022
:1045000080FFE1CF8091F3002091F200382F6115F8
:10451000710519F02830310558F091E02830310547
:1045200009F090E02091E8002E772093E800CBCFAF
:1045300081918093F100615071092F5F3F4FE7CF68
:104540008091C303882341F0853041F08091E800D9
:1045500083FFBECF81E0089582E0089583E008954F
:10456000FC018091CA039091CB0386179707A0F0B6
:104570006115710529F48091E8008E778093E80039
:1045800090E06115710551F4911108C08091E80027
:1045900082FF35C080E00895BC01F2CF8091C30353
:1045A0008823C9F18530C9F18091E80083FD31C0CD
:1045B0008091E80082FDEACF8091E80080FFE1CFA2
:1045C0008091F3002091F200382F6115710519F0E8
:1045D0002830310558F091E02830310509F090E09D
:1045E0008091E8008E778093E800CBCF8491809310
:1045F000F1003196615071092F5F3F4FE6CF8091F6
:10460000C303882341F0853041F08091E80083FFA7
:10461000BDCF81E0089582E0089583E00895982F4A
:10462000973028F08F708093E90081E0089590938F
:10463000E900242F762F50E0981731F07091EC00AC
:104640002091ED005091F00021FD02C09F5FE8CF66
:104650003091EB003E7F3093EB003091ED003D7FD9
:104660003093ED003091EB0031603093EB007093AC
:10467000EC002093ED005093F0002091EE0027FD18
:10468000E5CF80E008958091C40387FF13C0809137
:10469000E80082FF06C08091E8008B778093E800F5
:1046A00004C08091C3038111F2CF08958091C303A8
:1046B0008823D9F38091E80080FFF8CF8091E8004B
:1046C0008E77ECCF2091E4003091E50095E6A901CA
:1046D0002091EC00822F817020FF06C08091E800BD
:1046E00080FF06C080E008952091E80022FD1AC0F6
:1046F0008091C303882389F0853089F08091EB0095
:1047000085FD0FC02091E4003091E500421753076A
:10471000F9F29150E1F684E0089582E0089583E093
:10472000089581E008950E9401240E940924E0EE8A
:10473000F0E0808181608083E8EDF0E080818F7718
:10474000808319BCA7EDB0E08C918E7F8C93808123
:104750008F7E80831092C20308950F931F93CF938F
:10476000DF930E9401240E940924C8EDD0E08881D3
:104770008F77888388818068888388818F7D88830C
:1047800019BC1092C3031092BF031092C103109280
:10479000C00300EE10E0F80180818B7F8083888168
:1047A0008160888342E060E080E00E940F23E1EEB8
:1047B000F0E080818E7F8083E2EEF0E08081816096
:1047C0008083808188608083F80180818E7F8083F0
:1047D000888180618883DF91CF911F910F91089527
:1047E000E8EDF0E080818F7E8083E7EDF0E080816E
:1047F0008160808384E082BF81E08093C2030C9457
:10480000AD23E8EDF0E080818E7F80831092E2009E
:1048100008951092DA001092E10008951F920F920D
:104820000FB60F9211242F933F934F935F936F9383
:104830007F938F939F93AF93BF93EF93FF93809159
:10484000E10082FF0BC08091E20082FF07C08091EF
:10485000E1008B7F8093E1000E9478268091DA004E
:1048600080FF19C08091D80080FF15C08091DA00C8
:104870008E7F8093DA008091D90080FF96C080E11E
:1048800089BD82E189BD09B400FEFDCF81E080933E
:10489000C3030E9478208091E10080FF19C08091BD
:1048A000E20080FF15C08091E2008E7F8093E200DD
:1048B0008091E20080618093E2008091D800806264
:1048C0008093D80019BC85E08093C3030E948A209E
:1048D0008091E10084FF2BC08091E20084FF27C01B
:1048E00080E189BD82E189BD89B5982F917080FFF3
:1048F000FBCF8091D8008F7D8093D8008091E1001C
:104900008F7E8093E1008091E2008F7E8093E200B1
:104910008091E20081608093E2008091BF03882350
:1049200009F449C084E08093C3030E948B208091E6
:10493000E10083FF29C08091E20083FF25C08091C0
:10494000E100877F8093E10082E08093C3031092AF
:10495000BF038091E1008E7F8093E1008091E200AF
:104960008E7F8093E2008091E20080618093E2007C
:1049700042E060E080E00E940F238091F0008860B8
:104980008093F0000E948920FF91EF91BF91AF9139
:104990009F918F917F916F915F914F913F912F9157
:1049A0000F900FBE0F901F90189519BC1092C30363
:1049B0000E94862070CF8091E30087FD93E0909362
:1049C000C303B3CF1F920F920FB60F9211242F93F0
:1049D0003F934F935F936F937F938F939F93AF9387
:1049E000BF93CF93DF93EF93FF93D091E900DF70F4
:1049F0008091EC00C82FC17080FDC0E81092E900E2
:104A00008091F000877F8093F00078940E942625A3
:104A10001092E9008091F00088608093F000CD2B27
:104A2000CF70C093E900FF91EF91DF91CF91BF91DB
:104A3000AF919F918F917F916F915F914F913F9136
:104A40002F910F900FBE0F901F9018951F93CF932B
:104A5000DF93CDB7DEB7AA970FB6F894DEBF0FBECF
:104A6000CDBF84EC93E02091F100FC012193CF01B4
:104A7000F3E08C3C9F07B9F70E9497208091E800F3
:104A800083FF1EC18091C4039091C5039A3008F042
:104A900017C1E92FF0E0ED5CF74D0C94F826803853
:104AA00099F0823809F00CC18091C8038F7087306B
:104AB00008F006C18093E9008091EB0085FB882710
:104AC00080F91092E90006C08091C0039091C10363
:104AD000911182609091E800977F9093E800809315
:104AE000F1001092F1008091E8008E77E5C08823F4
:104AF00009F4D3C0823009F0E3C08091C60381116C
:104B0000D6C08091C8038F702FEF280F263008F091
:104B1000D7C08093E9002091EB0020FFC8C09330FC
:104B200031F48091EB0080628093EB00C0C09091E3
:104B3000EB0090619093EB0021E030E001C0220F88
:104B40008A95EAF72093EA001092EA008091EB0040
:104B50008860EACF8111B4C01091C6031F7780919D
:104B6000E3008078812B8093E3008091E800877FC9
:104B70008093E8000E9443238091E80080FFFCCFEF
:104B80008091E30080688093E30082E0111183E06C
:104B90008093C30395C08058823008F091C0809103
:104BA000C6039091C7038C3D23E09207A1F583E0F3
:104BB0008A838AE289834FB7F894DE01139620E056
:104BC0003EE051E2E32FF0E050935700E49120FFE4
:104BD00003C0E295EF703F5FEF708E2F90E0EA30F8
:104BE000C0F0C7968D939D932F5F243159F74FBF27
:104BF0008091E800877F8093E8006AE270E0CE0150
:104C000001960E9452228091E8008B778093E80001
:104C100057C0C096E7CF6091C8037091C903AE0139
:104C20004F5F5F4F0E948D21BC01892B09F448C062
:104C30009091E800977F9093E80089819A810E9483
:104C4000B022E1CF8038E1F58091E800877F809342
:104C5000E8008091BF038093F10045CF811130C0FF
:104C60009091C603923060F58091E800877F809331
:104C7000E8009093BF030E9443238091BF038823E1
:104C800011F084E005C08091E30087FDFACF81E058
:104C90008093C3030E948D2013C08091C60381308E
:104CA00079F481E0933009F080E08093C1031092A1
:104CB000E9008091E800877F8093E8000E94432309
:104CC0008091E80083FF0AC08091E800877F80938D
:104CD000E8008091EB0080628093EB00AA960FB60B
:104CE000F894DEBF0FBECDBFDF91CF911F91089525
:104CF0000895CF938091C3038823A1F0C091E90068
:104D0000CF709091EC00892F817090FD80E8C82BC6
:104D10001092E9008091E80083FD0E942625CF7063
:104D2000C093E900CF910895991B79E004C0991FC1
:104D3000961708F0961B881F7A95C9F780950895F5
:104D400087FB082E062687FD819567FD61950E94E9
:104D500094260EF4919507FC81950895AA1BBB1B20
:104D600051E107C0AA1FBB1FA617B70710F0A61B6B
:104D7000B70B881F991F5A95A9F780959095BC018C
:104D8000CD01089597FB072E16F4009407D077FD08
:104D900009D00E94AE2607FC05D03EF4909581957F
:104DA0009F4F0895709561957F4F0895A1E21A2E47
:104DB000AA1BBB1BFD010DC0AA1FBB1FEE1FFF1FBF
:104DC000A217B307E407F50720F0A21BB30BE40B0F
:104DD000F50B661F771F881F991F1A9469F7609556
:104DE0007095809590959B01AC01BD01CF01089510
:104DF000EE0FFF1F0590F491E02D09940E94062705
:104E0000332312F48A1B9B0B0C941727A29FB0012B
:104E1000B39FC001A39F700D811D1124911DB29FEE
:104E2000700D811D1124911D08950E940627B7FF62
:104E30000895821B930B08950E940627A59F900D4D
:104E4000B49F900DA49F800D911D11240895B7FF6C
:104E50000C941C270E941C27821B930B08958F9291
:104E60009F92AF92BF92CF92DF92EF92FF92CF9339
:104E7000DF93EC01688179818A819B8161157105DD
:104E80008105910521F464E279ED8BE597E02DE150
:104E900033EF41E050E00E94E02749015A019B01B5
:104EA000AC01A7EAB1E40E941C276B017C01ACEEC7
:104EB000B4EFA50194010E942A27DC01CB018C0DDF
:104EC0009D1DAE1DBF1DB7FF03C00197A109B048CE
:104ED00088839983AA83BB839F77DF91CF91FF90CB
:104EE000EF90DF90CF90BF90AF909F908F900895FC
:104EF0000E942F27089580E091E00E942F270895B7
:104F0000B0E0A0E08093000190930101A093020122
:104F1000B09303010895FC014150504030F00190DE
:104F20000616D1F73197CF0108958827992708955C
:104F3000F999FECF92BD81BDF89A992780B5089561
:104F4000A6E1B0E044E050E00C94D227A8E1B0E044
:104F500042E050E00C94D227262FF999FECF92BD63
:104F600081BDF89A019700B4021639F01FBA20BD2E
:104F70000FB6F894FA9AF99A0FBE08950396272F60
:104F80000E94AD270E94AC27252F0E94AD27242F19
:104F90000C94AD270196272F0E94AD270C94AC27C7
:104FA000DC01CB01FC01F999FECF06C0F2BDE1BDE9
:104FB000F89A319600B40D9241505040B8F70895D8
:104FC000052E97FB1EF400940E94F72757FD07D08B
:104FD0000E94D62607FC03D04EF40C94F727509578
:104FE0004095309521953F4F4F4F5F4F08959095D5
:104FF0008095709561957F4F8F4F9F4F0895F894DE
:10500000FFCF41104910501055105A105F10641016
:1050100069106E10731078107D1081108610891041
:105020008C108F109210941097105D155D15B515AA
:10503000B5158A158A158A158A1507169316A216AC
:10504000A216FE168A158A1507177017701779179A
:1050500079177B17791779177917701770178017D9
:105060007917791780174F257725602677256026D1
:0A507000AA25CB25602622262E2655
:10507A0001000000010102002F002F2F01191A1B45
:10508A001C1D1E1F202122CE023220372035203639
:10509A0020772001F4F5F6F73635349796903130BB
:1050AA00C6336766000102020202060606090909FA
:1050BA000909090F0F0F0F0F0F15151518191919CF
:1050CA001919191919191923242525252525250002
:00000001FF
