:100000000C9489060C94D0060C94D0060C94D0065F
:100010000C94D0060C94D0060C94D0060C94D00608
:100020000C94D0060C94D0060C94C7250C949B26F7
:100030000C9420210C94D0060C94D0060C94D0067D
:100040000C94D0060C94D0060C94D0060C94D006D8
:100050000C94D0060C946B210C94D0060C94D00612
:100060000C94D0060C94D0060C94D0060C94D006B8
:100070000C94D0060C94D0060C94D0060C94D006A8
:100080000C94D0060C94D0060C94D0060C94D00698
:100090000C94D0060C94D0060C94D0060C94D00688
:1000A0000C94D0060C94D0060C94D00629001E00A7
:1000B0001F0020002100220023002400250026002C
:1000C00027002D002E002A0035022B0014001A00F4
:1000D0000800150017001C0018000C001200130087
:1000E0002F00300031004C003900040016000700DA
:1000F00009000A000B000D000E000F003300340051
:10010000000028004B00E10000001D001B0006005D
:100110001900050011001000360037003800E50016
:1001200052004E00E000E3000000E200000000008A
:100130002C000000000000000151E40050005100BC
:100140004F0001003A003B003C003D003E003F00F4
:10015000400041004200430044004500010001000E
:100160000100C25C5200C35CCF5CD55CD15CC85C52
:10017000C95CCA5C0100460047004800D55C01002C
:10018000500051004F00010001000100010001007A
:1001900049004A004B00000001000100010000007E
:1001A000005C010001000100AA00A800A9004C00A9
:1001B0004D004E000100010001000100010000009F
:1001C000010000000000010000000000000001002C
:1001D0000100010001000100010001000100010017
:1001E0000100010001000100010001000100010007
:1001F00001000100010001000100010001000100F7
:1002000001000100010001000100010001000100E6
:1002100001000100010001000100010001000100D6
:1002200001000100010001000100010000000100C7
:1002300001000100000001000100010001000100B7
:1002400001000100010001000100010001000100A6
:10025000010001000000010000000000010000009A
:100260000000000001000100010001000100010088
:100270000100010001000100010001000100010076
:100280000100010001000100010001000100010066
:100290000100010001000100010001000100010056
:1002A0000100010001000100010001000100010046
:1002B0000100010001000100010001000100010036
:1002C0000100000001000100010000000100010028
:1002D0000100010001000100010001000100010016
:1002E0000100010001000100010000000100000008
:1002F00000000100000000000000010001000100FA
:1003000001000100010001000100010001000100E5
:1003100001000100010001000100010001000100D5
:1003200001000100010001000100010001000100C5
:1003300001000100010001000100010001000100B5
:1003400001000100010001000100010001000100A5
:100350000100010001000100000001000100010096
:100360000000010001000100010001000100010086
:100370000100010001000100010001000100010075
:10038000000001000000000001000000000000006B
:100390000100010001000100010001000100010055
:1003A0000100010001000100010001000100010045
:1003B0000100010001000100010001000100010035
:1003C0000100010001000100010001000100010025
:1003D0000100010001000100010001000100010015
:1003E0000100010001000100010001000100000006
:1003F00001000100010000000100010001000100F6
:1004000001000100010001000100010001000100E4
:1004100001000100010000000100000000000100D7
:1004200000000000000001000100010001000100C7
:1004300001000100010001000100010001000100B4
:1004400001000100010001000100010001000100A4
:100450000100010001000100010001000100010094
:100460000100010001000100010001000100010084
:100470000100010001000100010001000100010074
:100480000100010000000100010001000000010066
:100490000100010001000100010001000100010054
:1004A0000100010001000100010001000000010045
:1004B0000000000001000000000000000100010039
:1004C0000100010001000100010001000100010024
:1004D0000100010001000100010001000100010014
:1004E0000100010001000100010001000100010004
:1004F00001000100010001000100010001000100F4
:1005000001000100010001000100010001000100E3
:1005100001000100010001000100000001000100D4
:1005200001000000010001000100010001000100C4
:1005300001000100010001000100010001000100B3
:1005400001000000010000000000010000000000A8
:100550000000010001000100010001000100010094
:100560000100010001000100010001000100010083
:100570000100010001000100010001000100010073
:100580000100010001000100010001000100010063
:100590000100010001000100010001000100010053
:1005A0000100010001000100010001000100010043
:1005B0000000010001000100000001000100010035
:1005C0000100010001000100010001000100010023
:1005D0000100010001000100000001000000000016
:1005E0000100000000000000010001000100010006
:1005F00001000100010001000100010001000100F3
:1006000001000100010001000100010001000100E2
:1006100001000100010001000100010001000100D2
:1006200001000100010001000100010001000100C2
:1006300001000100010001000100010001000100B2
:1006400001000100010000000100010001000000A4
:100650000100010001000100010001000100010092
:100660000100010001000100010001000100000083
:100670000100000000000100000000000000010077
:100680000100010001000100010001000100010062
:100690000100010001000100010001000100010052
:1006A0000100010001000100010001000100010042
:1006B0000100010001000100010001000100010032
:1006C0000100010001000100010001000100010022
:1006D0000100010001000100010001000000010013
:1006E0000100010000000100010001000100010003
:1006F00001000100010001000100010001000100F2
:1007000001000100000001000000000001000000E5
:1007100000000000010001000100010001000100D3
:1007200001000100010001000100010001000100C1
:1007300001000100010001000100010001000100B1
:1007400001000100010001000100010001000100A1
:100750000100010001000100010001000100010091
:100760000100010001000100010001000100010081
:100770000100000001000100010000000100010073
:100780000100010001000100010001000100010061
:100790000100010001000100010000000100000053
:1007A0000000010000000000000001000100010045
:1007B0000100010001000100010001000100010031
:1007C0000100010001000100010001000100010021
:1007D0000100010001000100010001000100010011
:1007E0000100010001000100010001000100010001
:1007F00001000100010001000100010001000100F1
:1008000001000100010001000000010001000100E1
:1008100000000100010001000100010001000100D1
:1008200001000100010001000100010001000100C0
:1008300000000100000000000100000000000000B6
:1008400001000100010001000100010001000100A0
:100850000100010001000100010001000100010090
:100860000100010001000100010001000100010080
:100870000100010001000100010001000100010070
:100880000100010001000100010001000100010060
:100890000100010001000100010001000100000051
:1008A0000100010001000000010001000100010041
:1008B0000100010001000100010001000100010030
:1008C0000100010001000000010000000000010023
:1008D0000000000000000100010001000100010013
:1008E0000100010001000100010001000100010000
:1008F00001000100010001000100010001000100F0
:1009000001000100010001000100010001000100DF
:1009100001000100010001000100010001000100CF
:1009200001000100010001000100010001000100BF
:1009300001000100000001000100010000000100B1
:10094000010001000100010001000100010001009F
:100950000100010001000100010001000000010090
:100960000000000001000000000000000100010084
:10097000010001000100010001000100010001006F
:10098000010001000100010001000100010001005F
:10099000010001000100010001000100010001004F
:1009A000010001000100010001000100010001003F
:1009B000010001000100010001000100010001002F
:1009C0000100010001000100010000000100010020
:1009D0000100000001000100010001000100010010
:1009E00001000100010001000100010001000100FF
:1009F00001000000010000000000010000000000F4
:100A000000000100010001000100010032190A008C
:100A1000047F3F1F643214643214783C1E1E140A93
:100A2000052223252628292A2C2D2F30323335362E
:100A3000383A3B3D3E4042434547494A4C4E50516F
:100A4000535557595A5C5E6062646668696B6D6F96
:100A500071737577797B7D7F81838587898A8C8E99
:100A600090929496989A9C9E9FA1A3A5A7A8AAACA1
:100A7000AEAFB1B3B4B6B8B9BBBCBEBFC1C2C3C5DB
:100A8000C6C7C9CACBCCCDCED0D1D2D2D3D4D5D67D
:100A9000D7D7D8D9D9DADADBDBDBDCDCDCDCDCDDB0
:100AA000DDDDDDDCDCDCDCDCDBDBDBDADAD9D9D894
:100AB000D7D7D6D5D4D3D2D2D1D0CECDCCCBCAC92C
:100AC000C7C6C5C3C2C1BFBEBCBBB9B8B6B4B3B15B
:100AD000AFAEACAAA8A7A5A3A19F9E9C9A989694F6
:100AE00092908E8C8A89878583817F7D7B797775CB
:100AF00073716F6D6B6968666462605E5C5A5957AA
:100B0000555351504E4C4A4947454342403E3D3B68
:100B10003A3836353332302F2D2C2A2928262523F2
:100B200022FFAA7F554000010101010101010101DD
:100B3000020202020202020202030303030303038E
:100B4000030404040404040405050505050606065B
:100B50000606070707070708080808090909090A18
:100B60000A0A0B0B0B0C0C0C0D0D0D0E0E0E0F0FBD
:100B70000F1010111111121213131414151516164B
:100B80001717181819191A1A1B1B1C1D1D1E1E1FBA
:100B90002020212222232424252626272829292A09
:100BA0002B2C2D2D2E2F3031323233343536373831
:100BB000393A3B3C3D3E3F4041424344454647482D
:100BC000494A4C4D4E4F50515354555658595A5B03
:100BD0005D5E5F616264656668696B6C6D6F7072A3
:100BE000737577787A7B7D7E8082838587888A8C0F
:100BF0008E8F91939596989A9C9EA0A2A3A5A7A943
:100C0000ABADAFB1B3B5B7BABCBEC0C2C4C6C9CB39
:100C1000CDCFD1D4D6D8DBDDDFE2E4E7E9EBEEF0EF
:100C2000F3F5F8FAFDFF0403300000000E034E0058
:100C300045004F00360037004800000008034E0012
:100C400065006F0000000403090409023B00020173
:100C500000A0FA09040000010301010009211101AB
:100C600000012240000705810308000A0904010071
:100C70000103000000092111010001223B000705CA
:100C8000820320000A1201100100000008EDFE603E
:100C90006001000102030105010906A101850505A6
:100CA0000719E029E715002501950875018102055E
:100CB00007190029EF1500250195F075018102053E
:100CC0000819012905950575019102950175039192
:100CD00001C005010906A101050719E029E7150072
:100CE00025019508750181029501750881010507A7
:100CF000190029FF150026FF0095067508810005DB
:100D00000819012905950575019102950175039151
:100D100001C011241FBECFEFDAE0DEBFCDBF04B6A5
:100D200003FE27C08091DA049091DB04A091DC04DB
:100D3000B091DD048730904BA740B04BD1F41092B6
:100D4000DA041092DB041092DC041092DD0414BE6D
:100D500084B7877F84BF0FB6F894A8958091600010
:100D6000886180936000109260000FBEE0E0F8E3BD
:100D7000099511E0A0E0B1E0ECEEF3E502C00590CA
:100D80000D92A436B107D9F724E0A4E6B1E001C082
:100D90001D92AA3DB207E1F70E9407230C94B829DF
:100DA0000C94000090E080E008950895089581E09B
:100DB000089581FF03C03E9A469808953E98FCCF5F
:100DC00081E008950C94D70608950C94E4061F93CF
:100DD000CF93DF9300D000D00F92CDB7DEB7498319
:100DE0005A836B833091090389819A8131111DC027
:100DF0006623B9F02223A9F00E94071E182F682F3E
:100E000089819A810E94B31D69817A81812F0F9017
:100E10000F900F900F900F90DF91CF911F910C9436
:100E20009B070E94DF1D182FEFCF0E94071E6981CC
:100E30007A81EDCFFC01262F40815181628173813F
:100E400084810C94E706CF93DF93EC0160E00E946D
:100E50001A07BE01DF91CF910C94E5060E94B521DF
:100E60000E94511F811102C00E94EE1F0C94840940
:100E70000C94860908950E941A190E943A072FEFD0
:100E800084E39CE0215080409040E1F700C00000E6
:100E90000C948F210F931F93CF93DF93EC0161E0AC
:100EA0000E941A078C01BE010E94E206882359F1B4
:100EB000BE01C8010E940B13882329F1BE01C8019D
:100EC0000E945D138823F9F0BE01C8010E948014BE
:100ED0008823C9F0BE01C8010E94E411882399F05B
:100EE0008A81882339F001158CE5180751F00E3DF1
:100EF0001C4579F0CE01DF91CF911F910F910C9499
:100F0000E0060E943B0780E0DF91CF911F910F9197
:100F100008950E94EE1FF7CF0C94D90681E0089542
:100F20000C948E07CF93C82F0E948C078C2FCF91E3
:100F30000C9490070895972F70E02FE0929F600D1A
:100F4000711D1124FB019BE4899FE00DF11D11240B
:100F5000EE0FFF1FE455FF4F859194910895FC011A
:100F6000EE0FFF1FE45FF54F859194910895CF93A5
:100F7000DF930E949B070E94AA08EC01811521E5DE
:100F80009207D0F5811530E5930708F096C08115DA
:100F90009042F8F4C11581E0D807B8F4C03ED105FD
:100FA00088F4C03CD10508F07BC0C130D10569F0A0
:100FB000209759F0CE010497813A910530F0D0E0A6
:100FC000C0E003C0C83ED105D0F7CE01DF91CF917C
:100FD0000895C11590E4D90708F06CC0CE019F7048
:100FE000C11520E3D20708F45EC0CE019927D3FFD4
:100FF0005EC0EC01D86CE9CF811535E5930700F5AB
:10100000811544E5940708F08DC0C11583E5D80724
:1010100008F074C0C11592E5D90708F46AC0CE0182
:101020008370992721E030E002C0220F331F8A9598
:10103000E2F7C695C69580E2C89FE001112455C02D
:10104000811529E59207A0F4811538E5930708F08A
:101050006EC0811546E5940708F0B1CF0E944109A2
:10106000C82FD0E0DC2FCC27CC27DF71D062ADCFEA
:10107000C1158AE5D80708F45FC0CE0190568115E6
:10108000904208F09CCF8D2F8F710E94410990E013
:10109000982F882788279F719C012C2BE901E6CF88
:1010A000CE01805C91090E94AF07EC018ECFEC016C
:1010B000D06C8BCFDF70D06A88CFE4E096958795AF
:1010C000EA95E1F783702C2F26952695237040E250
:1010D000249F90011124382B8C2F8370C1E0D0E025
:1010E00002C0CC0FDD1F8A95E2F7C22BD32BDC6840
:1010F0006CCFDC2FCC27C16FD06A67CFCE01837055
:10110000992721E030E002C0220F331F8A95E2F7D1
:10111000C695C69590E2C99FE0011124C22BD32B3E
:10112000DA6853CFD82FCC27C46FD06A4ECFD82FD0
:10113000CC27C06FD06A49CF8C2F8F700E94410995
:1011400034E0D695C7953A95E1F7CF709C2FEC0126
:10115000D0693BCF82389105B1F1B0F4813391056C
:1011600009F475C048F48932910509F469C08A32DE
:10117000910509F473C008958533910509F459C0A8
:101180008933910501F10895833E9105A9F138F461
:10119000803E9105F9F0823E910549F10895863E21
:1011A0009105A9F1873E9105C9F1843E910519F594
:1011B0002091CC0421FF1FC08091CB0484FD14C07A
:1011C00087EE90E008952091CB042370A1F080EE8B
:1011D00090E008952091CB0420FD47C03091CC04CD
:1011E00030FF09C024FF44C090E080E004C020919B
:1011F000CB0422FDF7CF08952091CB0422FD3BC004
:101200003091CC0430FDE3CF24FFF5CFEDCF20911A
:10121000CB0423FFF0CF24FDE7CFD2CF2091CB0426
:1012200023FD2CC03091CC0431FFEECF84EE90E052
:1012300008952091CB0425FFDECF89E290E0089548
:101240002091CB0425FFD7CF85E390E0089520912E
:10125000CB0426FFD0CF8AE290E008952091CB0402
:1012600026FFC9CF81E390E0089589E390E00895D7
:1012700083EE90E0089582EE90E0089586EE90E08F
:1012800008959091CB0492FF06C0282F2871283032
:10129000F9F4877F846093FF06C0282F28712831D6
:1012A000F1F4877E84612091CC0420FF06C0382FA2
:1012B00038713830D9F4877F816021FF06C0282F2C
:1012C00028712831D1F4877E816194FD877E08954D
:1012D000282F24712430F9F68B7F8860DCCF282FEB
:1012E0002471243101F78B7E8861DDCF382F317175
:1012F000313019F78E7F8860E0CF282F217121319E
:1013000021F78E7E8861E1CF0C94D5060C94D60629
:10131000E82FF0E0EE0FFF1FEF52FC4F808191812C
:101320000895089580EA8A95F1F70895CF93DF93A1
:10133000A3E3B1E048E351E0C1E0D0E08D91E82FB4
:10134000E295EF70F0E061A18F709E0101C0220F65
:101350008A95EAF7922F9095962391A382A1822BEA
:1013600082A34A175B0751F7A4E2B1E061E070E0A5
:101370008D91E82FE295EF70F0E041A18F709B0115
:1013800001C0220F8A95EAF7922F9095942391A39A
:1013900082A1822B82A381E0A333B80749F7109280
:1013A000C8031092C7031092D2031092D103109277
:1013B000CA031092C9031092D4031092D30310925F
:1013C000CC031092CB031092D6031092D503109247
:1013D000CE031092CD031092D8031092D70310922F
:1013E000D0031092CF031092DA031092D90385E054
:1013F0000E94850ADF91CF910C942E078F929F92C5
:10140000AF92BF92CF92DF92EF92FF920F931F9312
:10141000CF93DF9383E3E82E81E0F82E07EC13E00F
:10142000912CAA24A394B12CF70181917F01C82F9C
:10143000C295CF70D0E099A18F70650101C0CC0C2E
:101440008A95EAF7892F8C2989A38AA18C2C80940C
:1014500088218AA30E949209E4E2F1E050E040E092
:1014600030E020E06191A62FA295AF70B0E0909699
:101470008C9190E06F7002C0959587956A95E2F720
:1014800080FD3EC0C501042E02C0880F991F0A943A
:10149000E2F7282B392B4F5F5F4F4F30510511F783
:1014A00089A1882289A28AA1C82ACAA2F8018081BA
:1014B00091812817390739F13183208381E0982AF7
:1014C0000E5F1F4FF8E3EF16F1E0FF0609F0ACCF17
:1014D000292D45E061ED73E087EC93E00E94860AD8
:1014E0000E943807892DDF91CF911F910F91FF90B6
:1014F000EF90DF90CF90BF90AF909F908F90089526
:1015000090E080E0C6CF80E0DACF0895FF920F939D
:101510001F93CF93DF93F82E092F162FD72FC42FA9
:10152000222349F081E0809366010E94502190932C
:10153000650180936401809166018823A1F0809108
:101540006401909165010E945C21069760F0EF2D87
:10155000F02FA12FBD2F90E080E0D0E08C179D07E9
:1015600044F010926601DF91CF911F910F91FF908F
:101570000895219131912D933D930196EFCFEF92F4
:10158000FF920F931F93CF93DF93EB01E82FD111BD
:1015900010C0442321F0F0E0EA5DF44FE4916E2F97
:1015A0007E2F8E2FDF91CF911F910F91FF90EF90A3
:1015B00008950D2F10E0282F30E0442329F02A5DF4
:1015C000344FF901249130E0F6E0CF9FC00111249F
:1015D000EFEFF0E0BF010E946728AB018C2F90E095
:1015E000880F991FA5E5A49FB001A59F700D112438
:1015F000861B970B982F990F980FBF01601B710BDB
:10160000629FD001639FB00D729FB00D11248B2F8C
:101610009D9FB0011124672F7727EF01C61BD70BC1
:10162000BE01629FE001639FD00D729FD00D112417
:101630007F01E91AF108E09EB001E19E700DF09E75
:10164000700D1124672F7727E61BF70BE29F8001AF
:10165000E39F100DF29F100D1124E12F722F4230E5
:10166000510599F048F44115510569F04130510593
:1016700081F0EB2F8D2F07C04430510569F080F0C9
:1016800046305105B1F76E2F8DCFE22F7B2F812F82
:10169000FACFE22F7D2FF7CFEB2F822F712FF3CFD1
:1016A0007B2F822FED2FEFCF41E00C94BF0A0895DE
:1016B000CF93DF93762FE901682F842F0E94540B7C
:1016C000798368838A83DF91CF910895433308F04B
:1016D00042E30C94580B8091DB03982F9E7F61F4BA
:1016E000817082608093DB038091DE03833318F086
:1016F00082E38093DE0308958635B0F381708465BC
:10170000F1CF88E090E00C945929CF92DF92EF92CC
:10171000FF926B017C010E946B0BB701A60188E070
:1017200090E0FF90EF90DF90CF900C947729EBED55
:10173000F3E081E1808311828FEF828382E38383F0
:10174000148260817181828193810C94850B8091D8
:10175000DB0380FF02C08695089580E00895909194
:10176000DF03933018F49F5F9093DF03882351F0D9
:101770006091DB037091DC038091DD039091DE03C7
:101780000C94850B089581E00C94AF0B9091DF03CE
:10179000992319F091509093DF03882351F06091C1
:1017A000DB037091DC038091DD039091DE030C94E8
:1017B000850B089581E00C94C60B70E00C945412D4
:1017C000609108018091DB0380FF0AC080910701CE
:1017D00023E0829FC001112480529C4F0C94DD0BAA
:1017E0008091090190910A0123E0829FF001112468
:1017F000E052FC4F891750F71182108212828F5FDE
:101800003396F8CF9091DB0390FF14C090910901BB
:1018100020910A0133E0939FF0011124E052FC4F24
:10182000921710F00C94E00B8183608342839F5FDA
:101830003396F6CF0895CF93DF9300D00F92CDB7B4
:10184000DEB79091DB0390FF0AC09E012F5F3F4FF0
:101850000E94660B4B8169818A810E94020C0F9065
:101860000F900F90DF91CF910895CF93DF93EC010C
:10187000EC81F0E0EF5DF54F4491EBEDF3E0628138
:1018800081810E941B0C8C818F5F8C83DF91CF91B3
:101890000895CF93DF93EC01EBEDF3E04381628198
:1018A0008C810E941B0C8C818F5F8C83DF91CF9188
:1018B00008950F931F93CF93DF9300D00F92CDB76E
:1018C000DEB78C018091670181110AC09E012F5FF4
:1018D0003F4F42E36FEF0E94660B8A81809367015E
:1018E000F8016481613069F08091670140E066230E
:1018F00061F040E0623011F44091670180E060E007
:1019000004C06091670140E080E00E94020CF80191
:10191000848190E0019663E070E00E947B288483DC
:101920000F900F900F90DF91CF911F910F9108951D
:10193000AF92BF92CF92DF92EF92FF920F931F93DD
:10194000CF93DF9300D00F92CDB7DEB7182FF62ECE
:10195000042FE22E9091DB0390FF29C0E92FE6953A
:10196000AE2FB0E0A85CBE4F8C918093F2029E7FB8
:10197000923059F59E012F5F3F4F812F0E94660BD9
:101980004B8169818A810E94020C1093DC03F092E2
:10199000DD030093DE03EE2051F06091DB037091D4
:1019A000DC038091DD039091DE030E94850B0F9094
:1019B0000F900F90DF91CF911F910F91FF90EF90BB
:1019C000DF90CF90BF90AF900895823019F40091CE
:1019D000DE03DBCF863019F41091DC03D6CF8930DB
:1019E000D9F3893191F6E9518E2F8170D82EE69581
:1019F000F0E0EF5DF44FA590B490C12CBB24609152
:101A00000B01C61618F00E94E00BBFCF2C2D30E062
:101A1000A29EC001A39E900DB29E900D112470E075
:101A20000E946728812FD11013C0860F40910901B1
:101A3000420F532F511D9A01220F331F240F351FC0
:101A400020523C4F402F6F2D0E94660BC394D7CF7E
:101A5000861BECCFEBEDF3E09181282F438162816F
:101A600088E0890F0C94980C81E00C942A0DEBED22
:101A7000F3E09181282F4381628188EF890F0C94D4
:101A8000980C81E00C94370DEBEDF3E0628128E0D7
:101A9000620F08F46FEF282F438181810C94980C1A
:101AA00081E00C94440DEBEDF3E0628128E0621BD1
:101AB00008F460E0282F438181810C94980C81E028
:101AC0000C94530DEBEDF3E0438128E0420F08F452
:101AD0004FEF282F628181810C94980C81E00C9447
:101AE000620DEBEDF3E0438128E0421B08F440E097
:101AF000282F628181810C94980C81E00C94710DE7
:101B000020E00C94980CEF92FF921F93CF93DF93F9
:101B1000EC0110E0EE24EA94F12C60910B01161711
:101B200070F00E94E00B9A818C8190FF27C08F5F3C
:101B30008C83DF91CF911F91FF90EF9008952091BA
:101B40000901422F410F5527551FCA019A01220F43
:101B5000331F280F391F20523C4F70E0C7010E94ED
:101B60007B28962F8C814091DE036091DD03199FC5
:101B7000800D11240E94660B1F5FCFCF8150D8CFFC
:101B8000AF92BF92CF92DF92EF92FF920F931F938B
:101B9000CF93DF93FC0182810FEF80FF01E010E023
:101BA0004DE4A42E80910B011817C8F00E94E00BA1
:101BB00080916901013009F055C0811102C0809106
:101BC0000B01815080936901DF91CF911F910F919B
:101BD000FF90EF90DF90CF90BF90AF900895C091AD
:101BE0000901C12ED12CCC0DDD2DD11DCE01880FC8
:101BF000991FC80FD91FC052DC4F198218821A8250
:101C000034E0E32EF12CB12C809169018B0D8E34E0
:101C10001CF16A2D0E945928892F082E000C990B5F
:101C2000C816D90691F48091DE038E9DA0018F9D88
:101C3000500D112455954795559547959E016091F6
:101C4000DD038091DC030E94660BB00EF1E0EF1A19
:101C5000F108D1F61F5FA6CF87FFDFCF90910B0170
:101C6000890FDBCF90E0019660910B0170E00E943C
:101C70007B28A8CF0F931F93CF93DF938091090107
:101C800090910A0123E0829FF0011124E052FC4F61
:101C9000891740F1C0E0D3E060910B01C61740F115
:101CA0000E94E00B2091050180916801820F8093D2
:101CB000680190910601920F90930601191654F451
:101CC000082E000C990B40910B014150550B8417C5
:101CD00095071CF0219520930501DF91CF911F916D
:101CE0000F9108951182108212828F5F3396D0CFA8
:101CF0000C2F10E070E0C8010E947B2820910901A0
:101D0000820F482F50E020916801022E000C330B07
:101D100002171307BCF020910601022E000C330BB2
:101D2000201731077CF08D9F9001112420523C4FE9
:101D30004091DE036091DD038091DC030E94660B1D
:101D4000CF5FAACFFA01EE0FFF1FE40FF51FE0529D
:101D5000FC4F118210821282F3CF8F929F92AF922A
:101D6000BF92CF92DF92EF92FF920F931F93CF9388
:101D7000DF93EC014C81042F10E09801D8010E9400
:101D8000BF289B01AC010E94D5284B015C01E0E219
:101D9000F0E0E01BF10BA5E5B0E0AC019B010E9477
:101DA000D5286B017C019F01DF010E94B7289B01B0
:101DB000AC010E94E0289B01AC01280D391D4A1D91
:101DC0005B1DC701B6010E948F28F22E822F90E082
:101DD00039E23F1560F143E0249F900111243595CD
:101DE0002795122F109500E085E5E82EEF188091D9
:101DF0000B01081758F10E94E00B9C8181E09923A8
:101E000019F0903219F48FEF80930401809104014E
:101E1000890F8C83DF91CF911F910F91FF90EF90ED
:101E2000DF90CF90BF90AF909F908F90089525E561
:101E300030E0B901681B790B9B01220F331F260F7D
:101E4000371F37FFCCCF2F5F3F4FC9CF8E2D01FDFE
:101E50008F2D20910901622F600F7727771F9B013B
:101E6000220F331F260F371F20523C4F412F609106
:101E7000DD030E94660B0F5FBACF0F931F93CF93C2
:101E8000DF93EC0110E000E090910B019017110638
:101E900009F06CF40E94E00B8C8190E00196817057
:101EA00099278C83DF91CF911F910F9108952091F5
:101EB0000901A801420F511D9A01220F331F240F5F
:101EC000351F20523C4F4C816091DD038091DC0333
:101ED00096959017110651F04CF0442349F040912B
:101EE000DE030E94660B0F5F1F4FCECF4423B9F372
:101EF00040E0F7CF8F929F92AF92BF92CF92DF9246
:101F0000EF92FF920F931F93CF93DF93FC01B28068
:101F1000948081E0848300E015E05BE4A52E8824B2
:101F20008394EE24EA94F12C7BE4C72ED12C80918B
:101F30000B01081770F0DF91CF911F910F91FF9067
:101F4000EF90DF90CF90BF90AF909F908F900C94C8
:101F5000E00BC02FD0E01C9FF0011D9FF00D11245D
:101F6000E659FE4F91101CC0138212822091090184
:101F7000CE01820F911D9C01220F331F280F391FA4
:101F800020523C4F1C9FF0011D9FF00D1124E6597B
:101F9000FE4F4281618180810E94660B0F5FC7CF37
:101FA0002381222379F12150238334818A2D821BBE
:101FB000311101C0822F1C9FF0011D9FF00D1124D3
:101FC000E659FE4F9091DE03899FC0011124B601AE
:101FD0000E9467286283211104C0332311F0148208
:101FE000A38222E02B1510F21C9FF0011D9FF00D23
:101FF0001124E659FE4F8091DC0380838091DD033C
:102000008183B4CF0E943429823091400CF0AECF4E
:1020100082E08B1530F50E943429B7010E947B289D
:102020001C9FF0011D9FF00D1124E659FE4F808387
:1020300022E02B15C8F40E9434292091DD03269557
:10204000622F70E00E947B28280F1C9FF0011D9FCB
:10205000F00D1124E659FE4F21831282A38284825F
:1020600085CF8091DC03DCCF2091DD03EECFEBED5B
:10207000F3E080818E7F8083608171818281938192
:102080000E94850B1092F3022FEF80E792E021501F
:1020900080409040E1F700C000000C94E00BEBEDB5
:1020A000F3E080818E7F80831092F3022FEF80E730
:1020B00092E0215080409040E1F700C000000C9475
:1020C000E00B6091DB03669570E04BE050E08CE044
:1020D00091E00E944429892B19F481E08093F30256
:1020E0000E9450219093EC028093EB02089590910E
:1020F000DB0390FF35C09170811128C092609093EE
:10210000DB03662351F06091DB037091DC03809167
:10211000DD039091DE030E94850B6091DB036695E1
:1021200070E04BE050E08CE091E00E944429892B64
:10213000A1F01092F30281E08093EE024091DE0361
:102140006091DD038091DC030C94800D8B3210F0E4
:102150009465D5CF880F982BD2CF0E946110EBCF1A
:102160000895682F9091DB03969581E0890F8B325B
:1021700008F081E00C94771081E00C94B110682F86
:102180009091DB0396958FEF890F09F48AE20C9406
:10219000771081E00C94BF1061E00C947710EBEDA8
:1021A000F3E080818160808386950C94CC108091CF
:1021B000DB0380FD0C9437100C94CF1060E00C947E
:1021C00077108091F10281112EC00E94511F811160
:1021D00004C00E94EE1F0E94970B0E94810B609327
:1021E000DB037093DC038093DD039093DE036E7F4B
:1021F00061F40E94970B0E94810B6093DB03709344
:10220000DC038093DD039093DE030E946B0B10923E
:10221000F3028091DB0380FF03C086950E94DE10ED
:1022200081E08093F1020895EBEDF3E0808181601D
:10223000808386950C94DE101092F30208950F931C
:102240001F93CF93DF938091F302882309F49DC0FD
:102250008091F202E091DB03E695E81BE093ED024A
:102260008230C9F5F0E0E35EF54FE491CE2FD0E087
:1022700005E31CE08091EE02882389F01092EE02C3
:102280000E9450219E0120953095820F931F9093BC
:10229000EC028093EB021092F0021092EF02809118
:1022A000EB029091EC020E945C218C179D0708F4D0
:1022B0006CC0E091EB02F091EC02CE0FDF1FD093E7
:1022C000EC02C093EB028BEE92E0F801DF91CF912C
:1022D0001F910F910994863049F4F0E0E65EF54FC6
:1022E000E491CE2FD0E009E41CE0C4CF893051F452
:1022F000E695F0E0E95EF54FE491CE2FD0E003E8FB
:102300001DE0B8CF8F3051F4E695F0E0EC5EF54F6C
:10231000E491CE2FD0E000EC1DE0ACCF853149F444
:10232000F0E0EF5EF54FE491CE2FD0E00AE31EE03F
:10233000A1CFC8E2D0E00DEA1EE0883109F49ACFBF
:10234000833239F4EFE0FAE0C591D49109E51CE05D
:1023500091CFC4EFD1E00DE31FE0843209F48ACFBE
:10236000C0EDD7E007E51BE0853209F083CF8E2F63
:1023700063E00E944D28E92FF0E0E45FF54FE4911F
:10238000CE2FD0E00AE71FE075CFDF91CF911F91EC
:102390000F910895FA01811101C0FB010994CF93B7
:1023A000DF93C82FD62F0E94A70B8C1740F00E94F6
:1023B000A70B8D1720F4DF91CF910C94BC108C2FBC
:1023C000DF91CF910C94CC100F931F93CF938C017E
:1023D000FB01C281CC2309F465C00E949C1E82725D
:1023E000F801E25CFC45E431F10538F4E654F64DC1
:1023F0000C94B1280E94D710C0E08C2FCF911F9170
:102400000F91089549EC50E16CEB70E10E94CA1104
:10241000F3CF4CEB50E169EC70E1F8CF41E45DE0C3
:1024200064E37DE0F3CF44E35DE061E47DE0EECF83
:102430004FE55DE060E57DE0E9CF40E55DE06FE51B
:102440007DE0E4CF4DE75DE06EE67DE0DFCF4EE678
:102450005DE06DE77DE0DACF4AED5BE063EC7BE0C9
:10246000D5CF43EC5BE06AED7BE0D0CF81E00E940A
:10247000CC10C2CF65E082E00E94CF11BDCF68E0F2
:1024800086E0FACF6EE089E0F7CF64E18FE0F4CF29
:1024900067E185E1F1CF88E1EACF62E289E1ECCF43
:1024A00083E2E5CFC1E0A9CF809A41B34E7F51B31B
:1024B0005160EFB7F8949B01220F331F260F371F8F
:1024C000280F391F2817390741F4EFBF8FE594E033
:1024D0000197F1F700C000000895DC016D91CD0176
:1024E00078E051BB000000C067FF41BB660F0000F1
:1024F00000C000C000C041BB00C07A9591F7E2CF98
:10250000AF92BF92CF92DF92EF92FF920F931F9301
:10251000CF93DF937C015B01C42FD22FFC0182811A
:102520008823F9F04093F6020E9450219093F5021F
:102530008093F40280E28C0F883008F061C0C7708D
:1025400081E001C0880FCA95EAF7DF91CF911F9112
:102550000F91FF90EF90DF90CF90BF90AF900C94D1
:10256000D1161091F602141340C08091F40290919C
:10257000F5020E945C216C01B701C5010E94901B0D
:10258000C816D90690F5C0E2CD0F1D17B9F080E24C
:10259000810F883040F4177081E001C0880F1A95D0
:1025A000EAF70E94D816C83048F481E09D2F977052
:1025B00001C0880F9A95EAF70E94D116802F0E94D9
:1025C000BE16C830E8F4D77081E001C0880FDA95F4
:1025D000EAF7DF91CF911F910F91FF90EF90DF907D
:1025E000CF90BF90AF900C94D81680E28C0F8830BB
:1025F00038F4C77081E001C0880FCA95EAF7E9CFC7
:10260000DF91CF911F910F91FF90EF90DF90CF90CE
:10261000BF90AF9008950F939C01CB01233F4CE5F1
:10262000340759F1A8F4283DFCE53F0701F1293DA5
:102630004CE53407D1F1273D3C4591F406E221EE0B
:1026400041EE67ED7CE50E94801280E00F910895D5
:10265000253FFCE53F07E9F0B0F0263F3C45F9F0A7
:10266000FC018281882339F11092F602EFCF07E254
:1026700025EE45EE68ED7CE5E6CF06E221EE40EE84
:1026800063EF7CE5E0CF07E225EE44EE64EF7CE506
:10269000DACF06E221EE42EE65EF7CE5D4CF07E229
:1026A00025EE46EE66EF7CE5CECF08E221E045EE72
:1026B00069ED7CE5C8CF81E0C9CFCF93DF93EC0112
:1026C000FB018281882309F419C1C230FCE5DF07D0
:1026D000C0F1C6319CE5D90730F09E012A5F3C4528
:1026E0002930310570F50E94641F9093CC048093CB
:1026F000CB04C031ECE5DE0709F4CFC008F05BC0C5
:10270000C8308CE5D80709F4B6C088F5C430ECE5CC
:10271000DE0709F4A8C0C0F4C2308CE5D80709F47C
:102720009CC08091CB048260C330DC4509F498C022
:102730008091CB049091CC040E94721F0E941A19C0
:1027400080E0DF91CF9108958091CB048061C63005
:10275000ECE5DE0709F484C08091CB048860C730C3
:10276000DC4508F47DC08091CB04806279C0CC3018
:102770008CE5D80709F489C070F48091CB048C6093
:10278000CA30ECE5DE0709F46BC008F478C080912C
:10279000CB048E7F65C0CE308CE5D80709F479C0B4
:1027A0008091CB048B7FCF30DC4508F459C08091F9
:1027B000CB048F7E55C0CB3FECE5DE0709F457C054
:1027C00030F5C3318CE5D80709F46FC078F4C13116
:1027D000ECE5DE0709F465C0C231DC4509F0A8CF9D
:1027E0000E941A198091CB048F773AC0C5318CE5CD
:1027F000D80709F462C008F476C08091CC048160E7
:10280000CA3FDC4509F094CF8093CC0491CFCF3FF1
:10281000FCE5DF0709F44DC088F48091CC048D7F7E
:10282000CD3F9CE5D90781F38091CC048E7FCE3FCC
:10283000DC4550F38091CC048360E6CFC130FDE5E8
:10284000DF0709F459C008F444C080E0C230DD4518
:1028500009F06ECF0E94F01F6BCF8091CB04816096
:102860008093CB0465CF8091CB048460F9CF8091B5
:10287000CC048260C9CF8091CB048064F1CF0E94E8
:102880001A198091CB048068EBCF8091CB048D7FA7
:10289000E7CF8091CB04877FE3CF8091CB048F7DFE
:1028A000DFCF8091CB048F7BDBCF8091CB04837F04
:1028B000D7CF8091CC048C7FA7CF8091CB0482FBB3
:1028C000992790F921E0922790FB82F990FB83F9F8
:1028D000C7CF8091CC04982F909591708E7F892BD3
:1028E00090FB81F991CF0E941A199091CB04892F06
:1028F00097FB87F98058B4CF81E0ACCF81E021CF3E
:10290000CF93DF93EB0186319C4511F50E949C1E0D
:102910009A81992399F08A7A91E009F490E0909352
:10292000F702811109C089E20E94771E0E94E81E09
:1029300080E0DF91CF91089585E3F6CF8091F70293
:10294000811104C089E20E947E1EF0CF85E3FBCF97
:1029500081E0EFCF9093FD028093FC020895E09117
:10296000FC02F091FD02309721F00190F081E02D02
:10297000099480E00895E091FC02F091FD02309707
:1029800099F020912301222359F02091CB0427FFB5
:1029900007C0DC012C9111962C93119725E02C9304
:1029A0000280F381E02D099408952091FA0230917C
:1029B000FB022817390771F09093FB028093FA020B
:1029C000E091FC02F091FD02309721F00680F78142
:1029D000E02D099408952091F8023091F90228170A
:1029E000390771F09093F9028093F802E091FC02AC
:1029F000F091FD02309721F00084F185E02D0994DB
:102A0000089585B7806885BF85B7806885BF0895BC
:102A1000089508950C94081508950C940C150E94BF
:102A200001150E9409150C940A1581E008950C9473
:102A300015150E9447210E9496090E94C9210E94F3
:102A4000E1100C940D159F92AF92BF92CF92DF923E
:102A5000EF92FF920F931F93CF93DF93CDB7DEB723
:102A60002A970FB6F894DEBF0FBECDBF0E94FE09B5
:102A70000E941715882309F470C05FEFA52E52E05D
:102A8000B52E10E000E0902E802F0E9488096C0186
:102A9000F501E190F1905F01E816F90609F457C0DD
:102AA0008091A10381FD0E94910997012C253D256C
:102AB00080E0EE24E394F12CA9014E215F21452B07
:102AC00009F43FC08E839F82CE20DF2081E0CD2895
:102AD00009F480E088870E9450218160782F9A87CE
:102AE00089874E815F8168858A850E94D015000F95
:102AF000111FF801E150FD4F80819181E826F926F0
:102B0000F182E0820E941F110E94AF149091FE0298
:102B10008917A1F10E94AF148093FE022A960FB686
:102B2000F894DEBF0FBECDBFDF91CF911F910F9103
:102B3000FF90EF90DF90CF90BF90AF909F900C945C
:102B400092078F5FEE0CFF1C8F3009F0B5CF0F5F3F
:102B50001F4F0530110509F096CF8FEF89838A83C7
:102B60001B820E9450218160782F9D838C83498134
:102B70005A816B818D810E94D015C4CF2A960FB6E1
:102B8000F894DEBF0FBECDBFDF91CF911F910F91A3
:102B9000FF90EF90DF90CF90BF90AF909F900895FF
:102BA000CF93DF93CDB7DEB72B970FB6F894DEBF88
:102BB0000FBECDBF4F83588769877A878B871E8268
:102BC0001D8285E0FE013796DE01119601900D927F
:102BD0008A95E1F749815A816B817C818D819E8143
:102BE0002B960FB6F894DEBF0FBECDBFDF91CF910D
:102BF0000C94931BFC01808191810C94491ECF930E
:102C0000C82F882309F469C08238C1F40E94AF1428
:102C100081FD63C089E30E94771E0E94E81E2FEFAA
:102C200081EE94E0215080409040E1F700C0000028
:102C300089E30E947E1ECF910C94E81E8338A1F494
:102C40000E94AF1480FD49C083E50E94771E0E9458
:102C5000E81E2FEF81EE94E0215080409040E1F794
:102C600000C0000083E5E5CF8438A1F40E94AF14D2
:102C700082FD33C087E40E94771E0E94E81E2FEF7A
:102C800081EE94E0215080409040E1F700C00000C8
:102C900087E4CFCF8CEF8C0F813A90F46C2F80912A
:102CA0001701909118010E940920882329F08C2F88
:102CB0000E947E1E0E94E81E8C2F0E94771EBBCFB2
:102CC00080E28C0F883048F4C77081E001C0880F23
:102CD000CA95EAF70E949F1EAECFCF910895882330
:102CE00009F44BC0823871F40E94AF1481FF45C0D3
:102CF00089E30E94771E0E94E81E89E30E947E1EDF
:102D00000C94E81E833859F40E94AF1480FF35C03C
:102D100083E50E94771E0E94E81E83E5EFCF84388A
:102D200059F40E94AF1482FF28C087E40E94771EE6
:102D30000E94E81E87E4E2CF9CEF980F913AF0F2F0
:102D400090E2980F983050F4877091E001C0990F8D
:102D50008A95EAF7892F0E94A51ED2CF9BE5980F8E
:102D6000933020F490E080E00C94D514885A873199
:102D700020F490E080E00C94EB140895CF93C82FDA
:102D80000E94FF15C93349F42FEF87EE93E02150DD
:102D900080409040E1F700C000008C2FCF910C9450
:102DA0006F16882321F00E949F1E0C94E81E089540
:102DB000882321F00E94A51E0C94E81E0895BF925E
:102DC000CF92DF92EF92FF920F931F93CF93DF93F7
:102DD0006C01D62FC72FFC01158112951F7002813F
:102DE00001110E94BC1E0E94951EE82E882391F0BE
:102DF0000023D1F08C2F807F803421F080E28D0F72
:102E0000883090F082E00E94331F0E94951E91E06E
:102E1000E82EE926BC2EB2949FE0B922EB2DF0E01B
:102E2000E253F64D0C94B128E12CF4CF1C2F1F7007
:102E3000C07F11F01295107F0023A9F0112359F0E3
:102E400080E28D0F883010F0D11109C0812F0E94CF
:102E50009F1E0E94E81E8D2F0E94FF1514C0812F17
:102E60000E94AF1EF6CF8D2F0E946F16112359F0CE
:102E700080E28D0F883010F0D1112CC0812F0E947C
:102E8000A51E0E94E81E2B2D2850330B243031053F
:102E900020F40E94AF140E949207EE2009F477C13B
:102EA0000E94911E80FD73C1F60112820E948B1E4A
:102EB0000E94171DC6010E94E8180E948B1EDF9118
:102EC000CF911F910F91FF90EF90DF90CF90BF9027
:102ED0000C94381D812F0E94B51ED3CFFC2FFF709C
:102EE000FF2EC07FC03219F0F29480EFF822DD236C
:102EF00069F0D13049F1002391F1112351F1F6012C
:102F0000858180FFA8CF8F70858323C0002381F047
:102F1000111106C00E94CF1E8F290E94D116B3CF77
:102F20001130C1F70E94CF1E8F290E94D51EABCF52
:102F3000111106C00E94DE1E8F2D0E94D816A3CF4D
:102F4000113009F4A0CFF6CF002329F0163008F095
:102F50009ACF8F2DE2CF153008F095CFEDCF11230A
:102F600059F3D93349F4FFEF27EE33E0F150204015
:102F70003040E1F700C000008D2F0E946F1683CF14
:102F80008C2F837009F041C001117DCF4D2F4295E8
:102F900046954770440F440F0D2F0F7010E030E03E
:102FA00020E0042E04C0000F111F221F331F0A94BB
:102FB000D2F760E070E0CB01D4FF0FC06FE070E0AB
:102FC00080E090E004C0660F771F881F991F4A9524
:102FD000D2F76095709580959095C695C695C3700B
:102FE000602B712B822B932BC23049F058F4C130E7
:102FF00019F00E94C91C47CF0E94B71C44CF0E9401
:10300000DB1C41CF0E94B51C3ECF8695002311F0FA
:103010008C2F8170882309F436CF4D2F4295469529
:103020004770440F440F0D2F0F7010E030E020E088
:10303000042E04C0000F111F221F331F0A94D2F761
:1030400060E070E0CB01D4FF0FC06FE070E080E083
:1030500090E004C0660F771F881F991F4A95D2F72A
:103060006095709580959095C695C695C370602BB8
:10307000712B822B932BC23049F058F4C13019F0D8
:103080000E948E1D00CF0E947C1DFDCE0E94A01DBF
:10309000FACE0E94F11CF7CECF70002329F08C2FBE
:1030A0000E94171D8D2F39CF8D2F0E94D8168C2F7F
:1030B0000E94381DE8CED23F89F160F4D03FC9F0BC
:1030C000D13F29F1002309F442C01111C4CE8C2F45
:1030D0008F7121C0D33F39F1D43FA1F7002369F1AB
:1030E000CF718C2F0E94171D63E08C2F0E941E1F32
:1030F000CACE002341F0153008F0C5CE8C2F8F7159
:103100000E945B1DC0CE163008F0BDCEF7CF8C2FCD
:103110008F71002369F20E94171DB5CE8C2F8F711D
:103120000023C9F3C5CF002329F08C2F8F710E9493
:10313000021DA9CE0E94FD1CA6CE81E00E94331F75
:10314000123008F4A0CE82E00E94331F9CCE1123DF
:1031500059F0D93309F010CF8FEF97EEE3E08150AB
:103160009040E040E1F706CF8C2F8F71A1CF4C2F1C
:103170004F706D2FC6010E94D2060E942D1C83CE77
:103180004C2F4F706D2FC6010E949A077CCEDF91A5
:10319000CF911F910F91FF90EF90DF90CF90BF9054
:1031A00008950F931F93CF93DF93EC01688179818A
:1031B0008A810E94531E8C010E94B21D0E94B41C81
:1031C000B801CE01DF91CF911F910F910C94DF16C2
:1031D000CF93DF93EC018B819C81892B29F088812F
:1031E000998189238F3F59F4DF91CF910895CE01C2
:1031F0000E94D118CE01DF91CF910C942307CE010C
:103200000E944A078111F3CF0E94951E882361F323
:103210008A81882349F382E0DF91CF910C94331F98
:103220000E94BC1E0E94CC1E0C94E81E0E94851EAB
:103230000C9410190E94AC1E0C941619E92FE295FB
:10324000EF70E250EE3070F4F0E0E252F64D0C9484
:10325000B128803F19F020F4883E20F481E00895E1
:10326000843FE1F380E00895883EC0F3813FD1F7C9
:10327000F5CF93FB882780F908950E94491E0C948E
:103280001E19CF93DF9300D000D00F92CDB7DEB7D9
:103290000F900F900F900F900F90DF91CF910895A6
:1032A000CF93DF9300D000D000D0CDB7DEB7269605
:1032B0000FB6F894DEBF0FBECDBFDF91CF9108955A
:1032C0001F93CF93DF93C0910A0316E080910B0305
:1032D0008C1304C0DF91CF911F910895D0E01C9F03
:1032E000F0011D9FF00D1124E45FFC4F40815181DE
:1032F00062817381848195810E9450192196C770E3
:10330000E5CF40913C0350913D0360913E037091A5
:103310003F0380914003909141030C9450191F93F7
:10332000CF93DF9380914103807FA9F480913E0386
:10333000882389F080910A03C0910B0360913C03BC
:1033400070913D03A0913F03B0914003D62FD72346
:1033500016E0C81304C0DF91CF911F91089590E04B
:10336000109711F0DF3F19F401968770F2CF189F84
:103370009001199F300D1124F901E45FFC4F418148
:103380004713F2CF40814613EFCF42814111ECCF7A
:10339000438154814A1B5B0B483C510528F78091BF
:1033A00041038F70806180934103F901EF5EFC4F10
:1033B00080818F70806180838CE393E00E94E818A5
:1033C000DF91CF911F910C946019AF92BF92CF9271
:1033D000DF92EF92FF920F931F93CF93DF93CDB7BE
:1033E000DEB761970FB6F894DEBF0FBECDBF8C017C
:1033F00085E0F801DE011D9601900D928A95E1F7B6
:10340000F80140815181E2808CE3C82E83E0D82E00
:1034100060913F03709140036115710509F461C12A
:1034200090913C0320913D03892F82238F3F09F423
:1034300058C1A380B480F0903E03F501E61BF70B62
:10344000FF2009F4FCC080914103382F307FE83C15
:10345000F10508F0B2C0311179C0FE2C251323C04C
:10346000941321C0E1101FC08F70806180934103CD
:103470000E948119C6010E94E81880914103F80159
:1034800085838F2D61960FB6F894DEBF0FBECDBF3A
:10349000DF91CF911F910F91FF90EF90DF90CF9030
:1034A000BF90AF900895AB2829F0842F85238F3FDC
:1034B00009F033C180E0F82FF170DF2E80FF3CC0AF
:1034C00080910A0320910B0336E0821315C04D87CB
:1034D0005E878D859E850E94491E292F22952F701B
:1034E0002230F0F0243018F59F70F1F0F80195814A
:1034F000907FD1F4D12C1EC090E0389FF001399F0D
:10350000F00D1124E45FFC4F6181651306C06081FA
:10351000641303C062816E110FC001968770D5CF0E
:103520009F7011F0882331F3805E883018F3C80152
:103530000E94E818FD2CA5CFEE2009F4A2CF8091BF
:103540004103816080934103F12C9BCF251306C07A
:10355000941304C0F801EE2009F48DC04D875E87F6
:103560008D859E850E943D19882319F1EE2009F171
:1035700080914103803270F020913C0330913D03F3
:1035800038872F831986BB86AA868C87CE0107963B
:103590000E94E81886E0F801ACE3B3E001900D92D8
:1035A0008A95E1F70E948F190E948119FF24F394F4
:1035B00068CFC8010E94E818F9CF311113C07A2DE5
:1035C000B98AA88A6E2D89890E9441198CE393E0FB
:1035D0000E94E81886E0F60111928A95E9F70E94A8
:1035E0008119B2CF25130FC094130DC0E1100BC089
:1035F000F8018583C8010E94E81886E0F60111925F
:103600008A95E9F73ECF4D875E878D859E850E941E
:103610003D19882371F2EE2061F2809141038032DE
:1036200008F4B8CF20913C0330913D033A832983BD
:103630001B82BD82AC828E83CE010196A9CFE83C6D
:10364000F10508F041C0FE2CEE2009F4B2CF25139D
:103650002AC0941328C08091410380FD1BC0982F7D
:10366000907FC1F0F8018583903F31F0982F907FD3
:10367000905F8F70892B8583C8010E94E81886E0CF
:10368000F801ACE3B3E001900D928A95E1F70E9456
:103690008119F7CE86E0F801ACE3B3E001900D921A
:1036A0008A95E1F7EECE4D875E878D859E850E94D7
:1036B0003D1981116FCF8091410381608093410357
:1036C000C8010E94E818DDCE7A2DB98AA88A6E2D2D
:1036D00089890E94411986E0F60111928A95E9F7DD
:1036E000D6CFEE2009F465CF4D875E878D859E8508
:1036F0000E943D19F82E882309F45BCF86E0F8017B
:10370000ACE3B3E001900D928A95E1F78CE393E08E
:103710000E94FA150E948F19BACF81E08E25CBCE78
:1037200088EC90E008951F93CF93DF93CDB7DEB779
:103730002C970FB6F894DEBF0FBECDBF4F835887CE
:1037400069877A878B879C87CE0107960E94E51947
:10375000882369F08A859B85892B39F04F815885AC
:10376000842F85238F3F09F071C016E05FC086E08B
:10377000FE013796DE01119601900D928A95E1F7D0
:103780008A859B85892B89F38F81988589238F3F33
:1037900061F320910B0330E0C901019687709927EE
:1037A00040910A034817190671F40E941A191092E1
:1037B0000B0310920A0386E0ECE3F3E0DF011D92B5
:1037C0008A95E9F7D2CF96E0929FD001939FB00DF2
:1037D0001124A45FBC4FFE01319601900D929A9581
:1037E000E1F780930B030E946019BFCF819FC00156
:1037F0001124845F9C4F0E94E5198823E9F0E09131
:103800000A031E9FF0011124E45FFC4F40815181A7
:1038100062817381848195810E94501980910A038D
:1038200090E001968770992780930A0380910A039C
:1038300090910B038913DACF2C960FB6F894DEBF64
:103840000FBECDBFDF91CF911F91089569857A8515
:103850008B859C850E94501988CFEF92FF920F9321
:103860001F93CF93DF938C01892B81F0F12CEE24F1
:10387000E394E8012196F8018491843770F4843050
:1038800008F05FC08130B1F08230A1F1DF91CF91BB
:103890001F910F91FF90EF900895853709F44CC068
:1038A00008F43DC09CE7980F903780F78F770E940F
:1038B0006F1649C00E5F1F4FFE01849190E2980F72
:1038C000983060F48770FE2D01C0FF0F8A95EAF7EB
:1038D0008F2F0E94BF1E0E94E81E02C00E94FF158B
:1038E0008F2D815030F2EFE9FFE03197F1F700C002
:1038F0000000F7CF0E5F1F4FFE01849190E2980FFA
:10390000983050F48770FE2D01C0FF0F8A95EAF7BA
:103910008F2F0E94C51EDFCF0E946F16E1CF0E5F72
:103920001F4FFE01C491C150D8F28FE99FE001976B
:10393000F1F700C00000F7CF0E5F1F4FFE01F490BB
:10394000CFCF0E94FF158E01CBCF08950C94A51CFC
:103950000E94A61C609378037093790380937A0386
:1039600090937B030C94101908950C94A81C0F934A
:103970001F93009178031091790320917A0330917D
:103980007B03602B712B822B932B1F910F910C9437
:10399000A81C0F931F930091780310917903209135
:1039A0007A0330917B0360237123822393231F9139
:1039B0000F910C94A81C0F931F9300917803109102
:1039C000790320917A0330917B0360277127822746
:1039D00093271F910F910C94A81C0C94A51C0C9478
:1039E000ED1C0E94EF1C6093740370937503809329
:1039F0007603909377030C94101960E070E0CB018C
:103A00000C94F11C0F931F9341E050E060E070E0D4
:103A10008A019B0104C0000F111F221F331F8A95CA
:103A2000D2F7C901B8011F910F910C94F11C0F93AB
:103A30001F9341E050E060E070E004C0440F551F68
:103A4000661F771F8A95D2F7809174039091750352
:103A5000A0917603B09177038A019B01082B192B63
:103A60002A2B3B2BC901B8011F910F910C94F11C1B
:103A70000F931F9341E050E060E070E004C0440FFA
:103A8000551F661F771F8A95D2F7CB01BA01609543
:103A90007095809590950091740310917503209115
:103AA00076033091770360237123822393231F9140
:103AB0000F910C94F11C0F931F9341E050E060E0D4
:103AC00070E004C0440F551F661F771F8A95D2F718
:103AD0008091740390917503A0917603B091770360
:103AE0008A019B01082719272A273B27C901B8010A
:103AF0001F910F910C94F11C0F931F93009174036D
:103B0000109175032091760330917703602B712B10
:103B1000822B932B1F910F910C94F11C0F931F93E9
:103B2000009174031091750320917603309177030F
:103B300060237123822393231F910F910C94F11C16
:103B40000F931F93009174031091750320917603D6
:103B50003091770360277127822793271F910F9158
:103B60000C94F11C08952FE0929F800D1124982F42
:103B7000977041E001C0440F9A95EAF786958695C3
:103B8000869595E0899FF0011124EE5BFC4F90E053
:103B900080E070E05191DF0111979B01082E02C077
:103BA000369527950A94E2F721702195252724233D
:103BB00025272C9301968530910561F708952FE014
:103BC000929F800D1124982F9770869586958695E3
:103BD00025E0829FF0011124EE5BFC4F50E040E0B5
:103BE00080E0219130E0092E02C0369527950A9495
:103BF000E2F721703327042E01C0220F0A94EAF75E
:103C0000822B4F5F5F4F4530510559F70895BF92A2
:103C1000CF92DF92EF92FF920F931F93CF93DF9398
:103C20008C01C0907403D0907503E0907603F090FF
:103C300077038091780390917903A0917A03B091F2
:103C40007B03C82AD92AEA2AFB2ACFE1D0E0BC2E7E
:103C5000D701C6010C2E04C0B695A79597958795F8
:103C60000A94D2F780FD0EC0219788F7B12C8B2DD6
:103C7000DF91CF911F910F91FF90EF90DF90CF9048
:103C8000BF900895B8018C2F0E94B707019761F388
:103C9000EECFCF93DF93EC010E94071EBE01DF91B0
:103CA000CF910C94B7071F93CF93DF93EB019091C3
:103CB0000903992331F0CB01DF91CF911F910C942F
:103CC000491E882379F0CB010E94071E182F682F08
:103CD000CE010E94B31DBE01812FDF91CF911F91B4
:103CE0000C94B707CB010E94DF1D182FF4CF682F6B
:103CF00080911701909118010C948920682F809170
:103D00001701909118010C949420809117019091C3
:103D100018010C949F2080917C038595859585954D
:103D2000089580917C038770089590917C0397702B
:103D300081E009F480E008958091A00308959091B6
:103D4000A003892B8093A003089580959091A003F0
:103D500098239093A00308951092A0030895909142
:103D60009F03892B80939F030895809590919F03D3
:103D7000982390939F03089510929F030895909124
:103D80009E03892B80939E030895809590919E03B6
:103D9000982390939E03089510929E030895809116
:103DA0007D03089508950C94D21E90917D03981779
:103DB00021F080937D030C94D31E089580917D03A0
:103DC000882329F010927D0380E00C94D31E08957F
:103DD000E0911701F09118018091A0038083E09198
:103DE0001701F0911801808190919F03892B8083A6
:103DF000E0911701F0911801808190919E03892B29
:103E0000808390917D03992381F0E0911701F091D7
:103E100018018081892B808380911701909118016E
:103E20000E94F51F81110E94DE1E80911701909162
:103E300018010C94BB1408950C941B1F98E0899FE3
:103E400090011124622B60937C030E94171D8091C6
:103E50007C038595859585950C941C1F10927C0399
:103E600080E00C941C1F90917C03809589238093A3
:103E70007C03282F277071F4282F082E000C330B99
:103E80009217130639F08595859585950E94381D02
:103E90000C942E1F08956FEF7FEF90E080E00C945C
:103EA000832990E080E00E945F2921E08C3E9E4FB4
:103EB00009F020E0822F089582E090E00C945129CF
:103EC00083E090E00C945129CF9384E090E00E942D
:103ED0005129C82F81E290E00E945129982F8C2F00
:103EE000CF910895CF93C92F682F84E090E00E946E
:103EF00065296C2F81E290E0CF910C946529AB018C
:103F0000BC018FE090E00C947729AB01BC0183E108
:103F100090E00C94772960E070E0CB010C94851F51
:103F200060E070E0CB010E947F1F0C948B1F6CEE51
:103F30007EEF90E080E00E94832960E082E090E0E4
:103F40000E94652960E083E090E00E94652910925C
:103F500078031092790310927A0310927B0360E049
:103F600084E090E00E94652960E081E290E00E9498
:103F7000652960E085E090E00E94652960E086E0C8
:103F800090E00E9465296FEF87E090E00E9465292C
:103F900040E050E0BA0188E090E00E94772960E0BC
:103FA0008DE090E00E94652940E050E0BA0188E190
:103FB00090E00E94772960E087E190E00E94652907
:103FC00040E050E0BA018CE190E00E94772960E087
:103FD00080E290E00E9465290C94901F0C94971F3A
:103FE000682F8EE090E00C946529FC013296809158
:103FF0002301882321F08091CB049EE187FF96E086
:1040000080E0915008F4089521912223D1F38F5F2D
:10401000F8CF662301F1209123012223F1F02091B2
:10402000CB0427FF1AC0462F4695469546954E313C
:1040300090F4677021E030E002C0220F331F6A95D0
:10404000E2F7840F911DFC01828190E0282339233F
:1040500081E0232B69F480E00895FC0132960896F4
:104060002191261721F0E817F907D1F7F4CF81E065
:1040700008959C01FC0132969FEF80E04191461724
:1040800051F09F3F19F4411101C0982F8F5F863086
:10409000A9F79F3F09F40895290F311D97FD3A951F
:1040A000F90162830895FC01329608962191261346
:1040B00003C0DF0111971C92E817F907B9F70895BB
:1040C000E62FE695E695E695EE3168F4E80FF92FD0
:1040D000F11D677021E030E001C0220F6A95EAF718
:1040E0008281822B82830895E62FE695E695E695F8
:1040F000EE3170F4E80FF92FF11D677021E030E028
:1041000001C0220F6A95EAF7209582812823228335
:10411000089520912301222329F02091CB0427FD2B
:104120000C9460200C94392020912301222329F043
:104130002091CB0427FD0C9474200C945320FC0197
:10414000329680912301882351F08091CB0487FF20
:1041500006C08EE1DF011D928A95E9F7089586E099
:10416000F9CF089508950C94B2200E94B320809155
:10417000D104843009F439C01092A20388E190E0A0
:1041800020E40FB6F894A895809360000FBE2093AA
:10419000600080E00E9492070E941C118091A3039E
:1041A00081110AC081E08093A3038091DB038170B9
:1041B0008093A4030E944F100E94B32083B7817F95
:1041C000846083BF83B7816083BF7894889583B709
:1041D0008E7F83BF0FB6F894A895809160008861A8
:1041E00080936000109260000FBE08950895CF93F1
:1041F0000E94B1200E94FE090E94F620C0E08C2F90
:104200000E948809892B31F4CF5FC530C1F780E067
:10421000CF91089581E0FCCF08950C940C210E9469
:104220001A190E94AF140E9492071092A303809162
:10423000A40381110E9414110E9461100C940D219D
:104240001F921FB61F9211248F939F93AF93BF931A
:104250008091A203811113C08091C7049091C8047A
:10426000A091C904B091CA044196A11DB11D8093CB
:10427000C7049093C804A093C904B093CA04BF9123
:10428000AF919F918F911F901FBE1F90189582E054
:1042900084BD93E095BD9AEF97BD80936E0008951D
:1042A0002FB7F8948091C7049091C804A091C904D5
:1042B000B091CA042FBF08959C014FB7F894809124
:1042C000C7049091C804A091C904B091CA044FBF1B
:1042D000821B930B089578941F921FB61F9211248E
:1042E0008F939F93AF93BF938091C7049091C8041D
:1042F000A091C904B091CA040196A11DB11D80937B
:10430000C7049093C804A093C904B093CA04BF9192
:10431000AF919F918F911F901FBE1F90189581E0C4
:104320008093E00080E28093D8001092C9008FE172
:104330009EE40197F1F700C0000087E090EBDC01FC
:104340008093DA049093DB04A093DC04B093DD0443
:1043500088E19CE00FB6F894A895809360000FBEAA
:1043600090936000FFCF0C944B1F0E94FE098FE3D7
:104370009CE90197F1F700C000000E94FE0980E06F
:104380000E94880980FF04C00E94B3210C948F21F1
:1043900008950E94511F811102C00E94EE1F0E94C9
:1043A0005C1F8093A1030E94641F9093CC048093B0
:1043B000CB040E94601F682F70E090E080E00E94B4
:1043C000B51C609174037091750380917603909190
:1043D00077030C94EF1C8091C50308950895089508
:1043E000CF93DF93EC01809123018823B1F1809179
:1043F000CB0487FF32C060E282E08093E9008FEF58
:104400009091E800815095FD06C095ED9A95F1F7E1
:1044100000008111F5CF8091E80085FF1BC08091DD
:10442000230170E050E040E0811104C050E040E022
:1044300068E070E0CE010E94BC238091E8008E7796
:104440008093E80080E2FE01A5EAB3E001900D92BE
:104450008A95E1F7DF91CF91089568E081E0CDCFB3
:1044600008958091D004811109C00E944C250E94BA
:10447000A9258091E20084608093E2000895109263
:10448000D0040895089508950C940F2142E061EC42
:1044900081E00E94C82442E261EC82E00C94C824CE
:1044A0008091D304833009F45FC030F48130C1F1CE
:1044B000823009F49BC008958A3009F487C08B309C
:1044C00009F46DC0893009F04EC08091D204813268
:1044D00009F049C08091D6049091D704029708F062
:1044E00042C08091E800877F8093E8008091E800D7
:1044F00082FF35C09091F3008091F200029729F479
:104500008091F1008B7F813021F48091F1008093C4
:10451000C5038091E8008B778093E8000C94FC241D
:104520008091D204813AF9F48091E800877F8093EA
:10453000E8008091D6049091D704892B61F460E261
:1045400085EA93E070E00E940B248091E8008B776D
:104550008093E800089560E090E080E0F3CF8091E0
:10456000D1048111C3CF08958091D204813AD9F743
:104570008091D6049091D704892BA9F78091E80007
:10458000877F8093E8008091E80080FFFCCF8091D6
:1045900023018093F1008091E8008E77BDCF809158
:1045A000D204813201F78091D6049091D704892BEF
:1045B000D1F68091E800877F8093E8000E94FC2478
:1045C0008091D404809323010C941A198091D20411
:1045D000813249F68091E800877F8093E8000E944D
:1045E000FC248091D5048093C60308958091D20461
:1045F000813A09F0B8CF8091E800877F8093E80086
:104600008091E80080FFFCCF8091C603C2CF84B7C1
:10461000877F84BF0FB6F894A89580916000886169
:1046200080936000109260000FBE80E890E00FB6AB
:10463000F89480936100909361000FBE0E940F1563
:104640000E944C250E94A9258091E20084608093FD
:10465000E20078940E9432280E94191589E191E0C5
:104660000E94AA148091D104853019F00E9423156C
:10467000F9CF0E94B5208091CF04882399F30E943E
:10468000F720882379F30E94A623ECCF0C944823CB
:10469000292F33272330310519F168F421303105F2
:1046A00009F44AC02230310509F44BC090E080E0A3
:1046B00030E020E028C02132310579F12232310585
:1046C000A9F780E490E022ED3CE061157105D9F096
:1046D0008BE390E027E93CE061307105A1F0E6CF83
:1046E00099278130910599F0009741F0823091052A
:1046F00089F00397D9F6E6E2FCE002C0E6E4FCE0CC
:10470000849190E09F01FA01318320830895ECE3C6
:10471000FCE0F6CFECE2FCE0F3CF89E090E02CE5A2
:104720003CE06115710579F389E090E025E73CE014
:104730006130710541F3BACF82E190E025E83CE0B9
:10474000E2CF8BE390E02AE43CE0DDCF80E189BD5D
:1047500082E189BD09B400FEFDCF8091D8008F7D34
:104760008093D8008091E00082608093E000809187
:10477000E00081FDFCCF0895AF92BF92CF92DF920F
:10478000FF920F931F93CF93DF936C01EB018A018C
:104790000E941B25F82E811123C00115110539F047
:1047A000F80180819181C81BD90BC80ED91EB12C8C
:1047B000A12C2097A9F08091E80085FD22C080916E
:1047C000E8008E778093E80001151105A1F0F8014B
:1047D00080819181A80EB91EB182A08285E0F82E59
:1047E0008F2DDF91CF911F910F91FF90DF90CF9090
:1047F000BF90AF9008950E941B258823D1F2F82E18
:10480000EFCFF60181916F018093F1002197FFEFC7
:10481000AF1ABF0ACECFFC018091D8049091D90481
:1048200086179707A0F06115710529F49091E800AB
:104830009E779093E80090E06115710551F4911115
:1048400008C08091E80082FF34C080E00895BC0178
:10485000F2CF8091D1048823C1F18530C1F18091DC
:10486000E80083FD30C08091E80082FDEACF8091AE
:10487000E80080FFE1CF8091F3002091F200382F13
:104880006115710519F02830310558F091E0283094
:10489000310509F090E02091E8002E772093E800A0
:1048A000CBCF81918093F100615071092F5F3F4F11
:1048B000E7CF8091D104882341F0853041F0809189
:1048C000E80083FFBECF81E0089582E0089583E091
:1048D0000895FC018091D8049091D9048617970718
:1048E000A0F06115710529F48091E8008E7780931E
:1048F000E80090E06115710551F4911108C08091B4
:10490000E80082FF35C080E00895BC01F2CF8091BD
:10491000D1048823C9F18530C9F18091E80083FD75
:1049200031C08091E80082FDEACF8091E80080FFED
:10493000E1CF8091F3002091F200382F61157105CD
:1049400019F02830310558F091E02830310509F090
:1049500090E08091E8008E778093E800CBCF84913F
:104960008093F1003196615071092F5F3F4FE6CF80
:104970008091D104882341F0853041F08091E80096
:1049800083FFBDCF81E0089582E0089583E008951C
:10499000982F973028F08F708093E90081E0089578
:1049A0009093E900242F762F50E0981731F0709102
:1049B000EC002091ED005091F00021FD02C09F5FBE
:1049C000E8CF3091EB003E7F3093EB003091ED006B
:1049D0003D7F3093ED003091EB0031603093EB0080
:1049E0007093EC002093ED005093F0002091EE00C6
:1049F00027FDE5CF80E008958091D20487FF13C0A2
:104A00008091E80082FF06C08091E8008B77809358
:104A1000E80004C08091D1048111F2CF0895809103
:104A2000D1048823D9F38091E80080FFF8CF8091EA
:104A3000E8008E77ECCF2091E4003091E50095E618
:104A4000A9012091EC00822F817020FF06C0809187
:104A5000E80080FF06C080E008952091E80022FD74
:104A60001AC08091D104882389F0853089F0809123
:104A7000EB0085FD0FC02091E4003091E500421766
:104A80005307F9F29150E1F684E0089582E0089529
:104A900083E0089581E008950E94BA250E94C2250E
:104AA000E0EEF0E0808181608083E8EDF0E08081DD
:104AB0008F77808319BCA7EDB0E08C918E7F8C93AB
:104AC00080818F7E80831092D00408950F931F936E
:104AD000CF93DF930E94BA250E94C225C8EDD0E093
:104AE00088818F77888388818068888388818F7D9B
:104AF000888319BC1092D1041092CD041092CF0477
:104B00001092CE0400EE10E0F80180818B7F80834C
:104B100088818160888342E060E080E00E94C82450
:104B2000E1EEF0E080818E7F8083E2EEF0E0808134
:104B300081608083808188608083F80180818E7F9E
:104B40008083888180618883DF91CF911F910F914D
:104B50000895E8EDF0E080818F7E8083E7EDF0E05E
:104B600080818160808384E082BF81E08093D00473
:104B70000C946625E8EDF0E080818E7F80831092B2
:104B8000E20008951092DA001092E10008951F9259
:104B90000F920FB60F9211242F933F934F935F9371
:104BA0006F937F938F939F93AF93BF93EF93FF93F5
:104BB0008091E10082FF0BC08091E20082FF07C07C
:104BC0008091E1008B7F8093E1000E9431288091E9
:104BD000DA0080FF19C08091D80080FF15C0809155
:104BE000DA008E7F8093DA008091D90080FF96C032
:104BF00080E189BD82E189BD09B400FEFDCF81E07D
:104C00008093D1040E9431228091E10080FF19C07D
:104C10008091E20080FF15C08091E2008E7F80933A
:104C2000E2008091E20080618093E2008091D800F0
:104C300080628093D80019BC85E08093D1040E94E3
:104C400043228091E10084FF2BC08091E20084FF29
:104C500027C080E189BD82E189BD89B5982F917017
:104C600080FFFBCF8091D8008F7D8093D80080910A
:104C7000E1008F7E8093E1008091E2008F7E80933F
:104C8000E2008091E20081608093E2008091CD0497
:104C9000882309F449C084E08093D1040E9444220F
:104CA0008091E10083FF29C08091E20083FF25C04D
:104CB0008091E100877F8093E10082E08093D104BE
:104CC0001092CD048091E1008E7F8093E10080916D
:104CD000E2008E7F8093E2008091E2008061809309
:104CE000E20042E060E080E00E94C8248091F00091
:104CF00088608093F0000E944222FF91EF91BF9163
:104D0000AF919F918F917F916F915F914F913F9163
:104D10002F910F900FBE0F901F90189519BC1092F5
:104D2000D1040E943F2270CF8091E30087FD93E081
:104D30009093D104B3CF1F920F920FB60F9211240C
:104D40002F933F934F935F936F937F938F939F9393
:104D5000AF93BF93CF93DF93EF93FF93D091E9008D
:104D6000DF708091EC00C82FC17080FDC0E8109208
:104D7000E9008091F000877F8093F00078940E9492
:104D8000DF261092E9008091F00088608093F000A7
:104D9000CD2BCF70C093E900FF91EF91DF91CF91C0
:104DA000BF91AF919F918F917F916F915F914F9143
:104DB0003F912F910F900FBE0F901F9018951F934A
:104DC000CF93DF93CDB7DEB7AA970FB6F894DEBFC7
:104DD0000FBECDBF82ED94E02091F100FC01219344
:104DE000CF01F4E08A3D9F07B9F70E9450228091DD
:104DF000E80083FF1EC18091D2049091D3049A30C1
:104E000008F017C1E92FF0E0E451F64D0C94B128F9
:104E1000803899F0823809F00CC18091D6048F70E7
:104E2000873008F006C18093E9008091EB0085FB94
:104E3000882780F91092E90006C08091CE049091F5
:104E4000CF04911182609091E800977F9093E800E1
:104E50008093F1001092F1008091E8008E77E5C018
:104E6000882309F4D3C0823009F0E3C08091D404D0
:104E70008111D6C08091D6048F702FEF280F263075
:104E800008F0D7C08093E9002091EB0020FFC8C054
:104E9000933031F48091EB0080628093EB00C0C0CE
:104EA0009091EB0090619093EB0021E030E001C025
:104EB000220F8A95EAF72093EA001092EA00809187
:104EC000EB008860EACF8111B4C01091D4041F7741
:104ED0008091E3008078812B8093E3008091E8004B
:104EE000877F8093E8000E94FC248091E80080FF87
:104EF000FCCF8091E30080688093E30082E0111191
:104F000083E08093D10495C08058823008F091C02E
:104F10008091D4049091D5048C3D23E09207A1F5B3
:104F200083E08A838AE289834FB7F894DE0113967F
:104F300020E03EE051E2E32FF0E050935700E4918F
:104F400020FF03C0E295EF703F5FEF708E2F90E07F
:104F5000EA30C0F0C7968D939D932F5F243159F7A7
:104F60004FBF8091E800877F8093E8006AE270E09D
:104F7000CE0101960E940B248091E8008B778093EC
:104F8000E80057C0C096E7CF6091D6047091D7046F
:104F9000AE014F5F5F4F0E944623BC01892B09F48D
:104FA00048C09091E800977F9093E80089819A81AA
:104FB0000E946924E1CF8038E1F58091E800877F85
:104FC0008093E8008091CD048093F10045CF81115A
:104FD00030C09091D404923060F58091E800877FD2
:104FE0008093E8009093CD040E94FC248091CD042E
:104FF000882311F084E005C08091E30087FDFACF9B
:1050000081E08093D1040E94462213C08091D40491
:10501000813079F481E0933009F080E08093CF040F
:105020001092E9008091E800877F8093E8000E9459
:10503000FC248091E80083FF0AC08091E800877F0C
:105040008093E8008091EB0080628093EB00AA9649
:105050000FB6F894DEBF0FBECDBFDF91CF911F9189
:1050600008950895CF938091D1048823A1F0C09131
:10507000E900CF709091EC00892F817090FD80E85D
:10508000C82B1092E9008091E80083FD0E94DF2682
:10509000CF70C093E900CF910895991B79E004C0C7
:1050A000991F961708F0961B881F7A95C9F7809567
:1050B000089587FB082E062687FD819567FD61957B
:1050C0000E944D280EF4919507FC81950895AA1B26
:1050D000BB1B51E107C0AA1FBB1FA617B70710F0E3
:1050E000A61BB70B881F991F5A95A9F78095909515
:1050F000BC01CD01089597FB072E16F4009407D04C
:1051000077FD09D00E94672807FC05D03EF49095F2
:1051100081959F4F0895709561957F4F0895A1E205
:105120001A2EAA1BBB1BFD010DC0AA1FBB1FEE1F21
:10513000FF1FA217B307E407F50720F0A21BB30B6C
:10514000E40BF50B661F771F881F991F1A9469F7E8
:1051500060957095809590959B01AC01BD01CF0144
:105160000895EE0FFF1F0590F491E02D09940E9421
:10517000BF28332312F48A1B9B0B0C94D028A29FC8
:10518000B001B39FC001A39F700D811D1124911D1B
:10519000B29F700D811D1124911D08950E94BF289A
:1051A000B7FF0895821B930B08950E94BF28A59F07
:1051B000900DB49F900DA49F800D911D1124089512
:1051C000B7FF0C94D5280E94D528821B930B089515
:1051D0008F929F92AF92BF92CF92DF92EF92FF9207
:1051E000CF93DF93EC01688179818A819B8161157E
:1051F00071058105910521F464E279ED8BE597E075
:105200002DE133EF41E050E00E94992949015A0114
:105210009B01AC01A7EAB1E40E94D5286B017C0197
:10522000ACEEB4EFA50194010E94E328DC01CB01B0
:105230008C0D9D1DAE1DBF1DB7FF03C00197A109B9
:10524000B04888839983AA83BB839F77DF91CF91EE
:10525000FF90EF90DF90CF90BF90AF909F908F9096
:1052600008950E94E828089580E091E00E94E828CF
:105270000895B0E0A0E08093000190930101A09315
:105280000201B09303010895FC014150504030F0F9
:1052900001900616D1F73197CF01089588279927F5
:1052A0000895F999FECF92BD81BDF89A992780B5EE
:1052B0000895A6E1B0E044E050E00C948B29A8E109
:1052C000B0E042E050E00C948B29262FF999FECFF4
:1052D00092BD81BDF89A019700B4021639F01FBA49
:1052E00020BD0FB6F894FA9AF99A0FBE0895039666
:1052F000272F0E9466290E946529252F0E94662972
:10530000242F0C9466290196272F0E9466290C945D
:105310006529DC01CB01FC01F999FECF06C0F2BD85
:10532000E1BDF89A319600B40D9241505040B8F763
:105330000895052E97FB1EF400940E94B02957FD96
:1053400007D00E948F2807FC03D04EF40C94B0299C
:1053500050954095309521953F4F4F4F5F4F0895A1
:1053600090958095709561957F4F8F4F9F4F0895D1
:10537000F894FFCFFA11021209120E12131218122A
:105380001D12221227122C12311236123A123F121B
:105390004212451248124B124D1250121617161790
:1053A0006E176E174317431743174317C0174C1850
:1053B0005B185B18B71843174317C0182919291928
:1053C0003219321934193219321932192919291995
:1053D0003919321932193919082730271928302775
:0C53E0001928632784271928DB27E727FA
:1053EC0001000000010102004D004D4D01191A1B76
:1053FC001C1D1E1F2021227E03EB21F021EE21EF2C
:10540C002130220167F6F5F4F1C6909192939495B0
:10541C0096973430313233F700010202020206064D
:10542C00060909090909090F0F0F0F0F0F1515159B
:10543C001819191919191919191919232425252598
:04544C0025252500ED
:00000001FF
