:100000000C9488060C94CF060C94CF060C94CF0663
:100010000C94CF060C94CF060C94CF060C94CF060C
:100020000C94CF060C94CF060C94C6250C949A26FB
:100030000C941F210C94CF060C94CF060C94CF0681
:100040000C94CF060C94CF060C94CF060C94CF06DC
:100050000C94CF060C946A210C94CF060C94CF0616
:100060000C94CF060C94CF060C94CF060C94CF06BC
:100070000C94CF060C94CF060C94CF060C94CF06AC
:100080000C94CF060C94CF060C94CF060C94CF069C
:100090000C94CF060C94CF060C94CF060C94CF068C
:1000A0000C94CF060C94CF060C94CF0629001E00AA
:1000B0001F0020002100220023002400250026002C
:1000C00027002D002E002A0035002B0014001A00F6
:1000D0000800150017001C0018000C001200130087
:1000E0002F00300031004C003900040016000700DA
:1000F00009000A000B000D000E000F003300340051
:10010000000028004B00E10000001D001B0006005D
:100110001900050011001000360037003800E50016
:1001200052004E00E000E3000000E200000000008A
:100130002C000000000000000151E40050005100BC
:100140004F0001003A003B003C003D003E003F00F4
:10015000400041004200430044004500010001000E
:100160000100C25C5200C35CCF5CD55CD15CC85C52
:10017000C95CCA5C0100460047004800D55C01002C
:10018000500051004F00010001000100010001007A
:1001900049004A004B00000001000100010000007E
:1001A000005C010001000100AA00A800A9004C00A9
:1001B0004D004E000100010001000100010000009F
:1001C000010000000000010000000000000001002C
:1001D0000100010001000100010001000100010017
:1001E0000100010001000100010001000100010007
:1001F00001000100010001000100010001000100F7
:1002000001000100010001000100010001000100E6
:1002100001000100010001000100010001000100D6
:1002200001000100010001000100010000000100C7
:1002300001000100000001000100010001000100B7
:1002400001000100010001000100010001000100A6
:10025000010001000000010000000000010000009A
:100260000000000001000100010001000100010088
:100270000100010001000100010001000100010076
:100280000100010001000100010001000100010066
:100290000100010001000100010001000100010056
:1002A0000100010001000100010001000100010046
:1002B0000100010001000100010001000100010036
:1002C0000100000001000100010000000100010028
:1002D0000100010001000100010001000100010016
:1002E0000100010001000100010000000100000008
:1002F00000000100000000000000010001000100FA
:1003000001000100010001000100010001000100E5
:1003100001000100010001000100010001000100D5
:1003200001000100010001000100010001000100C5
:1003300001000100010001000100010001000100B5
:1003400001000100010001000100010001000100A5
:100350000100010001000100000001000100010096
:100360000000010001000100010001000100010086
:100370000100010001000100010001000100010075
:10038000000001000000000001000000000000006B
:100390000100010001000100010001000100010055
:1003A0000100010001000100010001000100010045
:1003B0000100010001000100010001000100010035
:1003C0000100010001000100010001000100010025
:1003D0000100010001000100010001000100010015
:1003E0000100010001000100010001000100000006
:1003F00001000100010000000100010001000100F6
:1004000001000100010001000100010001000100E4
:1004100001000100010000000100000000000100D7
:1004200000000000000001000100010001000100C7
:1004300001000100010001000100010001000100B4
:1004400001000100010001000100010001000100A4
:100450000100010001000100010001000100010094
:100460000100010001000100010001000100010084
:100470000100010001000100010001000100010074
:100480000100010000000100010001000000010066
:100490000100010001000100010001000100010054
:1004A0000100010001000100010001000000010045
:1004B0000000000001000000000000000100010039
:1004C0000100010001000100010001000100010024
:1004D0000100010001000100010001000100010014
:1004E0000100010001000100010001000100010004
:1004F00001000100010001000100010001000100F4
:1005000001000100010001000100010001000100E3
:1005100001000100010001000100000001000100D4
:1005200001000000010001000100010001000100C4
:1005300001000100010001000100010001000100B3
:1005400001000000010000000000010000000000A8
:100550000000010001000100010001000100010094
:100560000100010001000100010001000100010083
:100570000100010001000100010001000100010073
:100580000100010001000100010001000100010063
:100590000100010001000100010001000100010053
:1005A0000100010001000100010001000100010043
:1005B0000000010001000100000001000100010035
:1005C0000100010001000100010001000100010023
:1005D0000100010001000100000001000000000016
:1005E0000100000000000000010001000100010006
:1005F00001000100010001000100010001000100F3
:1006000001000100010001000100010001000100E2
:1006100001000100010001000100010001000100D2
:1006200001000100010001000100010001000100C2
:1006300001000100010001000100010001000100B2
:1006400001000100010000000100010001000000A4
:100650000100010001000100010001000100010092
:100660000100010001000100010001000100000083
:100670000100000000000100000000000000010077
:100680000100010001000100010001000100010062
:100690000100010001000100010001000100010052
:1006A0000100010001000100010001000100010042
:1006B0000100010001000100010001000100010032
:1006C0000100010001000100010001000100010022
:1006D0000100010001000100010001000000010013
:1006E0000100010000000100010001000100010003
:1006F00001000100010001000100010001000100F2
:1007000001000100000001000000000001000000E5
:1007100000000000010001000100010001000100D3
:1007200001000100010001000100010001000100C1
:1007300001000100010001000100010001000100B1
:1007400001000100010001000100010001000100A1
:100750000100010001000100010001000100010091
:100760000100010001000100010001000100010081
:100770000100000001000100010000000100010073
:100780000100010001000100010001000100010061
:100790000100010001000100010000000100000053
:1007A0000000010000000000000001000100010045
:1007B0000100010001000100010001000100010031
:1007C0000100010001000100010001000100010021
:1007D0000100010001000100010001000100010011
:1007E0000100010001000100010001000100010001
:1007F00001000100010001000100010001000100F1
:1008000001000100010001000000010001000100E1
:1008100000000100010001000100010001000100D1
:1008200001000100010001000100010001000100C0
:1008300000000100000000000100000000000000B6
:1008400001000100010001000100010001000100A0
:100850000100010001000100010001000100010090
:100860000100010001000100010001000100010080
:100870000100010001000100010001000100010070
:100880000100010001000100010001000100010060
:100890000100010001000100010001000100000051
:1008A0000100010001000000010001000100010041
:1008B0000100010001000100010001000100010030
:1008C0000100010001000000010000000000010023
:1008D0000000000000000100010001000100010013
:1008E0000100010001000100010001000100010000
:1008F00001000100010001000100010001000100F0
:1009000001000100010001000100010001000100DF
:1009100001000100010001000100010001000100CF
:1009200001000100010001000100010001000100BF
:1009300001000100000001000100010000000100B1
:10094000010001000100010001000100010001009F
:100950000100010001000100010001000000010090
:100960000000000001000000000000000100010084
:10097000010001000100010001000100010001006F
:10098000010001000100010001000100010001005F
:10099000010001000100010001000100010001004F
:1009A000010001000100010001000100010001003F
:1009B000010001000100010001000100010001002F
:1009C0000100010001000100010000000100010020
:1009D0000100000001000100010001000100010010
:1009E00001000100010001000100010001000100FF
:1009F00001000000010000000000010000000000F4
:100A000000000100010001000100010032190A008C
:100A1000047F3F1F643214643214783C1E1E140A93
:100A2000052223252628292A2C2D2F30323335362E
:100A3000383A3B3D3E4042434547494A4C4E50516F
:100A4000535557595A5C5E6062646668696B6D6F96
:100A500071737577797B7D7F81838587898A8C8E99
:100A600090929496989A9C9E9FA1A3A5A7A8AAACA1
:100A7000AEAFB1B3B4B6B8B9BBBCBEBFC1C2C3C5DB
:100A8000C6C7C9CACBCCCDCED0D1D2D2D3D4D5D67D
:100A9000D7D7D8D9D9DADADBDBDBDCDCDCDCDCDDB0
:100AA000DDDDDDDCDCDCDCDCDBDBDBDADAD9D9D894
:100AB000D7D7D6D5D4D3D2D2D1D0CECDCCCBCAC92C
:100AC000C7C6C5C3C2C1BFBEBCBBB9B8B6B4B3B15B
:100AD000AFAEACAAA8A7A5A3A19F9E9C9A989694F6
:100AE00092908E8C8A89878583817F7D7B797775CB
:100AF00073716F6D6B6968666462605E5C5A5957AA
:100B0000555351504E4C4A4947454342403E3D3B68
:100B10003A3836353332302F2D2C2A2928262523F2
:100B200022FFAA7F554000010101010101010101DD
:100B3000020202020202020202030303030303038E
:100B4000030404040404040405050505050606065B
:100B50000606070707070708080808090909090A18
:100B60000A0A0B0B0B0C0C0C0D0D0D0E0E0E0F0FBD
:100B70000F1010111111121213131414151516164B
:100B80001717181819191A1A1B1B1C1D1D1E1E1FBA
:100B90002020212222232424252626272829292A09
:100BA0002B2C2D2D2E2F3031323233343536373831
:100BB000393A3B3C3D3E3F4041424344454647482D
:100BC000494A4C4D4E4F50515354555658595A5B03
:100BD0005D5E5F616264656668696B6C6D6F7072A3
:100BE000737577787A7B7D7E8082838587888A8C0F
:100BF0008E8F91939596989A9C9EA0A2A3A5A7A943
:100C0000ABADAFB1B3B5B7BABCBEC0C2C4C6C9CB39
:100C1000CDCFD1D4D6D8DBDDDFE2E4E7E9EBEEF0EF
:100C2000F3F5F8FAFDFF0403300000000C0349005F
:100C30004400360037004800000008034E0058000A
:100C4000500000000403090409023B00020100A057
:100C5000FA0904000001030101000921110100014A
:100C60002240000705810308000A0904010001036E
:100C7000000000092111010001223B000705820349
:100C800020000A1201100100000008EDFE60600162
:100C9000000102030105010906A1018505050719E7
:100CA000E029E7150025019508750181020507195E
:100CB0000029EF1500250195F0750181020508193D
:100CC000012905950575019102950175039101C0F2
:100CD00005010906A101050719E029E7150025010D
:100CE00095087501810295017508810105071900B4
:100CF00029FF150026FF00950675088100050819D3
:100D0000012905950575019102950175039101C0B1
:100D100011241FBECFEFDAE0DEBFCDBF04B603FE65
:100D200027C08091DA049091DB04A091DC04B0919B
:100D3000DD048730904BA740B04BD1F41092DA0419
:100D40001092DB041092DC041092DD0414BE84B710
:100D5000877F84BF0FB6F894A89580916000886162
:100D600080936000109260000FBEE0E0F8E3099508
:100D700011E0A0E0B1E0EAEEF3E502C005900D92CB
:100D8000A436B107D9F724E0A4E6B1E001C01D9272
:100D9000AA3DB207E1F70E9406230C94B7290C94F0
:100DA000000090E080E008950895089581E008959E
:100DB00081FF03C03E9A469808953E98FCCF81E09B
:100DC00008950C94D60608950C94E3061F93CF93D0
:100DD000DF9300D000D00F92CDB7DEB749835A839E
:100DE0006B833091090389819A8131111DC066237B
:100DF000B9F02223A9F00E94061E182F682F8981BE
:100E00009A810E94B21D69817A81812F0F900F9083
:100E10000F900F900F90DF91CF911F910C949A0734
:100E20000E94DE1D182FEFCF0E94061E69817A8175
:100E3000EDCFFC01262F4081518162817381848135
:100E40000C94E606CF93DF93EC0160E00E94190753
:100E5000BE01DF91CF910C94E4060E94B4210E9460
:100E6000501F811102C00E94ED1F0C9483090C9445
:100E7000850908950E9419190E9439072FEF84E30C
:100E80009CE0215080409040E1F700C000000C94AD
:100E90008E210F931F93CF93DF93EC0161E00E94AB
:100EA00019078C01BE010E94E106882359F1BE0199
:100EB000C8010E940A13882329F1BE01C8010E94BB
:100EC0005C138823F9F0BE01C8010E947F148823B7
:100ED000C9F0BE01C8010E94E311882399F08A81FC
:100EE000882339F001158CE5180751F00E3D1C459B
:100EF00079F0CE01DF91CF911F910F910C94DF0615
:100F00000E943A0780E0DF91CF911F910F910895E1
:100F10000E94ED1FF7CF0C94D80681E008950C9441
:100F20008D07CF93C82F0E948B078C2FCF910C94E5
:100F30008F070895972F70E02FE0929F600D711D2D
:100F40001124FB019BE4899FE00DF11D1124EE0F9C
:100F5000FF1FE455FF4F859194910895FC01EE0F1A
:100F6000FF1FE45FF54F859194910895CF93DF9330
:100F70000E949A070E94A908EC01811521E59207B9
:100F8000D0F5811530E5930708F096C081159042A1
:100F9000F8F4C11581E0D807B8F4C03ED10588F453
:100FA000C03CD10508F07BC0C130D10569F0209765
:100FB00059F0CE010497813A910530F0D0E0C0E0BD
:100FC00003C0C83ED105D0F7CE01DF91CF9108957F
:100FD000C11590E4D90708F06CC0CE019F70C1150F
:100FE00020E3D20708F45EC0CE019927D3FF5EC08C
:100FF000EC01D86CE9CF811535E5930700F5811533
:1010000044E5940708F08DC0C11583E5D80708F0C2
:1010100074C0C11592E5D90708F46AC0CE01837087
:10102000992721E030E002C0220F331F8A95E2F7B2
:10103000C695C69580E2C89FE001112455C0811570
:1010400029E59207A0F4811538E5930708F06EC0F2
:10105000811546E5940708F0B1CF0E944009C82FDA
:10106000D0E0DC2FCC27CC27DF71D062ADCFC1150B
:101070008AE5D80708F45FC0CE01905681159042EA
:1010800008F09CCF8D2F8F710E94400990E0982F1F
:10109000882788279F719C012C2BE901E6CFCE0180
:1010A000805C91090E94AE07EC018ECFEC01D06C00
:1010B0008BCFDF70D06A88CFE4E096958795EA956C
:1010C000E1F783702C2F26952695237040E2249F0C
:1010D00090011124382B8C2F8370C1E0D0E002C026
:1010E000CC0FDD1F8A95E2F7C22BD32BDC686CCFC7
:1010F000DC2FCC27C16FD06A67CFCE0183709927D0
:1011000021E030E002C0220F331F8A95E2F7C69536
:10111000C69590E2C99FE0011124C22BD32BDA6857
:1011200053CFD82FCC27C46FD06A4ECFD82FCC271F
:10113000C06FD06A49CF8C2F8F700E94400934E075
:10114000D695C7953A95E1F7CF709C2FEC01D06901
:101150003BCF82389105B1F1B0F48133910509F4A8
:1011600075C048F48932910509F469C08A32910545
:1011700009F473C008958533910509F459C0893382
:10118000910501F10895833E9105A9F138F4803E5F
:101190009105F9F0823E910549F10895863E910549
:1011A000A9F1873E9105C9F1843E910519F5209179
:1011B000CC0421FF1FC08091CB0484FD14C087EEB6
:1011C00090E008952091CB042370A1F080EE90E090
:1011D00008952091CB0420FD47C03091CC0430FF0E
:1011E00009C024FF44C090E080E004C02091CB04FB
:1011F00022FDF7CF08952091CB0422FD3BC0309112
:10120000CC0430FDE3CF24FFF5CFEDCF2091CB040C
:1012100023FFF0CF24FDE7CFD2CF2091CB0423FDD5
:101220002CC03091CC0431FFEECF84EE90E00895D5
:101230002091CB0425FFDECF89E290E00895209134
:10124000CB0425FFD7CF85E390E008952091CB0410
:1012500026FFD0CF8AE290E008952091CB0426FFAC
:10126000C9CF81E390E0089589E390E0089583EE8B
:1012700090E0089582EE90E0089586EE90E0089563
:101280009091CB0492FF06C0282F28712830F9F4E2
:10129000877F846093FF06C0282F28712831F1F4DE
:1012A000877E84612091CC0420FF06C0382F3871DE
:1012B0003830D9F4877F816021FF06C0282F28713C
:1012C0002831D1F4877E816194FD877E0895282F8F
:1012D00024712430F9F68B7F8860DCCF282F2471AD
:1012E000243101F78B7E8861DDCF382F31713130A9
:1012F00019F78E7F8860E0CF282F2171213121F7E7
:101300008E7E8861E1CF0C94D4060C94D506E82F2C
:10131000F0E0EE0FFF1FEF52FC4F808191810895A6
:10132000089580EA8A95F1F70895CF93DF93A3E3B8
:10133000B1E048E351E0C1E0D0E08D91E82FE295C3
:10134000EF70F0E061A18F709E0101C0220F8A95BD
:10135000EAF7922F9095962391A382A1822B82A3E4
:101360004A175B0751F7A4E2B1E061E070E08D91AC
:10137000E82FE295EF70F0E041A18F709B0101C072
:10138000220F8A95EAF7922F9095942391A382A138
:10139000822B82A381E0A333B80749F71092C803D8
:1013A0001092C7031092D2031092D1031092CA0375
:1013B0001092C9031092D4031092D3031092CC035D
:1013C0001092CB031092D6031092D5031092CE0345
:1013D0001092CD031092D8031092D7031092D0032D
:1013E0001092CF031092DA031092D90385E00E9485
:1013F000840ADF91CF910C942D078F929F92AF9228
:10140000BF92CF92DF92EF92FF920F931F93CF93F1
:10141000DF9383E3E82E81E0F82E07EC13E0912CB4
:10142000AA24A394B12CF70181917F01C82FC29502
:10143000CF70D0E099A18F70650101C0CC0C8A9566
:10144000EAF7892F8C2989A38AA18C2C8094882182
:101450008AA30E949109E4E2F1E050E040E030E02C
:1014600020E06191A62FA295AF70B0E090968C918C
:1014700090E06F7002C0959587956A95E2F780FDC0
:101480003EC0C501042E02C0880F991F0A94E2F7DE
:10149000282B392B4F5F5F4F4F30510511F789A132
:1014A000882289A28AA1C82ACAA2F80180819181D2
:1014B0002817390739F13183208381E0982A0E5F9C
:1014C0001F4FF8E3EF16F1E0FF0609F0ACCF292D2E
:1014D00045E061ED73E087EC93E00E94850A0E948D
:1014E0003707892DDF91CF911F910F91FF90EF90DA
:1014F000DF90CF90BF90AF909F908F90089590E035
:1015000080E0C6CF80E0DACF0895FF920F931F935B
:10151000CF93DF93F82E092F162FD72FC42F222316
:1015200049F081E0809366010E944F21909365010C
:1015300080936401809166018823A1F08091640109
:10154000909165010E945B21069760F0EF2DF02FCE
:10155000A12FBD2F90E080E0D0E08C179D0744F0D4
:1015600010926601DF91CF911F910F91FF90089526
:10157000219131912D933D930196EFCFEF92FF9200
:101580000F931F93CF93DF93EB01E82FD11110C07E
:10159000442321F0F0E0EA5DF44FE4916E2F7E2FBA
:1015A0008E2FDF91CF911F910F91FF90EF900895B3
:1015B0000D2F10E0282F30E0442329F02A5D344F0E
:1015C000F901249130E0F6E0CF9FC0011124EFEF44
:1015D000F0E0BF010E946628AB018C2F90E0880FDD
:1015E000991FA5E5A49FB001A59F700D1124861B2E
:1015F000970B982F990F980FBF01601B710B629F7B
:10160000D001639FB00D729FB00D11248B2F9D9F51
:10161000B0011124672F7727EF01C61BD70BBE013E
:10162000629FE001639FD00D729FD00D11247F0156
:10163000E91AF108E09EB001E19E700DF09E700D78
:101640001124672F7727E61BF70BE29F8001E39FAA
:10165000100DF29F100D1124E12F722F4230510511
:1016600099F048F44115510569F04130510581F078
:10167000EB2F8D2F07C04430510569F080F04630C4
:101680005105B1F76E2F8DCFE22F7B2F812FFACF2F
:10169000E22F7D2FF7CFEB2F822F712FF3CF7B2FF0
:1016A000822FED2FEFCF41E00C94BE0A0895CF9327
:1016B000DF93762FE901682F842F0E94530B7983E3
:1016C00068838A83DF91CF910895433308F042E322
:1016D0000C94570B8091DB03982F9E7F61F48170EF
:1016E00082608093DB038091DE03833318F082E312
:1016F0008093DE0308958635B0F381708465F1CF61
:1017000088E090E00C945829CF92DF92EF92FF92FC
:101710006B017C010E946A0BB701A60188E090E092
:10172000FF90EF90DF90CF900C947629EBEDF3E0F3
:1017300081E1808311828FEF828382E3838314822D
:1017400060817181828193810C94840B8091DB0391
:1017500080FF02C08695089580E008959091DF0390
:10176000933018F49F5F9093DF03882351F06091CA
:10177000DB037091DC038091DD039091DE030C9418
:10178000840B089581E00C94AE0B9091DF039923B4
:1017900019F091509093DF03882351F06091DB039F
:1017A0007091DC038091DD039091DE030C94840B37
:1017B000089581E00C94C50B70E00C945312609175
:1017C00008018091DB0380FF0AC08091070123E0BC
:1017D000829FC001112480529C4F0C94DC0B80919D
:1017E000090190910A0123E0829FF0011124E05247
:1017F000FC4F891750F71182108212828F5F339647
:10180000F8CF9091DB0390FF14C0909109012091D3
:101810000A0133E0939FF0011124E052FC4F92172C
:1018200010F00C94DF0B8183608342839F5F3396BB
:10183000F6CF0895CF93DF9300D00F92CDB7DEB7E8
:101840009091DB0390FF0AC09E012F5F3F4F0E94E3
:10185000650B4B8169818A810E94010C0F900F906A
:101860000F90DF91CF910895CF93DF93EC01EC813E
:10187000F0E0EF5DF54F4491EBEDF3E062818181A3
:101880000E941A0C8C818F5F8C83DF91CF91089519
:10189000CF93DF93EC01EBEDF3E0438162818C8128
:1018A0000E941A0C8C818F5F8C83DF91CF910895F9
:1018B0000F931F93CF93DF9300D00F92CDB7DEB776
:1018C0008C018091670181110AC09E012F5F3F4FFB
:1018D00042E36FEF0E94650B8A8180936701F801F4
:1018E0006481613069F08091670140E0662361F0B6
:1018F00040E0623011F44091670180E060E004C094
:101900006091670140E080E00E94010CF801848151
:1019100090E0019663E070E00E947A2884830F9043
:101920000F900F90DF91CF911F910F910895AF927B
:10193000BF92CF92DF92EF92FF920F931F93CF93BC
:10194000DF9300D00F92CDB7DEB7182FF62E042FFD
:10195000E22E9091DB0390FF29C0E92FE695AE2F90
:10196000B0E0A85CBE4F8C918093F2029E7F9230D3
:1019700059F59E012F5F3F4F812F0E94650B4B81D0
:1019800069818A810E94010C1093DC03F092DD03CF
:101990000093DE03EE2051F06091DB037091DC03D5
:1019A0008091DD039091DE030E94840B0F900F90D5
:1019B0000F90DF91CF911F910F91FF90EF90DF90EB
:1019C000CF90BF90AF900895823019F40091DE035C
:1019D000DBCF863019F41091DC03D6CF8930D9F3F0
:1019E000893191F6E9518E2F8170D82EE695F0E07D
:1019F000EF5DF44FA590B490C12CBB2460910B0116
:101A0000C61618F00E94DF0BBFCF2C2D30E0A29E2F
:101A1000C001A39E900DB29E900D112470E00E9413
:101A20006628812FD11013C0860F40910901420F03
:101A3000532F511D9A01220F331F240F351F20529F
:101A40003C4F402F6F2D0E94650BC394D7CF861B50
:101A5000ECCFEBEDF3E09181282F4381628188E0A8
:101A6000890F0C94970C81E00C94290DEBEDF3E0B9
:101A70009181282F4381628188EF890F0C94970C04
:101A800081E00C94360DEBEDF3E0628128E0620F0B
:101A900008F46FEF282F438181810C94970C81E02B
:101AA0000C94430DEBEDF3E0628128E0621B08F437
:101AB00060E0282F438181810C94970C81E00C9485
:101AC000520DEBEDF3E0438128E0420F08F44FEFB5
:101AD000282F628181810C94970C81E00C94610D18
:101AE000EBEDF3E0438128E0421B08F440E0282FAF
:101AF000628181810C94970C81E00C94700D20E040
:101B00000C94970CEF92FF921F93CF93DF93EC010D
:101B100010E0EE24EA94F12C60910B01161770F09E
:101B20000E94DF0B9A818C8190FF27C08F5F8C838E
:101B3000DF91CF911F91FF90EF90089520910901BF
:101B4000422F410F5527551FCA019A01220F331FFB
:101B5000280F391F20523C4F70E0C7010E947A289D
:101B6000962F8C814091DE036091DD03199F800DDB
:101B700011240E94650B1F5FCFCF8150D8CFAF9249
:101B8000BF92CF92DF92EF92FF920F931F93CF936A
:101B9000DF93FC0182810FEF80FF01E010E04DE454
:101BA000A42E80910B011817C8F00E94DF0B8091C2
:101BB0006901013009F055C0811102C080910B010B
:101BC000815080936901DF91CF911F910F91FF9018
:101BD000EF90DF90CF90BF90AF900895C091090132
:101BE000C12ED12CCC0DDD2DD11DCE01880F991F1A
:101BF000C80FD91FC052DC4F198218821A8234E0F4
:101C0000E32EF12CB12C809169018B0D8E341CF1E7
:101C10006A2D0E945828892F082E000C990BC8168F
:101C2000D90691F48091DE038E9DA0018F9D500D09
:101C3000112455954795559547959E016091DD0373
:101C40008091DC030E94650BB00EF1E0EF1AF10801
:101C5000D1F61F5FA6CF87FFDFCF90910B01890FD1
:101C6000DBCF90E0019660910B0170E00E947A2832
:101C7000A8CF0F931F93CF93DF9380910901909189
:101C80000A0123E0829FF0011124E052FC4F8917E2
:101C900040F1C0E0D3E060910B01C61740F10E9413
:101CA000DF0B2091050180916801820F809368010C
:101CB00090910601920F90930601191654F4082E84
:101CC000000C990B40910B014150550B841795075F
:101CD0001CF0219520930501DF91CF911F910F9169
:101CE00008951182108212828F5F3396D0CF0C2F0D
:101CF00010E070E0C8010E947A2820910901820F4B
:101D0000482F50E020916801022E000C330B02177F
:101D10001307BCF020910601022E000C330B201794
:101D200031077CF08D9F9001112420523C4F40914F
:101D3000DE036091DD038091DC030E94650BCF5FC1
:101D4000AACFFA01EE0FFF1FE40FF51FE052FC4F80
:101D5000118210821282F3CF8F929F92AF92BF9224
:101D6000CF92DF92EF92FF920F931F93CF93DF9367
:101D7000EC014C81042F10E09801D8010E94BE288C
:101D80009B01AC010E94D4284B015C01E0E2F0E031
:101D9000E01BF10BA5E5B0E0AC019B010E94D4284B
:101DA0006B017C019F01DF010E94B6289B01AC0101
:101DB0000E94DF289B01AC01280D391D4A1D5B1DC7
:101DC000C701B6010E948E28F22E822F90E039E2E0
:101DD0003F1560F143E0249F90011124359527952C
:101DE000122F109500E085E5E82EEF1880910B0189
:101DF000081758F10E94DF0B9C8181E0992319F0AC
:101E0000903219F48FEF8093040180910401890FBF
:101E10008C83DF91CF911F910F91FF90EF90DF9016
:101E2000CF90BF90AF909F908F90089525E530E0C0
:101E3000B901681B790B9B01220F331F260F371F37
:101E400037FFCCCF2F5F3F4FC9CF8E2D01FD8F2D98
:101E500020910901622F600F7727771F9B01220FC6
:101E6000331F260F371F20523C4F412F6091DD0357
:101E70000E94650B0F5FBACF0F931F93CF93DF9331
:101E8000EC0110E000E090910B019017110609F0B1
:101E90006CF40E94DF0B8C8190E001968170992791
:101EA0008C83DF91CF911F910F91089520910901AB
:101EB000A801420F511D9A01220F331F240F351F15
:101EC00020523C4F4C816091DD038091DC0396955C
:101ED0009017110651F04CF0442349F04091DE0375
:101EE0000E94650B0F5F1F4FCECF4423B9F340E034
:101EF000F7CF8F929F92AF92BF92CF92DF92EF92E5
:101F0000FF920F931F93CF93DF93FC01B2809480D5
:101F100081E0848300E015E05BE4A52E88248394AF
:101F2000EE24EA94F12C7BE4C72ED12C80910B0196
:101F3000081770F0DF91CF911F910F91FF90EF90F4
:101F4000DF90CF90BF90AF909F908F900C94DF0B5D
:101F5000C02FD0E01C9FF0011D9FF00D1124E65909
:101F6000FE4F91101CC01382128220910901CE01F4
:101F7000820F911D9C01220F331F280F391F205201
:101F80003C4F1C9FF0011D9FF00D1124E659FE4FA0
:101F90004281618180810E94650B0F5FC7CF2381E1
:101FA000222379F12150238334818A2D821B311120
:101FB00001C0822F1C9FF0011D9FF00D1124E659D6
:101FC000FE4F9091DE03899FC0011124B6010E944B
:101FD00066286283211104C0332311F01482A38286
:101FE00022E02B1510F21C9FF0011D9FF00D112413
:101FF000E659FE4F8091DC0380838091DD0381836D
:10200000B4CF0E943329823091400CF0AECF82E0F1
:102010008B1530F50E943329B7010E947A281C9F46
:10202000F0011D9FF00D1124E659FE4F808322E040
:102030002B15C8F40E9433292091DD032695622FC9
:1020400070E00E947A28280F1C9FF0011D9FF00D60
:102050001124E659FE4F21831282A382848285CF08
:102060008091DC03DCCF2091DD03EECFEBEDF3E0DC
:1020700080818E7F808360817181828193810E94C3
:10208000840B1092F3022FEF80E792E02150804002
:102090009040E1F700C000000C94DF0BEBEDF3E0A3
:1020A00080818E7F80831092F3022FEF80E792E091
:1020B000215080409040E1F700C000000C94DF0BFD
:1020C0006091DB03669570E04BE050E08CE091E0BE
:1020D0000E944329892B19F481E08093F3020E9426
:1020E0004F219093EC028093EB0208959091DB03D3
:1020F00090FF35C09170811128C092609093DB03EE
:10210000662351F06091DB037091DC038091DD0365
:102110009091DE030E94840B6091DB03669570E072
:102120004BE050E08CE091E00E944329892BA1F024
:102130001092F30281E08093EE024091DE03609101
:10214000DD038091DC030C947F0D8B3210F09465DD
:10215000D5CF880F982BD2CF0E946010EBCF089577
:10216000682F9091DB03969581E0890F8B3208F000
:1021700081E00C94761081E00C94B010682F90915F
:10218000DB0396958FEF890F09F48AE20C947610A1
:1021900081E00C94BE1061E00C947610EBEDF3E05E
:1021A00080818160808386950C94CB108091DB03C5
:1021B00080FD0C9436100C94CE1060E00C947610D8
:1021C0008091F10281112EC00E94501F811104C024
:1021D0000E94ED1F0E94960B0E94800B6093DB0310
:1021E0007093DC038093DD039093DE036E7F61F4D4
:1021F0000E94960B0E94800B6093DB037093DC03BC
:102200008093DD039093DE030E946A0B1092F30229
:102210008091DB0380FF03C086950E94DD1081E082
:102220008093F1020895EBEDF3E08081816080837B
:1022300086950C94DD101092F30208950F931F936E
:10224000CF93DF938091F302882309F49DC080919E
:10225000F202E091DB03E695E81BE093ED028230A9
:10226000C9F5F0E0E35EF54FE491CE2FD0E004E352
:102270001CE08091EE02882389F01092EE020E9409
:102280004F219E0120953095820F931F9093EC0271
:102290008093EB021092F0021092EF028091EB0219
:1022A0009091EC020E945B218C179D0708F46CC092
:1022B000E091EB02F091EC02CE0FDF1FD093EC0225
:1022C000C093EB028BEE92E0F801DF91CF911F916A
:1022D0000F910994863049F4F0E0E65EF54FE49101
:1022E000CE2FD0E008E41CE0C4CF893051F4E6954D
:1022F000F0E0E95EF54FE491CE2FD0E002E81DE07A
:10230000B8CF8F3051F4E695F0E0EC5EF54FE491F4
:10231000CE2FD0E00FEB1DE0ACCF853149F4F0E0DB
:10232000EF5EF54FE491CE2FD0E009E31EE0A1CFA0
:10233000C8E2D0E00CEA1EE0883109F49ACF83327B
:1023400039F4EFE0FAE0C591D49108E51CE091CFB3
:10235000C4EFD1E00CE31FE0843209F48ACFC0ED72
:10236000D7E006E51BE0853209F083CF8E2F63E0CE
:102370000E944C28E92FF0E0E45FF54FE491CE2F66
:10238000D0E009E71FE075CFDF91CF911F910F914A
:102390000895FA01811101C0FB010994CF93DF93E5
:1023A000C82FD62F0E94A60B8C1740F00E94A60BB8
:1023B0008D1720F4DF91CF910C94BB108C2FDF91FF
:1023C000CF910C94CB100F931F93CF938C01FB01F3
:1023D000C281CC2309F465C00E949B1E8272F80161
:1023E000E25CFC45E431F10538F4E754F64D0C9419
:1023F000B0280E94D610C0E08C2FCF911F910F9172
:10240000089548EC50E16BEB70E10E94C911F3CFE5
:102410004BEB50E168EC70E1F8CF40E45DE063E342
:102420007DE0F3CF43E35DE060E47DE0EECF4EE599
:102430005DE06FE47DE0E9CF4FE45DE06EE57DE0D7
:10244000E4CF4CE75DE06DE67DE0DFCF4DE65DE09B
:102450006CE77DE0DACF49ED5BE062EC7BE0D5CF65
:1024600042EC5BE069ED7BE0D0CF81E00E94CB10D5
:10247000C2CF65E082E00E94CE11BDCF68E086E069
:10248000FACF6EE089E0F7CF64E18FE0F4CF67E147
:1024900085E1F1CF88E1EACF62E289E1ECCF83E226
:1024A000E5CFC1E0A9CF809A41B34E7F51B35160CF
:1024B000EFB7F8949B01220F331F260F371F280F09
:1024C000391F2817390741F4EFBF8FE594E00197D2
:1024D000F1F700C000000895DC016D91CD0178E0B6
:1024E00051BB000000C067FF41BB660F000000C089
:1024F00000C000C041BB00C07A9591F7E2CFAF9217
:10250000BF92CF92DF92EF92FF920F931F93CF93E0
:10251000DF937C015B01C42FD22FFC0182818823D1
:10252000F9F04093F6020E944F219093F5028093B8
:10253000F40280E28C0F883008F061C0C77081E03F
:1025400001C0880FCA95EAF7DF91CF911F910F91D3
:10255000FF90EF90DF90CF90BF90AF900C94D0168B
:102560001091F602141340C08091F4029091F5028C
:102570000E945B216C01B701C5010E948F1BC81628
:10258000D90690F5C0E2CD0F1D17B9F080E2810F9A
:10259000883040F4177081E001C0880F1A95EAF77F
:1025A0000E94D716C83048F481E09D2F977001C073
:1025B000880F9A95EAF70E94D016802F0E94BD16C8
:1025C000C830E8F4D77081E001C0880FDA95EAF7E7
:1025D000DF91CF911F910F91FF90EF90DF90CF90FF
:1025E000BF90AF900C94D71680E28C0F883038F4EF
:1025F000C77081E001C0880FCA95EAF7E9CFDF9183
:10260000CF911F910F91FF90EF90DF90CF90BF90EF
:10261000AF9008950F939C01CB01233F4CE5340705
:1026200059F1A8F4283DFCE53F0701F1293D4CE5AF
:102630003407D1F1273D3C4591F406E221EE41EE0D
:1026400067ED7CE50E947F1280E00F910895253FA1
:10265000FCE53F07E9F0B0F0263F3C45F9F0FC010E
:102660008281882339F11092F602EFCF07E225EE3E
:1026700045EE68ED7CE5E6CF06E221EE40EE63EF45
:102680007CE5E0CF07E225EE44EE64EF7CE5DACFAF
:1026900006E221EE42EE65EF7CE5D4CF07E225EEBF
:1026A00046EE66EF7CE5CECF08E221E045EE69ED2F
:1026B0007CE5C8CF81E0C9CFCF93DF93EC01FB016C
:1026C0008281882309F419C1C230FCE5DF07C0F11B
:1026D000C6319CE5D90730F09E012A5F3C45293080
:1026E000310570F50E94631F9093CC048093CB0456
:1026F000C031ECE5DE0709F4CFC008F05BC0C8309C
:102700008CE5D80709F4B6C088F5C430ECE5DE07DF
:1027100009F4A8C0C0F4C2308CE5D80709F49CC005
:102720008091CB048260C330DC4509F498C080916D
:10273000CB049091CC040E94711F0E94191980E073
:10274000DF91CF9108958091CB048061C630ECE594
:10275000DE0709F484C08091CB048860C730DC4573
:1027600008F47DC08091CB04806279C0CC308CE5C8
:10277000D80709F489C070F48091CB048C60CA300A
:10278000ECE5DE0709F46BC008F478C08091CB0457
:102790008E7F65C0CE308CE5D80709F479C0809172
:1027A000CB048B7FCF30DC4508F459C08091CB043B
:1027B0008F7E55C0CB3FECE5DE0709F457C030F5FE
:1027C000C3318CE5D80709F46FC078F4C131ECE56A
:1027D000DE0709F465C0C231DC4509F0A8CF0E94CC
:1027E00019198091CB048F773AC0C5318CE5D80791
:1027F00009F462C008F476C08091CC048160CA3FBD
:10280000DC4509F094CF8093CC0491CFCF3FFCE519
:10281000DF0709F44DC088F48091CC048D7FCD3F53
:102820009CE5D90781F38091CC048E7FCE3FDC45B7
:1028300050F38091CC048360E6CFC130FDE5DF0723
:1028400009F459C008F444C080E0C230DD4509F005
:102850006ECF0E94EF1F6BCF8091CB04816080937D
:10286000CB0465CF8091CB048460F9CF8091CC04F8
:102870008260C9CF8091CB048064F1CF0E94191986
:102880008091CB048068EBCF8091CB048D7FE7CF24
:102890008091CB04877FE3CF8091CB048F7DDFCF06
:1028A0008091CB048F7BDBCF8091CB04837FD7CF0C
:1028B0008091CC048C7FA7CF8091CB0482FB992799
:1028C00090F921E0922790FB82F990FB83F9C7CF22
:1028D0008091CC04982F909591708E7F892B90FBDE
:1028E00081F991CF0E9419199091CB04892F97FB00
:1028F00087F98058B4CF81E0ACCF81E021CFCF936E
:10290000DF93EB0186319C4511F50E949B1E9A8155
:10291000992399F08A7A91E009F490E09093F70274
:10292000811109C089E20E94761E0E94E71E80E0A4
:10293000DF91CF91089585E3F6CF8091F702811161
:1029400004C089E20E947D1EF0CF85E3FBCF81E0C9
:10295000EFCF9093FD028093FC020895E091FC027A
:10296000F091FD02309721F00190F081E02D099463
:1029700080E00895E091FC02F091FD02309799F01B
:1029800020912301222359F02091CB0427FF07C077
:10299000DC012C9111962C93119725E02C93028049
:1029A000F381E02D099408952091FA023091FB0201
:1029B0002817390771F09093FB028093FA02E09197
:1029C000FC02F091FD02309721F00680F781E02DA6
:1029D000099408952091F8023091F90228173907D7
:1029E00071F09093F9028093F802E091FC02F0916B
:1029F000FD02309721F00084F185E02D09940895BF
:102A000085B7806885BF85B7806885BF08950895BC
:102A100008950C94071508950C940B150E94001549
:102A20000E9408150C94091581E008950C94141562
:102A30000E9446210E9495090E94C8210E94E01030
:102A40000C940C159F92AF92BF92CF92DF92EF92AF
:102A5000FF920F931F93CF93DF93CDB7DEB72A97E3
:102A60000FB6F894DEBF0FBECDBF0E94FD090E94D5
:102A70001615882309F470C05FEFA52E52E0B52E1D
:102A800010E000E0902E802F0E9487096C01F50174
:102A9000E190F1905F01E816F90609F457C08091C2
:102AA000A10381FD0E94900997012C253D2580E01E
:102AB000EE24E394F12CA9014E215F21452B09F46A
:102AC0003FC08E839F82CE20DF2081E0CD2809F495
:102AD00080E088870E944F218160782F9A878987BC
:102AE0004E815F8168858A850E94CF15000F111F76
:102AF000F801E150FD4F80819181E826F926F182AD
:102B0000E0820E941E110E94AE149091FE0289176D
:102B1000A1F10E94AE148093FE022A960FB6F8949B
:102B2000DEBF0FBECDBFDF91CF911F910F91FF9000
:102B3000EF90DF90CF90BF90AF909F900C94910753
:102B40008F5FEE0CFF1C8F3009F0B5CF0F5F1F4F6A
:102B50000530110509F096CF8FEF89838A831B8298
:102B60000E944F218160782F9D838C8349815A81F7
:102B70006B818D810E94CF15C4CF2A960FB6F89431
:102B8000DEBF0FBECDBFDF91CF911F910F91FF90A0
:102B9000EF90DF90CF90BF90AF909F900895CF932C
:102BA000DF93CDB7DEB72B970FB6F894DEBF0FBE1D
:102BB000CDBF4F83588769877A878B871E821D8296
:102BC00085E0FE013796DE01119601900D928A95FF
:102BD000E1F749815A816B817C818D819E812B96A1
:102BE0000FB6F894DEBF0FBECDBFDF91CF910C942E
:102BF000921BFC01808191810C94481ECF93C82FB9
:102C0000882309F469C08238C1F40E94AE1481FDA2
:102C100063C089E30E94761E0E94E71E2FEF81EEBB
:102C200094E0215080409040E1F700C0000089E32B
:102C30000E947D1ECF910C94E71E8338A1F40E9460
:102C4000AE1480FD49C083E50E94761E0E94E71EF7
:102C50002FEF81EE94E0215080409040E1F700C0DA
:102C6000000083E5E5CF8438A1F40E94AE1482FD14
:102C700033C087E40E94761E0E94E71E2FEF81EE8C
:102C800094E0215080409040E1F700C0000087E4CC
:102C9000CFCF8CEF8C0F813A90F46C2F809117017D
:102CA000909118010E940820882329F08C2F0E94FF
:102CB0007D1E0E94E71E8C2F0E94761EBBCF80E2F5
:102CC0008C0F883048F4C77081E001C0880FCA9526
:102CD000EAF70E949E1EAECFCF910895882309F493
:102CE0004BC0823871F40E94AE1481FF45C089E365
:102CF0000E94761E0E94E71E89E30E947D1E0C94AE
:102D0000E71E833859F40E94AE1480FF35C083E576
:102D10000E94761E0E94E71E83E5EFCF843859F4A7
:102D20000E94AE1482FF28C087E40E94761E0E9493
:102D3000E71E87E4E2CF9CEF980F913AF0F290E221
:102D4000980F983050F4877091E001C0990F8A95E0
:102D5000EAF7892F0E94A41ED2CF9BE5980F9330EB
:102D600020F490E080E00C94D414885A873120F449
:102D700090E080E00C94EA140895CF93C82F0E944D
:102D8000FE15C93349F42FEF87EE93E021508040C0
:102D90009040E1F700C000008C2FCF910C946E168C
:102DA000882321F00E949E1E0C94E71E089588231C
:102DB00021F00E94A41E0C94E71E0895BF92CF92AA
:102DC000DF92EF92FF920F931F93CF93DF936C01EB
:102DD000D62FC72FFC01158112951F70028101119A
:102DE0000E94BB1E0E94941EE82E882391F00023AF
:102DF000D1F08C2F807F803421F080E28D0F8830DD
:102E000090F082E00E94321F0E94941E91E0E82E12
:102E1000E926BC2EB2949FE0B922EB2DF0E0E353FB
:102E2000F64D0C94B028E12CF4CF1C2F1F70C07FFE
:102E300011F01295107F0023A9F0112359F080E2C0
:102E40008D0F883010F0D11109C0812F0E949E1E75
:102E50000E94E71E8D2F0E94FE1514C0812F0E9434
:102E6000AE1EF6CF8D2F0E946E16112359F080E210
:102E70008D0F883010F0D1112CC0812F0E94A41E1C
:102E80000E94E71E2B2D2850330B2430310520F4EF
:102E90000E94AE140E949107EE2009F477C10E94AF
:102EA000901E80FD73C1F60112820E948A1E0E944C
:102EB000161DC6010E94E7180E948A1EDF91CF915D
:102EC0001F910F91FF90EF90DF90CF90BF900C94E7
:102ED000371D812F0E94B41ED3CFFC2FFF70FF2E11
:102EE000C07FC03219F0F29480EFF822DD2369F040
:102EF000D13049F1002391F1112351F1F60185817F
:102F000080FFA8CF8F70858323C0002381F011112B
:102F100006C00E94CE1E8F290E94D016B3CF11305A
:102F2000C1F70E94CE1E8F290E94D41EABCF111173
:102F300006C00E94DD1E8F2D0E94D716A3CF113030
:102F400009F4A0CFF6CF002329F0163008F09ACF6D
:102F50008F2DE2CF153008F095CFEDCF112359F327
:102F6000D93349F4FFEF27EE33E0F15020403040F1
:102F7000E1F700C000008D2F0E946E1683CF8C2FCA
:102F8000837009F041C001117DCF4D2F42954695C8
:102F90004770440F440F0D2F0F7010E030E020E019
:102FA000042E04C0000F111F221F331F0A94D2F7F2
:102FB00060E070E0CB01D4FF0FC06FE070E080E014
:102FC00090E004C0660F771F881F991F4A95D2F7BB
:102FD0006095709580959095C695C695C370602B49
:102FE000712B822B932BC23049F058F4C13019F069
:102FF0000E94C81C47CF0E94B61C44CF0E94DA1C16
:1030000041CF0E94B41C3ECF8695002311F08C2F37
:103010008170882309F436CF4D2F4295469547702D
:10302000440F440F0D2F0F7010E030E020E0042E0D
:1030300004C0000F111F221F331F0A94D2F760E053
:1030400070E0CB01D4FF0FC06FE070E080E090E053
:1030500004C0660F771F881F991F4A95D2F76095A5
:10306000709580959095C695C695C370602B712B11
:10307000822B932BC23049F058F4C13019F00E94D2
:103080008D1D00CF0E947B1DFDCE0E949F1DFACE9C
:103090000E94F01CF7CECF70002329F08C2F0E94E5
:1030A000161D8D2F39CF8D2F0E94D7168C2F0E9481
:1030B000371DE8CED23F89F160F4D03FC9F0D13F4F
:1030C00029F1002309F442C01111C4CE8C2F8F7155
:1030D00021C0D33F39F1D43FA1F7002369F1CF716B
:1030E0008C2F0E94161D63E08C2F0E941D1FCACEDC
:1030F000002341F0153008F0C5CE8C2F8F710E944F
:103100005A1DC0CE163008F0BDCEF7CF8C2F8F7170
:10311000002369F20E94161DB5CE8C2F8F710023FB
:10312000C9F3C5CF002329F08C2F8F710E94011D98
:10313000A9CE0E94FC1CA6CE81E00E94321F123054
:1031400008F4A0CE82E00E94321F9CCE112359F0D9
:10315000D93309F010CF8FEF97EEE3E08150904024
:10316000E040E1F706CF8C2F8F71A1CF4C2F4F702D
:103170006D2FC6010E94D1060E942C1C83CE4C2FBD
:103180004F706D2FC6010E9499077CCEDF91CF91C1
:103190001F910F91FF90EF90DF90CF90BF90089517
:1031A0000F931F93CF93DF93EC01688179818A811C
:1031B0000E94521E8C010E94B11D0E94B31CB801D6
:1031C000CE01DF91CF911F910F910C94DE16CF931A
:1031D000DF93EC018B819C81892B29F08881998177
:1031E00089238F3F59F4DF91CF910895CE010E943A
:1031F000D018CE01DF91CF910C942207CE010E940E
:1032000049078111F3CF0E94941E882361F38A81BC
:10321000882349F382E0DF91CF910C94321F0E9402
:10322000BB1E0E94CB1E0C94E71E0E94841E0C94B1
:103230000F190E94AB1E0C941519E92FE295EF703F
:10324000E250EE3070F4F0E0E352F64D0C94B0280A
:10325000803F19F020F4883E20F481E00895843FF7
:10326000E1F380E00895883EC0F3813FD1F7F5CFC8
:1032700093FB882780F908950E94481E0C941D191D
:10328000CF93DF9300D000D00F92CDB7DEB70F9071
:103290000F900F900F900F90DF91CF910895CF93E3
:1032A000DF9300D000D000D0CDB7DEB726960FB6A2
:1032B000F894DEBF0FBECDBFDF91CF9108951F936D
:1032C000CF93DF93C0910A0316E080910B038C1318
:1032D00004C0DF91CF911F910895D0E01C9FF001B1
:1032E0001D9FF00D1124E45FFC4F408151816281EC
:1032F0007381848195810E944F192196C770E5CF13
:1033000040913C0350913D0360913E0370913F0317
:1033100080914003909141030C944F191F93CF93D8
:10332000DF9380914103807FA9F480913E0388233D
:1033300089F080910A03C0910B0360913C03709166
:103340003D03A0913F03B0914003D62FD72316E051
:10335000C81304C0DF91CF911F91089590E010979A
:1033600011F0DF3F19F401968770F2CF189F90019A
:10337000199F300D1124F901E45FFC4F418147137F
:10338000F2CF40814613EFCF42814111ECCF438110
:1033900054814A1B5B0B483C510528F7809141033F
:1033A0008F70806180934103F901EF5EFC4F808153
:1033B0008F70806180838CE393E00E94E718DF9137
:1033C000CF911F910C945F19AF92BF92CF92DF9271
:1033D000EF92FF920F931F93CF93DF93CDB7DEB79A
:1033E00061970FB6F894DEBF0FBECDBF8C0185E0AC
:1033F000F801DE011D9601900D928A95E1F7F80122
:1034000040815181E2808CE3C82E83E0D82E609108
:103410003F03709140036115710509F461C19091FA
:103420003C0320913D03892F82238F3F09F458C12B
:10343000A380B480F0903E03F501E61BF70BFF205C
:1034400009F4FCC080914103382F307FE83CF1053E
:1034500008F0B2C0311179C0FE2C251323C094139B
:1034600021C0E1101FC08F708061809341030E94D2
:103470008019C6010E94E71880914103F8018583F5
:103480008F2D61960FB6F894DEBF0FBECDBFDF91D2
:10349000CF911F910F91FF90EF90DF90CF90BF9051
:1034A000AF900895AB2829F0842F85238F3F09F032
:1034B00033C180E0F82FF170DF2E80FF3CC0809197
:1034C0000A0320910B0336E0821315C04D875E87F7
:1034D0008D859E850E94481E292F22952F702230AF
:1034E000F0F0243018F59F70F1F0F8019581907F8D
:1034F000D1F4D12C1EC090E0389FF001399FF00D1F
:103500001124E45FFC4F6181651306C06081641380
:1035100003C062816E110FC001968770D5CF9F7076
:1035200011F0882331F3805E883018F3C8010E94BF
:10353000E718FD2CA5CFEE2009F4A2CF809141031E
:10354000816080934103F12C9BCF251306C0941317
:1035500004C0F801EE2009F48DC04D875E878D858B
:103560009E850E943C19882319F1EE2009F1809173
:103570004103803270F020913C0330913D03388745
:103580002F831986BB86AA868C87CE0107960E9458
:10359000E71886E0F801ACE3B3E001900D928A955C
:1035A000E1F70E948E190E948019FF24F39468CFDE
:1035B000C8010E94E718F9CF311113C07A2DB98ADA
:1035C000A88A6E2D89890E9440198CE393E00E949D
:1035D000E71886E0F60111928A95E9F70E948019B2
:1035E000B2CF25130FC094130DC0E1100BC0F8012A
:1035F0008583C8010E94E71886E0F60111928A953A
:10360000E9F73ECF4D875E878D859E850E943C19E8
:10361000882371F2EE2061F280914103803208F438
:10362000B8CF20913C0330913D033A8329831B821C
:10363000BD82AC828E83CE010196A9CFE83CF10514
:1036400008F041C0FE2CEE2009F4B2CF25132AC0A9
:10365000941328C08091410380FD1BC0982F907F58
:10366000C1F0F8018583903F31F0982F907F905FF3
:103670008F70892B8583C8010E94E71886E0F801C6
:10368000ACE3B3E001900D928A95E1F70E948019B6
:10369000F7CE86E0F801ACE3B3E001900D928A9595
:1036A000E1F7EECE4D875E878D859E850E943C19A1
:1036B00081116FCF80914103816080934103C801E4
:1036C0000E94E718DDCE7A2DB98AA88A6E2D8989E5
:1036D0000E94401986E0F60111928A95E9F7D6CF4B
:1036E000EE2009F465CF4D875E878D859E850E940B
:1036F0003C19F82E882309F45BCF86E0F801ACE38F
:10370000B3E001900D928A95E1F78CE393E00E947B
:10371000F9150E948E19BACF81E08E25CBCE88ECA8
:1037200090E008951F93CF93DF93CDB7DEB72C972A
:103730000FB6F894DEBF0FBECDBF4F8358876987A1
:103740007A878B879C87CE0107960E94E41988238D
:1037500069F08A859B85892B39F04F815885842FA4
:1037600085238F3F09F071C016E05FC086E0FE013F
:103770003796DE01119601900D928A95E1F78A85C0
:103780009B85892B89F38F81988589238F3F61F3EE
:1037900020910B0330E0C901019687709927409171
:1037A0000A034817190671F40E94191910920B03A5
:1037B00010920A0386E0ECE3F3E0DF011D928A95A4
:1037C000E9F7D2CF96E0929FD001939FB00D1124DC
:1037D000A45FBC4FFE01319601900D929A95E1F7DE
:1037E00080930B030E945F19BFCF819FC0011124FA
:1037F000845F9C4F0E94E4198823E9F0E0910A035A
:103800001E9FF0011124E45FFC4F408151816281D1
:103810007381848195810E944F1980910A0390E001
:1038200001968770992780930A0380910A039091EB
:103830000B038913DACF2C960FB6F894DEBF0FBEB8
:10384000CDBFDF91CF911F91089569857A858B85D2
:103850009C850E944F1988CFEF92FF920F931F9380
:10386000CF93DF938C01892B81F0F12CEE24E3942C
:10387000E8012196F8018491843770F4843008F0CF
:103880005FC08130B1F08230A1F1DF91CF911F9103
:103890000F91FF90EF900895853709F44CC008F41C
:1038A0003DC09CE7980F903780F78F770E946E1687
:1038B00049C00E5F1F4FFE01849190E2980F98302F
:1038C00060F48770FE2D01C0FF0F8A95EAF78F2FF5
:1038D0000E94BE1E0E94E71E02C00E94FE158F2D90
:1038E000815030F2EFE9FFE03197F1F700C00000BE
:1038F000F7CF0E5F1F4FFE01849190E2980F983032
:1039000050F48770FE2D01C0FF0F8A95EAF78F2FC4
:103910000E94C41EDFCF0E946E16E1CF0E5F1F4FC4
:10392000FE01C491C150D8F28FE99FE00197F1F7F1
:1039300000C00000F7CF0E5F1F4FFE01F490CFCF05
:103940000E94FE158E01CBCF08950C94A41C0E94FA
:10395000A51C609378037093790380937A03909306
:103960007B030C940F1908950C94A71C0F931F93BD
:10397000009178031091790320917A0330917B03B1
:10398000602B712B822B932B1F910F910C94A71CF2
:103990000F931F93009178031091790320917A037C
:1039A00030917B0360237123822393231F910F9116
:1039B0000C94A71C0F931F93009178031091790327
:1039C00020917A0330917B03602771278227932708
:1039D0001F910F910C94A71C0C94A41C0C94EC1C2C
:1039E0000E94EE1C609374037093750380937603BA
:1039F000909377030C940F1960E070E0CB010C9466
:103A0000F01C0F931F9341E050E060E070E08A01EA
:103A10009B0104C0000F111F221F331F8A95D2F78C
:103A2000C901B8011F910F910C94F01C0F931F93C3
:103A300041E050E060E070E004C0440F551F661F95
:103A4000771F8A95D2F78091740390917503A091A6
:103A50007603B09177038A019B01082B192B2A2B3F
:103A60003B2BC901B8011F910F910C94F01C0F93CF
:103A70001F9341E050E060E070E004C0440F551F28
:103A8000661F771F8A95D2F7CB01BA0160957095B2
:103A900080959095009174031091750320917603A1
:103AA0003091770360237123822393231F910F9119
:103AB0000C94F01C0F931F9341E050E060E070E025
:103AC00004C0440F551F661F771F8A95D2F7809157
:103AD000740390917503A0917603B09177038A01E6
:103AE0009B01082719272A273B27C901B8011F91E5
:103AF0000F910C94F01C0F931F930091740310917D
:103B000075032091760330917703602B712B822B04
:103B1000932B1F910F910C94F01C0F931F93009106
:103B2000740310917503209176033091770360231D
:103B30007123822393231F910F910C94F01C0F93F8
:103B40001F930091740310917503209176033091B7
:103B5000770360277127822793271F910F910C9479
:103B6000F01C08952FE0929F800D1124982F9770DC
:103B700041E001C0440F9A95EAF7869586958695AF
:103B800095E0899FF0011124EE5BFC4F90E080E00E
:103B900070E05191DF0111979B01082E02C036950C
:103BA00027950A94E2F721702195252724232527BC
:103BB0002C9301968530910561F708952FE0929F2F
:103BC000800D1124982F977086958695869525E00F
:103BD000829FF0011124EE5BFC4F50E040E080E05A
:103BE000219130E0092E02C0369527950A94E2F71C
:103BF00021703327042E01C0220F0A94EAF7822B8A
:103C00004F5F5F4F4530510559F70895BF92CF92EE
:103C1000DF92EF92FF920F931F93CF93DF938C016C
:103C2000C0907403D0907503E0907603F090770312
:103C30008091780390917903A0917A03B0917B03EE
:103C4000C82AD92AEA2AFB2ACFE1D0E0BC2ED70124
:103C5000C6010C2E04C0B695A795979587950A9432
:103C6000D2F780FD0EC0219788F7B12C8B2DDF9104
:103C7000CF911F910F91FF90EF90DF90CF90BF9069
:103C80000895B8018C2F0E94B607019761F3EECF1B
:103C9000CF93DF93EC010E94061EBE01DF91CF910E
:103CA0000C94B6071F93CF93DF93EB019091090318
:103CB000992331F0CB01DF91CF911F910C94481ED5
:103CC000882379F0CB010E94061E182F682FCE01A1
:103CD0000E94B21DBE01812FDF91CF911F910C94E4
:103CE000B607CB010E94DE1D182FF4CF682F8091FC
:103CF0001701909118010C948820682F809117016A
:103D0000909118010C9493208091170190911801C3
:103D10000C949E2080917C038595859585950895CA
:103D200080917C038770089590917C03977081E067
:103D300009F480E008958091A00308959091A00374
:103D4000892B8093A003089580959091A0039823D8
:103D50009093A00308951092A003089590919F035B
:103D6000892B80939F030895809590919F039823BA
:103D700090939F03089510929F03089590919E033E
:103D8000892B80939E030895809590919E0398239C
:103D900090939E03089510929E03089580917D0351
:103DA000089508950C94D11E90917D03981721F0E9
:103DB00080937D030C94D21E089580917D03882307
:103DC00029F010927D0380E00C94D21E0895E091BA
:103DD0001701F09118018091A0038083E0911701F1
:103DE000F0911801808190919F03892B8083E0914D
:103DF0001701F0911801808190919E03892B808397
:103E000090917D03992381F0E0911701F0911801C1
:103E10008081892B808380911701909118010E94E5
:103E2000F41F81110E94DD1E8091170190911801ED
:103E30000C94BA1408950C941A1F98E0899F90016D
:103E40001124622B60937C030E94161D80917C03D9
:103E50008595859585950C941B1F10927C0380E0B9
:103E60000C941B1F90917C038095892380937C0385
:103E7000282F277071F4282F082E000C330B92176F
:103E8000130639F08595859585950E94371D0C940C
:103E90002D1F08956FEF7FEF90E080E00C94822952
:103EA00090E080E00E945E2921E08C3E9E4F09F068
:103EB00020E0822F089582E090E00C94502983E066
:103EC00090E00C945029CF9384E090E00E94502918
:103ED000C82F81E290E00E945029982F8C2FCF911B
:103EE0000895CF93C92F682F84E090E00E94642941
:103EF0006C2F81E290E0CF910C946429AB01BC015E
:103F00008FE090E00C947629AB01BC0183E190E056
:103F10000C94762960E070E0CB010C94841F60E083
:103F200070E0CB010E947E1F0C948A1F6CEE7EEF26
:103F300090E080E00E94822960E082E090E00E94B0
:103F4000642960E083E090E00E9464291092780385
:103F50001092790310927A0310927B0360E084E060
:103F600090E00E94642960E081E290E00E94642970
:103F700060E085E090E00E94642960E086E090E0E7
:103F80000E9464296FEF87E090E00E94642940E07E
:103F900050E0BA0188E090E00E94762960E08DE070
:103FA00090E00E94642940E050E0BA0188E190E08E
:103FB0000E94762960E087E190E00E94642940E059
:103FC00050E0BA018CE190E00E94762960E080E246
:103FD00090E00E9464290C948F1F0C94961F682F08
:103FE0008EE090E00C946429FC01329680912301CC
:103FF000882321F08091CB049EE187FF96E080E04A
:10400000915008F4089521912223D1F38F5FF8CFC6
:10401000662301F1209123012223F1F02091CB04AA
:1040200027FF1AC0462F4695469546954E3190F487
:10403000677021E030E002C0220F331F6A95E2F77B
:10404000840F911DFC01828190E02823392381E0B7
:10405000232B69F480E00895FC01329608962191A3
:10406000261721F0E817F907D1F7F4CF81E008957A
:104070009C01FC0132969FEF80E04191461751F080
:104080009F3F19F4411101C0982F8F5F8630A9F727
:104090009F3F09F40895290F311D97FD3A95F901C5
:1040A00062830895FC01329608962191261303C07D
:1040B000DF0111971C92E817F907B9F70895E62F69
:1040C000E695E695E695EE3168F4E80FF92FF11DD7
:1040D000677021E030E001C0220F6A95EAF7828123
:1040E000822B82830895E62FE695E695E695EE31DC
:1040F00070F4E80FF92FF11D677021E030E001C086
:10410000220F6A95EAF72095828128232283089559
:1041100020912301222329F02091CB0427FD0C9428
:104120005F200C94382020912301222329F0209134
:10413000CB0427FD0C9473200C945220FC01329682
:1041400080912301882351F08091CB0487FF06C022
:104150008EE1DF011D928A95E9F7089586E0F9CF97
:10416000089508950C94B1200E94B2208091D1044A
:10417000843009F439C01092A20388E190E020E471
:104180000FB6F894A895809360000FBE209360004E
:1041900080E00E9491070E941B118091A30381116E
:1041A0000AC081E08093A3038091DB038170809338
:1041B000A4030E944E100E94B22083B7817F8460C6
:1041C00083BF83B7816083BF7894889583B78E7FE0
:1041D00083BF0FB6F894A8958091600088618093A2
:1041E0006000109260000FBE08950895CF930E9462
:1041F000B0200E94FD090E94F520C0E08C2F0E9493
:104200008709892B31F4CF5FC530C1F780E0CF91AA
:10421000089581E0FCCF08950C940B210E94191998
:104220000E94AE140E9491071092A3038091A403F0
:1042300081110E9413110E9460100C940C211F9296
:104240001FB61F9211248F939F93AF93BF938091BA
:10425000A203811113C08091C7049091C804A0915A
:10426000C904B091CA044196A11DB11D8093C70431
:104270009093C804A093C904B093CA04BF91AF91AE
:104280009F918F911F901FBE1F90189582E084BD53
:1042900093E095BD9AEF97BD80936E0008952FB778
:1042A000F8948091C7049091C804A091C904B0917A
:1042B000CA042FBF08959C014FB7F8948091C7049A
:1042C0009091C804A091C904B091CA044FBF821B49
:1042D000930B089578941F921FB61F9211248F9309
:1042E0009F93AF93BF938091C7049091C804A0910E
:1042F000C904B091CA040196A11DB11D8093C704E1
:104300009093C804A093C904B093CA04BF91AF911D
:104310009F918F911F901FBE1F90189581E08093F1
:10432000E00080E28093D8001092C9008FE19EE403
:104330000197F1F700C0000087E090EBDC0180936B
:10434000DA049093DB04A093DC04B093DD0488E1ED
:104350009CE00FB6F894A895809360000FBE9093F0
:104360006000FFCF0C944A1F0E94FD098FE39CE977
:104370000197F1F700C000000E94FD0980E00E9453
:10438000870980FF04C00E94B2210C948E210895F9
:104390000E94501F811102C00E94ED1F0E945B1FEE
:1043A0008093A1030E94631F9093CC048093CB045D
:1043B0000E945F1F682F70E090E080E00E94B41CB4
:1043C00060917403709175038091760390917703E7
:1043D0000C94EE1C8091C503089508950895CF9321
:1043E000DF93EC01809123018823B1F18091CB040C
:1043F00087FF32C060E282E08093E9008FEF909106
:10440000E800815095FD06C095ED9A95F1F7000002
:104410008111F5CF8091E80085FF1BC080912301B9
:1044200070E050E040E0811104C050E040E068E0FE
:1044300070E0CE010E94BB238091E8008E778093CC
:10444000E80080E2FE01A5EAB3E001900D928A95B2
:10445000E1F7DF91CF91089568E081E0CDCF089535
:104460008091D004811109C00E944B250E94A8258B
:104470008091E20084608093E20008951092D0045D
:104480000895089508950C940E2142E061EC81E0B6
:104490000E94C72442E261EC82E00C94C724809120
:1044A000D304833009F45FC030F48130C1F182302D
:1044B00009F49BC008958A3009F487C08B3009F451
:1044C0006DC0893009F04EC08091D204813209F06C
:1044D00049C08091D6049091D704029708F042C059
:1044E0008091E800877F8093E8008091E80082FF58
:1044F00035C09091F3008091F200029729F48091E9
:10450000F1008B7F813021F48091F1008093C5030D
:104510008091E8008B778093E8000C94FB248091D5
:10452000D204813AF9F48091E800877F8093E80013
:104530008091D6049091D704892B61F460E285EADA
:1045400093E070E00E940A248091E8008B778093CA
:10455000E800089560E090E080E0F3CF8091D1041E
:104560008111C3CF08958091D204813AD9F7809107
:10457000D6049091D704892BA9F78091E800877F12
:104580008093E8008091E80080FFFCCF80912301B8
:104590008093F1008091E8008E77BDCF8091D204A6
:1045A000813201F78091D6049091D704892BD1F6FE
:1045B0008091E800877F8093E8000E94FB2480912F
:1045C000D404809323010C9419198091D204813270
:1045D00049F68091E800877F8093E8000E94FB24E1
:1045E0008091D5048093C60308958091D204813AC6
:1045F00009F0B8CF8091E800877F8093E800809130
:10460000E80080FFFCCF8091C603C2CF84B7877FCC
:1046100084BF0FB6F894A89580916000886180935C
:104620006000109260000FBE80E890E00FB6F89432
:1046300080936100909361000FBE0E940E150E944E
:104640004B250E94A8258091E20084608093E200BF
:1046500078940E9431280E94181589E191E00E9407
:10466000A9148091D104853019F00E942215F9CF48
:104670000E94B4208091CF04882399F30E94F620F1
:10468000882379F30E94A523ECCF0C944723292F8C
:1046900033272330310519F168F42130310509F44D
:1046A0004AC02230310509F44BC090E080E030E090
:1046B00020E028C02132310579F122323105A9F7F5
:1046C00080E490E020ED3CE061157105D9F08BE3CA
:1046D00090E025E93CE061307105A1F0E6CF992733
:1046E0008130910599F0009741F08230910589F071
:1046F0000397D9F6E6E2FCE002C0E4E4FCE0849132
:1047000090E09F01FA01318320830895EAE3FCE001
:10471000F6CFECE2FCE0F3CF89E090E02AE53CE064
:104720006115710579F389E090E023E73CE06130A1
:10473000710541F3BACF82E190E023E83CE0E2CF9B
:104740008BE390E028E43CE0DDCF80E189BD82E1AD
:1047500089BD09B400FEFDCF8091D8008F7D809384
:10476000D8008091E00082608093E0008091E000BA
:1047700081FDFCCF0895AF92BF92CF92DF92FF925E
:104780000F931F93CF93DF936C01EB018A010E947B
:104790001A25F82E811123C00115110539F0F801F1
:1047A00080819181C81BD90BC80ED91EB12CA12CB8
:1047B0002097A9F08091E80085FD22C08091E80053
:1047C0008E778093E80001151105A1F0F801808132
:1047D0009181A80EB91EB182A08285E0F82E8F2D9E
:1047E000DF91CF911F910F91FF90DF90CF90BF90FD
:1047F000AF9008950E941A258823D1F2F82EEFCFAA
:10480000F60181916F018093F1002197FFEFAF1ABC
:10481000BF0ACECFFC018091D8049091D9048617AD
:104820009707A0F06115710529F49091E8009E7733
:104830009093E80090E06115710551F4911108C062
:104840008091E80082FF34C080E00895BC01F2CF7F
:104850008091D1048823C1F18530C1F18091E800B5
:1048600083FD30C08091E80082FDEACF8091E800AE
:1048700080FFE1CF8091F3002091F200382F611585
:10488000710519F02830310558F091E028303105D4
:1048900009F090E02091E8002E772093E800CBCF3C
:1048A00081918093F100615071092F5F3F4FE7CFF5
:1048B0008091D104882341F0853041F08091E80057
:1048C00083FFBECF81E0089582E0089583E00895DC
:1048D000FC018091D8049091D90486179707A0F025
:1048E0006115710529F48091E8008E778093E800C6
:1048F00090E06115710551F4911108C08091E800B4
:1049000082FF35C080E00895BC01F2CF8091D104D0
:104910008823C9F18530C9F18091E80083FD31C059
:104920008091E80082FDEACF8091E80080FFE1CF2E
:104930008091F3002091F200382F6115710519F074
:104940002830310558F091E02830310509F090E029
:104950008091E8008E778093E800CBCF849180939C
:10496000F1003196615071092F5F3F4FE6CF809182
:10497000D104882341F0853041F08091E80083FF25
:10498000BDCF81E0089582E0089583E00895982FD7
:10499000973028F08F708093E90081E0089590931C
:1049A000E900242F762F50E0981731F07091EC0039
:1049B0002091ED005091F00021FD02C09F5FE8CFF3
:1049C0003091EB003E7F3093EB003091ED003D7F66
:1049D0003093ED003091EB0031603093EB00709339
:1049E000EC002093ED005093F0002091EE0027FDA5
:1049F000E5CF80E008958091D20487FF13C08091B5
:104A0000E80082FF06C08091E8008B778093E80081
:104A100004C08091D1048111F2CF08958091D10416
:104A20008823D9F38091E80080FFF8CF8091E800D7
:104A30008E77ECCF2091E4003091E50095E6A90156
:104A40002091EC00822F817020FF06C08091E80049
:104A500080FF06C080E008952091E80022FD1AC082
:104A60008091D104882389F0853089F08091EB0012
:104A700085FD0FC02091E4003091E50042175307F7
:104A8000F9F29150E1F684E0089582E0089583E020
:104A9000089581E008950E94B9250E94C125E0EEA5
:104AA000F0E0808181608083E8EDF0E080818F77A5
:104AB000808319BCA7EDB0E08C918E7F8C938081B0
:104AC0008F7E80831092D00408950F931F93CF930D
:104AD000DF930E94B9250E94C125C8EDD0E08881EE
:104AE0008F77888388818068888388818F7D888399
:104AF00019BC1092D1041092CD041092CF041092E0
:104B0000CE0400EE10E0F80180818B7F80838881E5
:104B10008160888342E060E080E00E94C724E1EE8B
:104B2000F0E080818E7F8083E2EEF0E08081816022
:104B30008083808188608083F80180818E7F80837C
:104B4000888180618883DF91CF911F910F910895B3
:104B5000E8EDF0E080818F7E8083E7EDF0E08081FA
:104B60008160808384E082BF81E08093D0040C94D4
:104B70006525E8EDF0E080818E7F80831092E20071
:104B800008951092DA001092E10008951F920F929A
:104B90000FB60F9211242F933F934F935F936F9310
:104BA0007F938F939F93AF93BF93EF93FF938091E6
:104BB000E10082FF0BC08091E20082FF07C080917C
:104BC000E1008B7F8093E1000E9430288091DA0021
:104BD00080FF19C08091D80080FF15C08091DA0055
:104BE0008E7F8093DA008091D90080FF96C080E1AB
:104BF00089BD82E189BD09B400FEFDCF81E08093CB
:104C0000D1040E9430228091E10080FF19C0809180
:104C1000E20080FF15C08091E2008E7F8093E20069
:104C20008091E20080618093E2008091D8008062F0
:104C30008093D80019BC85E08093D1040E94422261
:104C40008091E10084FF2BC08091E20084FF27C0A7
:104C500080E189BD82E189BD89B5982F917080FF7F
:104C6000FBCF8091D8008F7D8093D8008091E100A8
:104C70008F7E8093E1008091E2008F7E8093E2003E
:104C80008091E20081608093E2008091CD048823CE
:104C900009F449C084E08093D1040E9443228091AA
:104CA000E10083FF29C08091E20083FF25C080914D
:104CB000E100877F8093E10082E08093D10410922D
:104CC000CD048091E1008E7F8093E1008091E2002D
:104CD0008E7F8093E2008091E20080618093E20009
:104CE00042E060E080E00E94C7248091F00088608C
:104CF0008093F0000E944122FF91EF91BF91AF910C
:104D00009F918F917F916F915F914F913F912F91E3
:104D10000F900FBE0F901F90189519BC1092D104E0
:104D20000E943E2270CF8091E30087FD93E0909334
:104D3000D104B3CF1F920F920FB60F9211242F936D
:104D40003F934F935F936F937F938F939F93AF9313
:104D5000BF93CF93DF93EF93FF93D091E900DF7080
:104D60008091EC00C82FC17080FDC0E81092E9006E
:104D70008091F000877F8093F00078940E94DE2677
:104D80001092E9008091F00088608093F000CD2BB4
:104D9000CF70C093E900FF91EF91DF91CF91BF9168
:104DA000AF919F918F917F916F915F914F913F91C3
:104DB0002F910F900FBE0F901F9018951F93CF93B8
:104DC000DF93CDB7DEB7AA970FB6F894DEBF0FBE5C
:104DD000CDBF82ED94E02091F100FC012193CF0141
:104DE000F4E08A3D9F07B9F70E944F228091E800C6
:104DF00083FF1EC18091D2049091D3049A3008F0B1
:104E000017C1E92FF0E0E551F64D0C94B028803839
:104E100099F0823809F00CC18091D6048F708730E8
:104E200008F006C18093E9008091EB0085FB88279C
:104E300080F91092E90006C08091CE049091CF04D1
:104E4000911182609091E800977F9093E8008093A1
:104E5000F1001092F1008091E8008E77E5C0882380
:104E600009F4D3C0823009F0E3C08091D4048111E9
:104E7000D6C08091D6048F702FEF280F263008F00F
:104E8000D7C08093E9002091EB0020FFC8C0933089
:104E900031F48091EB0080628093EB00C0C0909170
:104EA000EB0090619093EB0021E030E001C0220F15
:104EB0008A95EAF72093EA001092EA008091EB00CD
:104EC0008860EACF8111B4C01091D4041F7780911B
:104ED000E3008078812B8093E3008091E800877F56
:104EE0008093E8000E94FB248091E80080FFFCCFC3
:104EF0008091E30080688093E30082E0111183E0F9
:104F00008093D10495C08058823008F091C0809180
:104F1000D4049091D5048C3D23E09207A1F583E061
:104F20008A838AE289834FB7F894DE01139620E0E2
:104F30003EE051E2E32FF0E050935700E49120FF70
:104F400003C0E295EF703F5FEF708E2F90E0EA3084
:104F5000C0F0C7968D939D932F5F243159F74FBFB3
:104F60008091E800877F8093E8006AE270E0CE01DC
:104F700001960E940A248091E8008B778093E800D4
:104F800057C0C096E7CF6091D6047091D704AE01A8
:104F90004F5F5F4F0E944523BC01892B09F448C035
:104FA0009091E800977F9093E80089819A810E9410
:104FB0006824E1CF8038E1F58091E800877F809315
:104FC000E8008091CD048093F10045CF811130C07D
:104FD0009091D404923060F58091E800877F8093AF
:104FE000E8009093CD040E94FB248091CD04882397
:104FF00011F084E005C08091E30087FDFACF81E0E5
:105000008093D1040E94452213C08091D404813042
:1050100079F481E0933009F080E08093CF0410921E
:10502000E9008091E800877F8093E8000E94FB24DC
:105030008091E80083FF0AC08091E800877F809319
:10504000E8008091EB0080628093EB00AA960FB697
:10505000F894DEBF0FBECDBFDF91CF911F910895B1
:105060000895CF938091D1048823A1F0C091E900E5
:10507000CF709091EC00892F817090FD80E8C82B53
:105080001092E9008091E80083FD0E94DE26CF7037
:10509000C093E900CF910895991B79E004C0991F4E
:1050A000961708F0961B881F7A95C9F78095089582
:1050B00087FB082E062687FD819567FD61950E9476
:1050C0004C280EF4919507FC81950895AA1BBB1BF3
:1050D00051E107C0AA1FBB1FA617B70710F0A61BF8
:1050E000B70B881F991F5A95A9F780959095BC0119
:1050F000CD01089597FB072E16F4009407D077FD95
:1051000009D00E94662807FC05D03EF49095819551
:105110009F4F0895709561957F4F0895A1E21A2ED3
:10512000AA1BBB1BFD010DC0AA1FBB1FEE1FFF1F4B
:10513000A217B307E407F50720F0A21BB30BE40B9B
:10514000F50B661F771F881F991F1A9469F76095E2
:105150007095809590959B01AC01BD01CF0108959C
:10516000EE0FFF1F0590F491E02D09940E94BE28D8
:10517000332312F48A1B9B0B0C94CF28A29FB001FF
:10518000B39FC001A39F700D811D1124911DB29F7B
:10519000700D811D1124911D08950E94BE28B7FF36
:1051A0000895821B930B08950E94BE28A59F900D21
:1051B000B49F900DA49F800D911D11240895B7FFF9
:1051C0000C94D4280E94D428821B930B08958F92AC
:1051D0009F92AF92BF92CF92DF92EF92FF92CF93C6
:1051E000DF93EC01688179818A819B81611571056A
:1051F0008105910521F464E279ED8BE597E02DE1DD
:1052000033EF41E050E00E94982949015A019B0187
:10521000AC01A7EAB1E40E94D4286B017C01ACEE9A
:10522000B4EFA50194010E94E228DC01CB018C0DB2
:105230009D1DAE1DBF1DB7FF03C00197A109B0485A
:1052400088839983AA83BB839F77DF91CF91FF9057
:10525000EF90DF90CF90BF90AF909F908F90089588
:105260000E94E728089580E091E00E94E7280895D1
:10527000B0E0A0E08093000190930101A0930201AF
:10528000B09303010895FC014150504030F001906B
:105290000616D1F73197CF010895882799270895E9
:1052A000F999FECF92BD81BDF89A992780B50895EE
:1052B000A6E1B0E044E050E00C948A29A8E1B0E017
:1052C00042E050E00C948A29262FF999FECF92BD36
:1052D00081BDF89A019700B4021639F01FBA20BDBB
:1052E0000FB6F894FA9AF99A0FBE08950396272FED
:1052F0000E9465290E946429252F0E946529242F78
:105300000C9465290196272F0E9465290C94642925
:10531000DC01CB01FC01F999FECF06C0F2BDE1BD75
:10532000F89A319600B40D9241505040B8F7089564
:10533000052E97FB1EF400940E94AF2957FD07D05D
:105340000E948E2807FC03D04EF40C94AF29509590
:105350004095309521953F4F4F4F5F4F0895909561
:105360008095709561957F4F8F4F9F4F0895F8946A
:10537000FFCFF911011208120D12121217121C128E
:10538000211226122B123012351239123E124112FE
:10539000441247124A124C124F12151715176D1767
:1053A0006D174217421742174217BF174B185A186A
:1053B0005A18B61842174217BF1828192819311958
:1053C0003119331931193119311928192819381996
:1053D00031193119381907272F2718282F2718288E
:0A53E000622783271828DA27E62742
:1053EA0001000000010102004D004D4D01191A1B78
:1053FA001C1D1E1F2021227E03EA21EF21ED21EE32
:10540A00212F220167F6F5F4F13795919293949042
:10541A0096973430313233F700010202020206064F
:10542A00060909090909090F0F0F0F0F0F1515159D
:10543A00181919191919191919191923242525259A
:04544A0025252500EF
:00000001FF
